:100000000C9473000C9450120C9429120C947712D7
:100010000C9477120C9477120C949B000C949B0018
:100020000C949B000C949B000C949B000C949B00E4
:100030000C949B000C949B000C949B000C949B00D4
:100040000C94DF110C949B000C94AD110C9487114F
:100050000C949B000C949B000C949B000C949B00B4
:100060000C949B000C949B00005EBCE2613FDD831E
:10007000C29C7E20A3FD1F41009D23BE46DB65F888
:100080008C11AF32CA57E974000000002400270029
:100090002A0000000008000201000003040700001D
:1000A00000000000000000000000250028002B00D8
:1000B00000000000230026002900040404040404B6
:1000C0000404020202020202030303030303010207
:1000D00004081020408001020408102001020408D6
:1000E00010203313EF1211241FBECFEFD8E0DEBF74
:1000F000CDBF24E0A2ECB1E001C01D92AD3DB2073E
:10010000E1F711E0A0E0B1E0EEE3FEE302C005900C
:100110000D92A23CB107D9F710E0C2E7D0E004C0CD
:100120002197FE010E94021DC137D107C9F70E9425
:10013000B0160C94121F0C9400008091D40490917E
:10014000D504892B59F1E0916104F091620484E0B7
:10015000EA3BF80719F1309739F0A389B4899C91EB
:100160008589809589238C938091D8048E7F809394
:10017000D80410926C0210926B028AEB94E0909378
:10018000620480936104E091CD04F091CE048081FB
:100190009091CF04892B808381E0089580E00895B9
:1001A0000895AF92BF92CF92DF92EF92FF920F939A
:1001B0001F93CF93DF936C017B018B01040F151FFD
:1001C000EB015E01AE18BF08C017D10759F0699165
:1001D000D601ED91FC910190F081E02DC6010995C9
:1001E000892B79F7C501DF91CF911F910F91FF9076
:1001F000EF90DF90CF90BF90AF900895FC01538DAA
:10020000448D252F30E0842F90E0821B930B5417F0
:1002100010F0CF96089501970895FC01918D828D7D
:10022000981761F0A28DAE0FBF2FB11D5D968C9116
:10023000928D9F5F9F73928F90E008958FEF9FEF55
:100240000895FC01918D828D981731F0828DE80F11
:10025000F11D858D90E008958FEF9FEF0895FC01CB
:10026000918D228D892F90E0805C9F4F821B910998
:100270008F739927089581E792E00E942F0121E072
:10028000892B09F420E0822F089580E090E0892BEB
:1002900029F00E943B0181110C9400000895FC019B
:1002A000A48DA80FB92FB11DA35ABF4F2C91848DD7
:1002B00090E001968F739927848FA689B7892C9334
:1002C000A089B1898C91837080648C93938D848D87
:1002D000981306C00288F389E02D80818F7D80838A
:1002E0000895EF92FF920F931F93CF93DF93EC014A
:1002F00081E0888F9B8D8C8D98131AC0E889F989CD
:10030000808185FF15C09FB7F894EE89FF896083CF
:10031000E889F98980818370806480839FBF81E050
:1003200090E0DF91CF911F910F91FF90EF90089592
:10033000F62E0B8D10E00F5F1F4F0F731127E02E6D
:100340008C8D8E110CC00FB607FCFACFE889F989A5
:10035000808185FFF5CFCE010E944F01F1CFEB8D5B
:10036000EC0FFD2FF11DE35AFF4FF0829FB7F89479
:100370000B8FEA89FB8980818062CFCFCF93DF9397
:10038000EC01888D8823B9F0AA89BB89E889F989AD
:100390008C9185FD03C0808186FD0DC00FB607FCE2
:1003A000F7CF8C9185FFF2CF808185FFEDCFCE0115
:1003B0000E944F01E9CFDF91CF910895833081F002
:1003C00028F4813099F08230A9F008958730A9F09F
:1003D0008830C9F08430B1F4809180008F7D03C0F3
:1003E000809180008F7780938000089584B58F7707
:1003F00084BD089584B58F7DFBCF8091B0008F7749
:100400008093B00008958091B0008F7DF9CFCF9395
:10041000DF93282F30E0F901EE56FF4F8491F90168
:10042000E253FF4FD491F901E654FF4FC491CC231E
:10043000A1F081110E94DE01EC2FF0E0EE0FFF1F12
:10044000E055FF4FA591B491EC91ED2381E090E050
:1004500009F480E0DF91CF91089580E090E0FACF39
:1004600089E00E940702019719F41092D8010895BB
:1004700081E08093D80108951F93CF93DF93282FB5
:1004800030E0F901EE56FF4F8491F901E253FF4F3E
:10049000D491F901E654FF4FC491CC23A9F0162F53
:1004A00081110E94DE01EC2FF0E0EE0FFF1FEA55F4
:1004B000FF4FA591B4918FB7F894EC91111108C03A
:1004C000D095DE23DC938FBFDF91CF911F910895EC
:1004D000DE2BF8CFCF93DF9390E0FC01E253FF4F88
:1004E000249186549F4FFC0184918823D1F090E0A1
:1004F000880F991FFC01E857FF4FA591B491FC01AB
:10050000EA55FF4FC591D49161110EC09FB7F89481
:100510008C91E22FE0958E238C932881E223E8834F
:100520009FBFDF91CF9108958FB7F894EC91E22BA4
:10053000EC938FBFF6CF8E3008F08E5087708064BA
:1005400080937C0080917A00806480937A0080910F
:100550007A0086FDFCCF8091780090917900089513
:100560003FB7F8948091360290913702A0913802FB
:10057000B091390226B5A89B05C02F3F19F001960E
:10058000A11DB11D3FBFBA2FA92F982F8827BC01ED
:10059000CD01620F711D811D911D42E0660F771F15
:1005A000881F991F4A95D1F708958F929F92AF9215
:1005B000BF92CF92DF92EF92FF926B017C010E947B
:1005C000B0024B015C01C114D104E104F104B9F0A3
:1005D0000E94B002681979098A099B09683E734034
:1005E0008105910580F321E0C21AD108E108F108E4
:1005F00088EE880E83E0981EA11CB11CE4CFFF900A
:10060000EF90DF90CF90BF90AF909F908F90089524
:100610002FB7F894609132027091330280913402C6
:10062000909135022FBF0895089520916104309173
:1006300062042817390771F490916B0280916C0263
:10064000981741F0E0916B02F0E0EF50FE4F80818F
:1006500090E008958FEF9FEF08950895EF92FF9235
:100660000F931F93CF93DF93DC015C96ED90FC908A
:100670005D97E114F10479F481E090E013969C9386
:100680008E93129790E080E0DF91CF911F910F91B0
:10069000FF90EF9008955196ED91FC9152975096EE
:1006A0008C915097982F90950FB75E962C915E97EE
:1006B000122F127021FD6095F8942081112319F1F9
:1006C000282B2083E7012197F1F728E0462F50E0FF
:1006D000308160FF1AC0382B3083E7012197F1F792
:1006E000BA0175956795215089F7112381F08081B2
:1006F000892380830FBF5C968D919C910197F1F7C0
:1007000081E090E0C1CF2923DCCF3923E5CF908170
:10071000892BEFCF209161043091620428173907AB
:1007200071F480916C0220916B0290E0805C9F4F8D
:10073000821B910960E470E00E94B81C089590E06B
:1007400080E00895209161043091620428173907F0
:10075000B9F490916B0280916C02981789F0E09146
:100760006B02F0E0EF50FE4F808120916B0230E091
:100770002F5F3F4F2F73332720936B0290E0089534
:100780008FEF9FEF089590E080E008958091DC0165
:100790009091DD018B30910524F09093DA018093E4
:1007A000D9011092DD011092DC011092DB01109250
:1007B000100410921B0410921C0410921D0410923D
:1007C0001E041092200410921F041092DF0108955D
:1007D0000F931F93CF93DF93FC012081222309F411
:1007E00054C0EC01818592850197C9F50E940803E8
:1007F0000B891C892D893E89601B710B820B930B21
:1008000009811A812B813C81601771078207930748
:10081000E0F10E9408036B8B7C8B8D8B9E8B8B850C
:100820009C85AD85BE854D815E816F817885481B35
:10083000590B6A0B7B0B413051056105710509F4B9
:1008400018820196A11DB11D8B879C87AD87BE873D
:10085000E989FA89DF91CF911F910F9109940E9444
:10086000B0020B891C892D893E89601B710B820B9C
:10087000930B09811A812B813C81601771078207D4
:10088000930718F00E94B002C6CFDF91CF911F915D
:100890000F910895CF93DF93FC0121893289232B97
:1008A000A9F0EC0181859285019799F40E940803D3
:1008B0006B8B7C8B8D8B9E8B81E088831B861C864B
:1008C0001D861E8681E090E0988B8F87DF91CF9107
:1008D00008950E94B002ECCF8091DF01882319F1C6
:1008E00080E00E949B02893E9340DCF08091DE0113
:1008F00081110CC081E08093DE018091DC01909138
:10090000DD0101969093DD018093DC018091DB0194
:10091000811109C081E08093DB0180E194E00C94B7
:100920004A041092DE010895DC0180E0615090F0ED
:100930009D919827E92FEF70F0E0E859FF4F24913F
:10094000E92FE295EF70F0E0E858FF4FE491822F35
:100950008E27ECCF0895DC012C911196ED91FC913E
:10096000F8948181822B81839281322F3095932359
:10097000928387E090E00197F1F78181832381835F
:1009800083E290E00197F1F790817894EFECF0E04A
:100990003197F1F7922381E009F480E00895FC019A
:1009A00090810180F281E02D292F209560FF14C0F5
:1009B000F8948281822382838181892B8183A3E2BF
:1009C000B0E01197F1F78281982B9283789487EDAC
:1009D00090E00197F1F70895F89482818223828351
:1009E0008181892B8183AFEFB0E01197F1F782818C
:1009F000982B928378948FE090E0EBCFDF92EF9288
:100A0000FF920F931F93CF93DF93EC01D62EE42E2A
:100A100008E010E0FF24F39461E08D2D8F2109F4AC
:100A200060E0CE010E94CF04FF0C01501109A1F734
:100A3000E11010C0F894E981FA8191818881809554
:100A400089238183E981FA81928188818095892334
:100A500082837894DF91CF911F910F91FF90EF9057
:100A6000DF900895EF92FF920F931F93CF93DF9340
:100A70008C017B0140E065E50E94FE04E70188E00F
:100A8000E80EF11C699140E0C8010E94FE04CE15F9
:100A9000DF05C1F7DF91CF911F910F91FF90EF908C
:100AA0000895FC0190810180F281E02DF89481810C
:100AB000292F20958223818378943DE743E050E0FD
:100AC000315029F1DA011197F1F780818923C1F3BF
:100AD000F8948281822382838181892B8183789417
:100AE000ABE7B7E01197F1F7F89481818223818316
:100AF000A3E1B1E01197F1F78081982381E009F03B
:100B000080E07894E3E6F6E03197F1F7089580E02D
:100B10000895AF92BF92CF92DF92EF92FF920F9320
:100B20001F93CF93DF938B01BC01809114039091AD
:100B300015030E94320540E06EEB80911403909102
:100B400015030E94FE04E801680189E0C80ED11C6B
:100B5000A0901403B090150388E0E82EF12C10E06B
:100B600001E0C5010E94AB048111102B000F81E050
:100B7000E81AF108B1F71993CC16DD0649F7809110
:100B80001403909115030E94510591E0813009F002
:100B900090E0892FDF91CF911F910F91FF90EF90FF
:100BA000DF90CF90BF90AF9008950F931F93CF9396
:100BB000DF93CDB7DEB729970FB6F894DEBF0FBE2F
:100BC000CDBF8C0180911403909115030E945105B3
:100BD000811102C080E01FC0BE016F5F7F4FC8015E
:100BE0000E9489058823B1F368E0CE0101960E9436
:100BF000940499858913EECF8D818F33B9F020F459
:100C00008F3141F789E007C08F3521F08F3711F719
:100C10008CE001C08BE029960FB6F894DEBF0FBEC2
:100C2000CDBFDF91CF911F910F9108958AE0F3CF4F
:100C300083E10E949B02BC01990F880B990B0E94D3
:100C4000EF1923E333E343E550E40E944E1A20E01A
:100C500030E040E85AE30E944E1A20E030E048ECD1
:100C600052E40E944E1A23E333E343E550E40E942A
:100C7000B01B23E333E343E850E40E944E1A20E024
:100C800030E048EC52E40E94B01B60935502709330
:100C900056028093570290935802609360027093BB
:100CA0006102809362029093630208954F925F9273
:100CB0006F927F928F929F92AF92BF92CF92DF926C
:100CC000EF92FF92CF93DF938091D3018823F1F0CD
:100CD0008091420280935D021092D30181E0809363
:100CE00003011092EC0180916F0390917003892BA6
:100CF00009F02CC180E197E2A0E0B0E080936703A7
:100D000090936803A0936903B0936A038091D20122
:100D1000882351F11092460410925104109252040B
:100D200010925304109254041092560410925504D9
:100D300060E08AE00E943C021092D20181E0809340
:100D4000D30180916F0390917003892B09F003C147
:100D500080E197E2A0E0B0E080936703909368039E
:100D6000A0936903B0936A038091D1018823E1F0D5
:100D70008091EC01809342021092D10181E0809336
:100D8000D20180916F0390917003892B09F0E8C024
:100D900080E197E2A0E0B0E080936703909368035E
:100DA000A0936903B0936A0380910301882309F437
:100DB000BEC08091710390917203A0917303B091B2
:100DC00074030197A105B10509F0B1C061E08AE0A3
:100DD0000E943C026AE070E080E090E00E94D50250
:100DE000C4E1D0E080E10E949B02BC01990F880B16
:100DF000990B0E94EF192091E8013091E90140918F
:100E0000EA015091EB010E94441B4B015C0180926E
:100E1000E8019092E901A092EA01B092EB0181E130
:100E20000E949B02BC01990F880B990B0E94EF193D
:100E30002091E4013091E5014091E6015091E701F4
:100E40000E94441B6B017C01C092E401D092E50139
:100E5000E092E601F092E70182E10E949B02BC0170
:100E6000990F880B990B0E94EF192091E0013091A6
:100E7000E1014091E2015091E3010E94441B2B01EA
:100E80003C014092E0015092E1016092E2017092D7
:100E9000E301219709F0A6CF20E030E040EA51E4D9
:100EA000C501B4010E94B01B6093E8017093E90191
:100EB0008093EA019093EB0120E030E040EA51E4B6
:100EC000C701B6010E94B01B6093E4017093E50175
:100ED0008093E6019093E70120E030E040EA51E49E
:100EE000C301B2010E94B01B6093E0017093E10165
:100EF0008093E2019093E30186E494E00E944A0427
:100F000081E08093D1011092030180916F03909151
:100F10007003892B51F580EE93E9A4E0B0E0809353
:100F2000670390936803A0936903B0936A03DF910A
:100F3000CF91FF90EF90DF90CF90BF90AF909F90B8
:100F40008F907F906F905F904F9008958AE090E02F
:100F5000A0E0B0E0D3CE8AE090E0A0E0B0E0FCCE2C
:100F60008AE090E0A0E0B0E017CF8CE291E0A0E052
:100F7000B0E0D5CF8091D001882301F18091CE01DE
:100F80009091CF0190935F0280935E021092D00106
:100F900081E08093020180918A0390918B03892BD9
:100FA00009F0AAC080E197E2A0E0B0E0809382035C
:100FB00090938303A0938403B09385038091CD0124
:100FC0008823C9F11092100410921B0410921C0483
:100FD00010921D0410921E041092200410921F04FF
:100FE00010922B0410923604109237041092380499
:100FF0001092390410923B0410923A0460E0809100
:10100000D8030E943C021092CD0181E08093D00170
:1010100080918A0390918B03892B09F072C080E143
:1010200097E2A0E0B0E08093820390938303A093C3
:101030008403B09385038091CC01882321F18091B2
:10104000D9019091DA01880F991F880F991F909309
:10105000CF018093CE011092CC0181E08093CD012D
:1010600080918A0390918B03892B09F04FC080E116
:1010700097E2A0E0B0E08093820390938303A09373
:101080008403B0938503809102018823A1F18091AC
:101090008C0390918D03A0918E03B0918F030197E3
:1010A000A105B10541F561E08091D8030E943C02A1
:1010B0006AE070E080E090E00E94D5028BE294E06C
:1010C0000E944A0481E08093DF018093CC0110925A
:1010D000020180918A0390918B03892BE1F480E0D7
:1010E00094E2A4EFB0E08093820390938303A093F3
:1010F0008403B093850308958AE090E0A0E0B0E017
:1011000055CF8AE090E0A0E0B0E08DCF8AE090E09B
:10111000A0E0B0E0B0CF80E89EE3A0E0B0E0E3CF95
:101120008091CB01882341F18091C7019091C80142
:10113000A091C901B091CA018093590290935A02BB
:10114000A0935B02B0935C021092CB0181E080938C
:1011500001018091A5039091A603892B09F09CC001
:1011600080E197E2A0E0B0E080939D0390939E031E
:10117000A0939F03B093A0038091C601882351F1EF
:1011800060E085E00E943C021092DA031092E503D1
:101190001092E6031092E7031092E8031092EA031C
:1011A0001092E9031092C60181E08093CB018091F7
:1011B000A5039091A603892B09F073C080E197E203
:1011C000A0E0B0E080939D0390939E03A0939F03C3
:1011D000B093A0038091C501882341F18091D4018F
:1011E0009091D501A091D601B091D7018093C7010C
:1011F0009093C801A093C901B093CA011092C50190
:1012000081E08093C6018091A5039091A603892B6C
:1012100009F04CC080E197E2A0E0B0E080939D032C
:1012200090939E03A0939F03B093A003809101012C
:10123000882389F18091A7039091A803A091A90325
:10124000B091AA030197A105B10529F561E085E0F8
:101250000E943C026AE070E080E090E00E94D502CB
:101260008AED93E00E944A041092010181E080938C
:10127000C5018091A5039091A603892BE1F480EC30
:101280009FECAAE6B0E080939D0390939E03A09309
:101290009F03B093A00308958AE090E0A0E0B0E03F
:1012A00063CF8AE090E0A0E0B0E08CCF8AE090E0ED
:1012B000A0E0B0E0B3CF88E59BE1A0E0B0E0E3CFF1
:1012C00082E00E940702892B31F41092540261E0FF
:1012D0008FE00C943C0260E08FE00E943C0281E0D1
:1012E000809354020895BF92CF92DF92EF92FF92C3
:1012F0000F931F93CF93DF93EC01B62EC72E8D85EE
:10130000811105C0CE010E94510581110EC01B86BE
:101310001D861C8680E0DF91CF911F910F91FF9079
:10132000EF90DF90CF90BF90089540E060EFCE0146
:101330000E94FE0401E0E12CD12C11E0CE010E94BC
:10134000AB04F82ECE010E94AB0491E0F91218C054
:10135000813099F51134D8F2DB86D11002C081E0DA
:101360008D878B81882399F22396EB2DFC2DCF015D
:10137000089629912193E817F907D9F781E0CBCF97
:10138000EE2DF0E0F8120FC08B851817A0F4DE01E7
:10139000AE0FBF1F13968C91802379F4F12C193076
:1013A00008F41C87D12EEC0FFD1F8381902F9095A0
:1013B000892383830AC08113F1CFFE01EE0DF11D55
:1013C0008381802B8383FF24F3946F2DCE010E94B1
:1013D000CF041F5F000F11F4E39401E087E08E1546
:1013E00008F0ACCFB7CF8F929F92AF92BF92CF92BF
:1013F000DF92EF92FF920F931F93CF93DF93CDB7BE
:10140000DEB761970FB6F894DEBF0FBECDBF8091F7
:101410001403909115030E94510540E06CEC8091FB
:101420001403909115030E94FE0440910E0364E49E
:1014300080911403909115030E94FE048091100383
:10144000882391F1E0910F03E9500EEE12E0E330B2
:1014500038F4F0E0EE0FFF1FE75EFE4F00811181D0
:1014600080911103882309F458C080910E038111E3
:1014700054C00E9408034B015C016801110FEE0883
:10148000FF0880911403909115030E94AB048130F2
:1014900059F00E9408036C197D098E099F0968158F
:1014A00079058A059B0568F3E0911403F091150313
:1014B0001386158614861286118610861782168268
:1014C000158214821382BE01665F7F4F80911403E0
:1014D000909115030E947309811126C060E070E0AD
:1014E0008EEF92EC6093D4017093D5018093D60176
:1014F0009093D70161960FB6F894DEBF0FBECDBFB3
:10150000DF91CF911F910F91FF90EF90DF90CF90DF
:10151000BF90AF909F908F900895B801110F880BE6
:10152000990B0E94D502C0CF67E0CE010A960E94B7
:10153000940499898913D2CF809114039091150353
:101540000E945105882351F2BE016F5F7F4FCE018B
:101550000A960E948905882309F268E0CE01019667
:101560000E94940499858913B9CF6A8170E0762F1F
:101570006627770F770F770F298148E0249F900126
:101580001124262B372B8A858031D1F4688570E0B1
:101590008F81AB01481B5109CA019695982F882766
:1015A000979587950E94B81CCB014097B90153E0ED
:1015B000660F771F5A95E1F760789C01260F371F59
:1015C000213854EE35070CF489CFB901330F880B5D
:1015D000990B0E94EF1920E030E040E05CE30E94AC
:1015E0004E1A80CF0F931F93CF93DF93FC0104819A
:1015F00015810115110539F4FB011082DF91CF919E
:101600001F910F9108950131110510F001E110E0D3
:10161000EB01FC0160817181A801CE010E94031FD2
:10162000C00FD11F1882EACFFB0101900020E9F71B
:101630003197AF01461B570BDC01ED91FC91028005
:10164000F381E02D099461E08FE00E943C020E944A
:10165000080360936D0270936E0280936F02909303
:1016600070026EE071E080E090E00E94D50263E4D9
:1016700071E08AEB94E00E94140B83E694E00C94F2
:101680004A040C94230BCF92DF92EF92FF920F93B8
:101690001F93CF93DF93CDB7DEB7A1970FB6F89422
:1016A000DEBF0FBECDBF66E471E081E792E00E942D
:1016B000140B0E94080300916D0210916E0220919C
:1016C0006F02309170026B017C01C01AD10AE20AEC
:1016D000F30AA701960119A28E010F5D1F4F8AE040
:1016E000C82ED12CE12CF12CCA01B901A701960119
:1016F0000E94CC1C605DF80162938F0121153105B9
:101700004105510589F7309729F0BF0181E792E043
:101710000E94140B62E671E081E792E00E94140BD4
:1017200060E08FE00E943C02109265021092660217
:10173000109267021092680210926902109263047C
:1017400010926E0410926F04109270041092710443
:101750001092730410927204A1960FB6F894DEBF33
:101760000FBECDBFDF91CF911F910F91FF90EF90F2
:10177000DF90CF900895CF92DF92EF92FF920F9378
:101780001F9380916502882389F180916A0296EB0C
:10179000C92E93E0D92EE12CF12C882331F082EC74
:1017A000C82EDD24D394E12CF12C0E9408032EE0F6
:1017B000C20E21E0D21EE11CF11C00916D021091BD
:1017C0006E0220916F0230917002601B710B820BD0
:1017D000930B6C157D058E059F0540F01F910F91B1
:1017E000FF90EF90DF90CF900C94430B1F910F91DF
:1017F000FF90EF90DF90CF9008958091C4018823EF
:1018000051F180914B02809312011092C40191E03A
:101810009093000181110CC065E671E081E792E0D0
:101820000E94140B62E671E081E792E00E94140BC3
:101830008091C0039091C103892B09F092C080E18F
:1018400097E2A0E0B0E08093B8039093B903A0932F
:10185000BA03B093BB038091C301882351F1109266
:10186000F5031092000410920104109202041092E9
:101870000304109205041092040460E088E00E94C2
:101880003C021092C30181E08093C4018091C003A7
:101890009091C103892B09F069C080E197E2A0E033
:1018A000B0E08093B8039093B903A093BA03B093C8
:1018B000BB038091C2018823E1F08091D80180931D
:1018C0004B021092C20181E08093C3018091C0035A
:1018D0009091C103892B09F04EC080E197E2A0E00E
:1018E000B0E08093B8039093B903A093BA03B09388
:1018F000BB0380910001882399F18091C2039091EC
:10190000C303A091C403B091C5030197A105B1051C
:1019100039F561E088E00E943C026AE070E080E016
:1019200090E00E94D5021092D80185EF93E00E94CA
:101930004A041092000181E08093C2018091C003AB
:101940009091C103892BE1F480E791E1A1E0B0E03F
:101950008093B8039093B903A093BA03B093BB03E9
:1019600008958AE090E0A0E0B0E06DCF8AE090E0DA
:10197000A0E0B0E096CF8AE090E0A0E0B0E0B1CF88
:1019800086E490E0A0E0B0E0E3CF0F931F93CF9305
:10199000DF938C01EB01FC01808191810097E1F0E4
:1019A0006881798161157105A9F0428153812C818B
:1019B0003D814217530770F00E94FC1E8C819D816F
:1019C000F801958384831D821C82DF91CF911F9142
:1019D0000F9108950E94A41D88819981F801918337
:1019E00080838A819B81938382838C819D8195836F
:1019F0008483198218821B821A82E5CFCF93DF93EA
:101A0000EC0188819981009711F00E94A41D198230
:101A100018821D821C821B821A82DF91CF91089549
:101A2000FC01808191810C94A41D0F931F93CF938F
:101A3000DF93EC0188819981009759F02A813B81DD
:101A40002617370730F081E0DF91CF911F910F917A
:101A500008958B016F5F7F4F0E942D1E009759F0F4
:101A6000998388831B830A832C813D81232B59F71B
:101A7000FC011082E8CF80E0E7CFEF92FF920F9356
:101A80001F93CF93DF938C017B01EB010990002022
:101A9000E9F72197C61BD70BBE010E94150D8111D6
:101AA00009C0C801DF91CF911F910F91FF90EF9076
:101AB0000C94FE0CF801D583C483B7018081918119
:101AC000DF91CF911F910F91FF90EF900C94FC1E2E
:101AD0000F931F93CF93DF93CDB7DEB762970FB607
:101AE000F894DEBF0FBECDBF8C01CB01F80111828F
:101AF000108213821282158214824AE0BE016F5F47
:101B00007F4F0E94B819BE016F5F7F4FC8010E94CE
:101B10003D0D62960FB6F894DEBF0FBECDBFDF91CC
:101B2000CF911F910F910895EF92FF920F931F9302
:101B3000CF93DF936115710541F480E0DF91CF9180
:101B40001F910F91FF90EF90089541155105B1F04D
:101B50007B01EC010C811D81040F151FB8010E944F
:101B6000150D882351F3288139818C819D81B7011E
:101B7000820F931F0E94FC1E1D830C8381E0DECF29
:101B8000FB0101900020E9F73197AF01461B570B8D
:101B90000C94940DFB0144815581608171810C94FA
:101BA000940DEF92FF920F931F93CF93DF93EC016D
:101BB0007B01198218821B821A821D821C82FB0102
:101BC00001900020E9F731978F01061B170BB80130
:101BD0000E94150D811109C0CE01DF91CF911F9197
:101BE0000F91FF90EF900C94FE0C1D830C83B701B6
:101BF00088819981DF91CF911F910F91FF90EF9094
:101C00000C94FC1EAF92BF92CF92DF92EF92FF92A4
:101C10000F931F93CF93DF936C015B017A018901CE
:101C20002417350720F48F2D7901042F182F64E62F
:101C300071E0C6010E94D10DD5011496CD91DC91C1
:101C4000EC16FD06E0F40C171D0708F4E801D501B9
:101C5000ED91FC911197EC0FFD1F108110826D9199
:101C60007C916E0D7F1DC60161157105A1F00E946A
:101C70003D0DF50180819181C80FD91F1883C601E0
:101C8000DF91CF911F910F91FF90EF90DF90CF9058
:101C9000BF90AF9008950E94FE0CEBCFCF93DF93DF
:101CA000CDB7DEB7A4970FB6F894DEBF0FBECDBF99
:101CB00083E694E00E94E8030E949D008AEB94E092
:101CC0000E948A03892B09F4C1C064E671E0CE0149
:101CD0004F960E94D10D8AEB94E00E948A03892BD3
:101CE00029F18AEB94E00E94A2031A8219821C82D5
:101CF0001B821E821D828B8B1C8ABE016D5E7F4FF4
:101D0000CE0101960E943D0DBE016F5F7F4FCE0157
:101D10004F960E94CA0DCE0101960E94100D61E0FF
:101D200070E080E090E00E94D502D5CF80916A02F9
:101D3000882309F46EC080916502811121C08BA1B6
:101D40009CA1892B71F067E771E08F8D98A10E94AB
:101D5000F31E892B31F481E08093650210926402B6
:101D60000FC0809164028330C8F763E471E08AEBAE
:101D700094E00E94140B809164028F5F8093640250
:101D800080916502882309F440C080916802811126
:101D900066C06AE771E080E994E00E943D0D6EE75D
:101DA00074E080E994E00E94CA0D20E030E040E257
:101DB00051E46091600270916102809162029091A1
:101DC00063020E944E1A0E94221CCE0143960E947A
:101DD000680DBE016D5E7F4F80E994E00E94CA0DE0
:101DE000BE016F5F7F4F80E994E00E94F20ABE015E
:101DF0006F5F7F4F8AEB94E00E94140B81E0809329
:101E00006802CE0143960E94100D80916A028111F2
:101E100019C0809165028111DBC08BA19CA1892B27
:101E200089F067E771E08F8D98A10E94F31E892BDE
:101E300049F46DE871E08AEB94E00E94140B81E0B4
:101E400080936502CE014F960E94100DA4960FB6A6
:101E5000F894DEBF0FBECDBFDF91CF910895809182
:101E600069028111B2C062E871E08AE894E00E94E0
:101E70003D0D60915E0270915F02CE0149960E9415
:101E8000680D8D8D9E8D83309105E8F46AE871E0D0
:101E9000029711F46BE871E0CE0149960E943D0D66
:101EA00060915E0270915F02CE0101960E94680D02
:101EB000BE016F5F7F4FCE0149960E94CA0DCE01D1
:101EC00001960E94100DBE01675E7F4F8AE894E084
:101ED0000E94CA0D809112016CEA71E0811102C06A
:101EE0006BE871E08AE894E00E94C00D80915D0289
:101EF0006CEA71E0811102C06BE871E08AE894E05D
:101F00000E94C00D20E030E040E251E460915902AF
:101F100070915A0280915B0290915C020E944E1A6D
:101F20000E94221CCE0143960E94680D8F89988DD5
:101F30008330910548F56AE871E0029711F46BE887
:101F400071E0CE0143960E943D0D20E030E040E27A
:101F500051E46091590270915A0280915B02909114
:101F60005C020E944E1A0E94221CCE0101960E9421
:101F7000680DBE016F5F7F4FCE0143960E94CA0D70
:101F8000CE0101960E94100DBE016D5E7F4F8AE862
:101F900094E00E94CA0DCE0143960E94100DCE011E
:101FA00049960E94100DBE016F5F7F4F8AE894E052
:101FB0000E94F20ABE016F5F7F4F8AEB94E00E949D
:101FC000140B81E08093690220CF0E94430B1DCF48
:101FD0008091660281115AC02BA13CA148E050E0DB
:101FE000BE01615E7F4FCE0101960E94020EBE01CE
:101FF0006F5F7F4FCE014F960E94C50CCE010196B8
:102000000E94100D26E030E050E040E0BE01615E2D
:102010007F4FCE0101960E94020EBE016F5F7F4F7F
:1020200084E894E00E94C50CCE0101960E94100D38
:102030002BA13CA146E050E0BE01615E7F4FCE0186
:1020400001960E94020EBE016F5F7F4F8EE794E003
:102050000E94C50CCE0101960E94100D66E971E048
:102060008CE994E00E943D0DBE016F5F7F4F8CE9CB
:1020700094E00E94F20ABE016F5F7F4F8AEB94E00A
:102080000E94140B81E080936602DCCE809167028F
:102090008111D8CE66EA71E086E994E00E943D0D98
:1020A0006EEA71E086E994E00E94C00D64E874E095
:1020B00086E994E00E94CA0DBE016F5F7F4F86E9FA
:1020C00094E00E94F20ABE016F5F7F4F8AEB94E0BA
:1020D0000E94140B81E08093670280936A02B2CE63
:1020E0008F929F92AF92BF92CF92DF92EF92FF9228
:1020F0000F931F93CF93DF938091F00181112AC03A
:1021000082E10E949B02BC01990F880B990B0E94EF
:10211000EF192091E0013091E1014091E2015091ED
:10212000E3010E94431B20E030E048E952E40E94B2
:10213000B01B9B01AC010E944E1A0E94631C20E060
:1021400030E040E050E40E94581C18161CF481E076
:102150008093F0018091F001882309F49DC005E08F
:1021600010E0D0E0C0E080E10E949B02BC01990F2A
:10217000880B990B0E94EF192091E8013091E90139
:102180004091EA015091EB010E94431B6B017C01DD
:10219000BE01DD0F880B990B0E94EF194B015C010A
:1021A000A7019601C701B6010E944E1A9B01AC011E
:1021B000C501B4010E94441B0E94221CEB01015086
:1021C000110989F6CB0165E070E00E94B81C7B0123
:1021D00005E010E0D0E0C0E081E10E949B02BC017C
:1021E000990F880B990B0E94EF192091E40130910F
:1021F000E5014091E6015091E7010E94431B9B01DC
:10220000AC010E944E1A4B015C01BE01DD0F880B30
:10221000990B0E94EF199B01AC01C501B4010E940A
:10222000441B0E94221CEB0101501109A9F6CB01AD
:1022300065E070E00E94B81C6E0D7F1D072E000C3B
:10224000880B990B0E94EF190E94631C6B017C01A3
:1022500020E030E0A9010E94581C20E030E040E07E
:102260005FE387FD26C0C701B6010E94441B0E94A0
:10227000221C8091EE019091EF01FC01EE0FFF1FF7
:10228000EC5FFE4F71836083019685309105B4F455
:102290009093EF018093EE01DF91CF911F910F9109
:1022A000FF90EF90DF90CF90BF90AF909F908F9076
:1022B0000895C701B6010E94431BD9CF1092EF01C8
:1022C0001092EE01E4E0F1E02AE031E08191919199
:1022D00040815181841B950B4E96CD9790F42E171B
:1022E0003F07A1F781E08093ED018091ED01882304
:1022F00059F081E08093EC011092F0011092ED0111
:10230000CBCF1092ED01F1CF1092F001C5CF1F920B
:102310000F920FB60F9211242F933F934F935F9319
:102320006F937F938F939F93AF93BF93EF93FF939D
:1023300081E792E00E944F01FF91EF91BF91AF9131
:102340009F918F917F916F915F914F913F912F91CD
:102350000F900FBE0F901F9018951F920F920FB6FF
:102360000F9211242F938F939F93EF93FF93E091FC
:102370008102F09182028081E0918702F0918802CF
:1023800082FD1BC0908180918A028F5F8F732091A4
:102390008B02821741F0E0918A02F0E0EF58FD4F86
:1023A000958F80938A02FF91EF919F918F912F914A
:1023B0000F900FBE0F901F9018958081F4CF1F9241
:1023C0000F920FB60F9211242F933F938F939F93E9
:1023D000AF93BF938091320290913302A091340267
:1023E000B09135023091310223E0230F2D3758F59B
:1023F0000196A11DB11D209331028093320290936A
:102400003302A0933402B09335028091360290914A
:102410003702A0913802B09139020196A11DB11D79
:102420008093360290933702A0933802B09339021A
:10243000BF91AF919F918F913F912F910F900FBEC0
:102440000F901F90189526E8230F0296A11DB11D2D
:10245000D2CF1F920F920FB60F9211242F933F935A
:102460004F935F936F937F938F939F93AF93BF939C
:10247000EF93FF93E0911001F09111010995FF9105
:10248000EF91BF91AF919F918F917F916F915F91EC
:102490004F913F912F910F900FBE0F901F90189565
:1024A0001F920F920FB60F9211242F933F934F93C9
:1024B0005F936F937F938F939F93AF93BF93EF93AC
:1024C000FF93E0910E01F0910F010995FF91EF91BB
:1024D000BF91AF919F918F917F916F915F914F913C
:1024E0003F912F910F900FBE0F901F9018951F9244
:1024F0000F920FB60F9211242F933F934F935F9338
:102500006F937F938F939F93AF93BF93EF93FF93BB
:10251000E0916104F0916204309749F0A685B78597
:102520008585968D91FF14C09C918923A1F4FF911C
:10253000EF91BF91AF919F918F917F916F915F913B
:102540004F913F912F910F900FBE0F901F901895B4
:102550009C91892361F7A389B4899C918589809591
:1025600089238C93868997890197F1F7608D718D06
:10257000A685B785558538E020E0CB010197F1F7B6
:10258000822F90E095958795282F4C91452309F04F
:102590002068315091F7868D81FD209580916C02E5
:1025A00090E001968F73992730916B02381799F05C
:1025B000A0916C02B0E0AF50BE4F2C9380936C02A0
:1025C000828D938D0197F1F7A389B4898C919589B8
:1025D000892B8C93ACCF868D8160868FF1CF8EE76F
:1025E00094E00E94100D84E894E00E94100D8AE8A7
:1025F00094E00E94100D80E994E00E94100D86E99D
:1026000094E00E94100D8CE994E00E94100D84EB80
:1026100094E00E94100D8EEA94E00E94100D88EA6A
:1026200094E00E94100D82EA94E00E94100D85E370
:1026300091E09093BB048093BA04809161049091DF
:1026400062048A5B944071F4E091CD04F091CE0471
:1026500090818091CF0480958923808310926204B9
:102660001092610408950F931F93109274021092B8
:10267000730288EE93E0A0E0B0E08093750290933F
:102680007602A0937702B093780223E231E0309390
:1026900072022093710225EC30E030937E02209389
:1026A0007D0224EC30E03093800220937F0220EC06
:1026B00030E0309382022093810221EC30E03093AD
:1026C00084022093830222EC30E030938602209330
:1026D000850226EC30E03093880220938702109226
:1026E0008A0210928B0210928C0210928D0210922C
:1026F000BD041092BC048093BE049093BF04A093C9
:10270000C004B093C10485E391E09093BB0480932F
:10271000BA041092D1041092D0041092D3041092F3
:10272000D2041092D5041092D4041092D7041092BF
:10273000D6046091D8046E7F6D7F6093D80466954F
:10274000617081E0682783E00E943C0261E083E0E1
:102750000E946A02E1EDF0E0E491E093CA04EDEB3F
:10276000F0E0E491F0E0EE0FFF1FEA55FF4F859196
:1027700094919093CC048093CB0460E084E00E9419
:102780006A028091D80481FD04C061E084E00E9467
:102790003C0284E08093C604E2EDF0E0E491E09333
:1027A000C704EEEBF0E0E491F0E0EE0FFF1FE05520
:1027B000FF4F859194919093C9048093C8046DE96B
:1027C00071E082EA94E00E94D10D64E671E088EA4B
:1027D00094E00E94D10D64E671E08EEA94E00E94DC
:1027E000D10D64E671E084EB94E00E94D10D64E6C3
:1027F00071E08CE994E00E94D10D64E671E086E915
:1028000094E00E94D10D64E671E080E994E00E94BA
:10281000D10D64E671E08AE894E00E94D10D64E68F
:1028200071E084E894E00E94D10D64E671E08EE7E7
:1028300094E00E94D10D10926D0410926C0480E51A
:1028400093ECA0E0B0E08093640490936504A093BF
:102850006604B093670410926804109269041092A1
:102860006A0410926B042BEB3BE0309375042093C9
:1028700074041092630410927604109277041092FC
:1028800078041092790410926E0410926F041092E2
:102890007004109271041092500410924F0440EF93
:1028A00059E462E070E04093470450934804609319
:1028B000490470934A0410924B0410924C041092F5
:1028C0004D0410924E0420E730E1309358042093D9
:1028D0005704109246041092590410925A04109210
:1028E0005B0410925C0410925104109252041092F6
:1028F00053041092540410921A041092190440ECDC
:1029000051EE64EE70E04093110450931204609312
:10291000130470931404109215041092160410926C
:1029200017041092180426EC33E03093220420930D
:102930002104109210041092230410922404109287
:1029400025041092260410921B0410921C0410926D
:102950001D0410921E04109235041092340440E2BB
:102960005EE460E070E040932C0450932D0460938B
:102970002E0470932F0410923004109231041092A0
:102980003204109233042CE634E030933D0420935B
:102990003C0410922B0410923E0410923F041092BB
:1029A00040041092410410923604109237041092A1
:1029B0003804109239041092FF031092FE038093A2
:1029C000F6039093F703A093F803B093F9031092E2
:1029D000FA031092FB031092FC031092FD0380E3B4
:1029E00092E090930704809306041092F5031092EE
:1029F00008041092090410920A0410920B04109219
:102A0000000410920104109202041092030460E08A
:102A100086E00E946A02E4EDF0E0E491E093220394
:102A2000E0ECF0E0E491F0E0EE0FFF1FE055FF4F27
:102A300085919491909324038093230310922D0306
:102A400010922F0310922E0310922C0310922B033E
:102A500010922A0310922903109228031092270340
:102A6000109226031092250382E293E090931503BF
:102A700080931403109212031092130310920E030A
:102A800089E080930F0381E080931003809311030A
:102A900010922103109220031092E4031092E3039A
:102AA00080EC96ECADE2B0E08093DB039093DC0326
:102AB000A093DD03B093DE031092DF031092E003D6
:102AC0001092E1031092E20383EF99E09093EC03FC
:102AD0008093EB031092DA031092ED031092EE0351
:102AE0001092EF031092F0031092E5031092E603A8
:102AF0001092E7031092E8031092D2031092D403CD
:102B00001092D3031092D7038EE090E09093D603F7
:102B10008093D50387E090E09093D9038093D80306
:102B200061E00E946A0281E090E09093C10380938B
:102B3000C0034AE050E060E070E04093B803509377
:102B4000B9036093BA037093BB0304E010E020E084
:102B500030E00093BC031093BD032093BE03309379
:102B6000BF03EDEFFBE0F093C903E093C8031092BD
:102B7000B7031092CA031092CB031092CC031092A9
:102B8000CD031092C2031092C3031092C40310929B
:102B9000C5039093A6038093A50340939D03509390
:102BA0009E0360939F037093A0030093A10310936F
:102BB000A2032093A3033093A403E0E9F8E0F09389
:102BC000AE03E093AD0310929C031092AF031092FA
:102BD000B0031092B1031092B2031092A7031092A7
:102BE000A8031092A9031092AA0390938B038093D9
:102BF0008A0340938203509383036093840370930A
:102C000085030093860310938703209388033093F2
:102C10008903EAEBF7E0F0939303E09392031092B9
:102C200081031092940310929503109296031092D0
:102C3000970310928C0310928D0310928E031092C2
:102C40008F039093700380936F03409367035093B7
:102C500068036093690370936A0300936B03109396
:102C60006C0320936D0330936E0326E536E03093BA
:102C700078032093770310926603109279031092E1
:102C80007A0310927B0310927C03109271031092CE
:102C90007203109273031092740390935503809300
:102CA000540308EE13E020E030E000934C0310934F
:102CB0004D0320934E0330934F0301E010E020E0DA
:102CC00030E000935003109351032093520330934C
:102CD0005303E8E1F6E0F0935D03E0935C031092A8
:102CE0004B0310925E0310925F03109260031092E8
:102CF00061031092560310925703109258031092DA
:102D0000590390933A0380933903409331035093CE
:102D100032036093330370933403009335031093AD
:102D20003603209337033093380381E49BE090937C
:102D30004203809341031092300310924303109298
:102D40004403109245031092460310923B031092E5
:102D50003C0310923D0310923E031F910F91089582
:102D6000CF93DF93CDB7DEB728970FB6F894DEBFC9
:102D70000FBECDBF789484B5826084BD84B5816078
:102D800084BD85B5826085BD85B5816085BD809136
:102D90006E00816080936E001092810080918100AE
:102DA00082608093810080918100816080938100A6
:102DB000809180008160809380008091B100846068
:102DC0008093B1008091B00081608093B0008091C9
:102DD0007A00846080937A0080917A008260809388
:102DE0007A0080917A00816080937A0080917A00E5
:102DF000806880937A001092C100E0918102F09186
:102E0000820282E08083E0917D02F0917E02108256
:102E1000E0917F02F09180028FEC80831092890212
:102E2000E0918502F091860286E08083E091830242
:102E3000F0918402808180618083E0918302F0912F
:102E40008402808188608083E0918302F091840213
:102E5000808180688083E0918302F0918402808188
:102E60008F7D808361E08FE00E946A021092D5041A
:102E70001092D4041092D3041092D2041092D10470
:102E80001092D0048DE991E09093D7048093D604FA
:102E90009091C604963108F047C02DEB30E0309396
:102EA000D1042093D0042BE931E03093D304209354
:102EB000D2042CE231E03093D5042093D404209145
:102EC000680084E0983048F031E09E3008F430E04B
:102ED00081E001C0880F3A95EAF7822B8093680061
:102EE0002DE630E0983050F02BE630E09E3030F0A8
:102EF0002CE630E0963110F030E020E03093CE0444
:102F00002093CD04292F30E0983008F099C081E05B
:102F100001C0880F9A95EAF78093CF048091D60478
:102F20009091D7040197F1F70E949D006AE070E04C
:102F300080E090E00E94D50261E088E00E946A0291
:102F400060E089E00E946A0261E085E00E946A0216
:102F5000E0911403F09115031386158614861286EA
:102F6000118610861782168215821482138210929F
:102F700012031092130301E0BE016F5F7F4F809137
:102F80001403909115030E947309882309F475C0F6
:102F900067E0CE0101960E94940498858913ECCFD6
:102FA00080910E03811128C0809114039091150324
:102FB0000E945105BE016F5F7F4F80911403909175
:102FC00015030E94320540E064EB80911403909158
:102FD00015030E94FE0480911403909115030E9432
:102FE000AB04182F80911403909115030E94510592
:102FF000111102C000930E0310910F0389818031DB
:1030000009F4B2C1CE0101960E94D505811728F5B9
:1030100080910F0380930F03809112038F5F809341
:1030200012038981883231F010F5803119F0823233
:1030300009F0A2CF809113038F5F809313039CCF7D
:103040009E3040F42850310981E001C0880F2A9554
:10305000EAF762CF2E503109F7CF8981803111F420
:103060008CE0D8CFCE0101960E94D505D3CF8B330B
:1030700009F3823409F080CFDDCF61E08AE00E945D
:103080006A020E94230B80E699E090930F018093DF
:103090000E01809169008C7F816080936900E89ABD
:1030A00061EB71E081E792E00E94140B62E671E04F
:1030B00081E792E00E94140B00E010E0BB24B3947F
:1030C0000E944E0E85EF93E00E94E8038AED93E0A4
:1030D0000E94E80380E194E00E94E8038BE294E020
:1030E0000E94E80386E494E00E94E8030E944E0EEA
:1030F000809154028111FEC00E940803613D774017
:103100008105910518F10E940803AB01BC01809173
:10311000500290915102A0915202B09153028851F5
:103120009C4FAF4FBF4F84179507A607B70770F4A2
:103130000E940803609350027093510280935202E0
:103140009093530280E393E00E944A040E94080394
:10315000AB01BC0180914C0290914D02A0914E02B6
:10316000B0914F0288579C4EAF4FBF4F84179507C1
:10317000A607B70770F40E94080360934C0270938F
:103180004D0280934E0290934F0287EB93E00E9492
:103190004A0480914B02882309F489C00E940803E5
:1031A000AB01BC018091470290914802A091490275
:1031B000B0914A02805C904EAF4FBF4F8417950785
:1031C000A607B70770F40E94080360934702709344
:1031D00048028093490290934A028CE993E00E944E
:1031E0004A040E940803AB01BC0180914302909104
:1031F0004402A0914502B0914602805D9A48AF4FCB
:10320000BF4F84179507A607B70770F40E940803FD
:103210006093430270934402809345029093460268
:1032200081E893E00E944A04C0903E02D0903F02A1
:10323000E0904002F0904102809142028823E1F048
:10324000B0925D020E94080328E8C20E23E1D21E5C
:10325000E11CF11CC616D706E806F90640F50E94E7
:10326000080360933E0270933F0280934002909364
:103270004102109242021BC00E94080324EFC20EBA
:1032800021E0D21EE11CF11CC616D706E806F9069D
:1032900070F40E94080360933E0270933F02809393
:1032A00040029093410286E693E00E944A040E9405
:1032B0000803AB01BC0180913A0290913B02A091BE
:1032C0003C02B0913D028854944FAF4FBF4F8417DA
:1032D0009507A607B70770F40E94080360933A02A7
:1032E00070933B0280933C0290933D028BE493E009
:1032F0000E944A048BE493E00E94E80387EB93E08A
:103300000E94E8038CE993E00E94E80381E893E0DF
:103310000E94E80386E693E00E94E80380E393E0DE
:103320000E94E8038091550290915602A0915702A5
:10333000B09158028093600290936102A093620260
:10334000B093630261E070E080E090E00E94D502FB
:103350000115110509F4B4CE0E943B01882309F43C
:10336000AFCE0E940000ACCE1D3008F051CE78CE1A
:10337000BB274A3031F4992322F4BDE29095819520
:103380009F4F0C94C419BB27FB015527AA27880F10
:10339000991FAA1FA41710F0A41B83955051B9F7C9
:1033A000A05DAA3308F0A95DA193009779F7B11148
:1033B000B1931192CB010C94DD19DC01FC01672F54
:1033C00071917723E1F7329704C07C916D937083FC
:1033D0006291AE17BF07C8F30895E89409C097FB40
:1033E0003EF490958095709561957F4F8F4F9F4FDC
:1033F0009923A9F0F92F96E9BB279395F695879520
:1034000077956795B795F111F8CFFAF4BB0F11F4E2
:1034100060FF1BC06F5F7F4F8F4F9F4F16C0882389
:1034200011F096E911C0772321F09EE8872F762FBF
:1034300005C0662371F096E8862F70E060E02AF000
:103440009A95660F771F881FDAF7880F96958795EC
:1034500097F90895990F0008550FAA0BE0E8FEEFC1
:1034600016161706E807F907C0F012161306E40748
:10347000F50798F0621B730B840B950B39F40A2641
:1034800061F0232B242B252B21F408950A2609F41F
:10349000A140A6958FEF811D811D08950E94611A9C
:1034A0000C94D21A0E94C41A38F00E94CB1A20F051
:1034B000952311F00C94BB1A0C94C11A11240C948E
:1034C000061B0E94E31A70F3959FC1F3950F50E01D
:1034D000551F629FF001729FBB27F00DB11D639FC6
:1034E000AA27F00DB11DAA1F649F6627B00DA11D6C
:1034F000661F829F2227B00DA11D621F739FB00D12
:10350000A11D621F839FA00D611D221F749F332781
:10351000A00D611D231F849F600D211D822F762F1A
:103520006A2F11249F5750409AF0F1F088234AF0F7
:10353000EE0FFF1FBB1F661F771F881F9150504063
:10354000A9F79E3F510580F00C94BB1A0C94061B02
:103550005F3FE4F3983ED4F3869577956795B795EA
:10356000F795E7959F5FC1F7FE2B880F911D969504
:10357000879597F9089597F99F6780E870E060E074
:1035800008959FEF80EC089500240A9416161706FC
:1035900018060906089500240A9412161306140644
:1035A00005060895092E0394000C11F4882352F0A7
:1035B000BB0F40F4BF2B11F460FF04C06F5F7F4F5F
:1035C0008F4F9F4F089557FD9058440F551F59F046
:1035D0005F3F71F04795880F97FB991F61F09F3F00
:1035E00079F087950895121613061406551FF2CF29
:1035F0004695F1DF08C0161617061806991FF1CF79
:1036000086957105610508940895E894BB2766279F
:103610007727CB0197F908952F923F924F925F92AF
:103620006F927F928F929F92AF92BF92CF92DF92D2
:10363000EF92FF920F931F93CF93DF93CDB7DEB737
:10364000CA1BDB0B0FB6F894DEBF0FBECDBF0994CB
:103650002A88398848885F846E847D848C849B8422
:10366000AA84B984C884DF80EE80FD800C811B8130
:10367000AA81B981CE0FD11D0FB6F894DEBF0FBE5F
:10368000CDBFED0108955058BB27AA270E945B1BB0
:103690000C94D21A0E94C41A38F00E94CB1A20F05F
:1036A00039F49F3F19F426F40C94C11A0EF4E095F6
:1036B000E7FB0C94BB1AE92F0E94E31A58F3BA17E0
:1036C000620773078407950720F079F4A6F50C9438
:1036D000051B0EF4E0950B2EBA2FA02D0B01B9019E
:1036E00090010C01CA01A0011124FF27591B99F078
:1036F000593F50F4503E68F11A16F040A22F232F84
:10370000342F4427585FF3CF469537952795A795D3
:10371000F0405395C9F77EF41F16BA0B620B730B7A
:10372000840BBAF09150A1F0FF0FBB1F661F771FEB
:10373000881FC2F70EC0BA0F621F731F841F48F4A0
:10374000879577956795B795F7959E3F08F0B0CF29
:103750009395880F08F09927EE0F97958795089510
:103760000E94C41B0C94D21A0E94CB1A58F00E94DB
:10377000C41A40F029F45F3F29F00C94BB1A511190
:103780000C94061B0C94C11A0E94E31A68F3992347
:10379000B1F3552391F3951B550BBB27AA2762174D
:1037A0007307840738F09F5F5F4F220F331F441F5A
:1037B000AA1FA9F335D00E2E3AF0E0E832D091508E
:1037C0005040E695001CCAF72BD0FE2F29D0660F7B
:1037D000771F881FBB1F261737074807AB07B0E8BE
:1037E00009F0BB0B802DBF01FF2793585F4F3AF0C4
:1037F0009E3F510578F00C94BB1A0C94061B5F3F5A
:10380000E4F3983ED4F3869577956795B795F79549
:103810009F5FC9F7880F911D9695879597F9089531
:10382000E1E0660F771F881FBB1F621773078407CD
:10383000BA0720F0621B730B840BBA0BEE1F88F7DC
:10384000E09508950E94291C6894B1110C94061B00
:1038500008950E94EB1A88F09F5798F0B92F992786
:10386000B751B0F0E1F0660F771F881F991F1AF06B
:10387000BA95C9F714C0B13091F00E94051BB1E0B0
:1038800008950C94051B672F782F8827B85F39F0AF
:10389000B93FCCF3869577956795B395D9F73EF404
:1038A00090958095709561957F4F8F4F9F4F0895AC
:1038B0000E942A1A08F48FEF089519F416F40C9454
:1038C000C11A0C94A31C0E94EB1AB8F39923C9F3F4
:1038D000B6F39F57550B87FF0E94B11C0024A0E64A
:1038E00040EA900180585695979528F4805C660FC1
:1038F000771F881F20F026173707480730F4621B10
:10390000730B840B202931294A2BA6951794079411
:10391000202531254A2758F7660F771F881F20F08A
:1039200026173707480730F4620B730B840B200D02
:10393000311D411DA09581F7B901842F9158880F41
:103940009695879508959F3F31F0915020F4879583
:1039500077956795B795880F911D9695879597F9F7
:10396000089591505040660F771F881FD2F7089531
:1039700097FB072E16F4009407D077FD09D00E941C
:10398000EE1C07FC05D03EF4909581959F4F08955D
:10399000709561957F4F0895A1E21A2EAA1BBB1B5B
:1039A000FD010DC0AA1FBB1FEE1FFF1FA217B3070B
:1039B000E407F50720F0A21BB30BE40BF50B661F21
:1039C000771F881F991F1A9469F7609570958095E5
:1039D00090959B01AC01BD01CF010895AA1BBB1BB3
:1039E00051E107C0AA1FBB1FA617B70710F0A61BFF
:1039F000B70B881F991F5A95A9F780959095BC0120
:103A0000CD010895EE0FFF1F0590F491E02D09946C
:103A10000F931F93CF93DF938230910510F482E0D0
:103A200090E0E091DB04F091DC0430E020E0B0E0D5
:103A3000A0E0309799F42115310509F44AC0281BFC
:103A4000390B24303105D8F58A819B8161157105C8
:103A500089F1FB0193838283FE0111C04081518172
:103A60000281138148175907E0F04817590799F464
:103A7000109761F012960C93129713961C9332963E
:103A8000CF01DF91CF911F910F9108950093DB0437
:103A90001093DC04F4CF2115310551F04217530780
:103AA00038F0A901DB019A01BD01DF01F801C1CFA6
:103AB000EF01F9CF9093DC048093DB04CDCFFE01BE
:103AC000E20FF31F819391932250310939832883A8
:103AD000D7CF2091D9043091DA04232B41F42091DF
:103AE0001501309116013093DA042093D904209106
:103AF0001301309114012115310541F42DB73EB762
:103B00004091170150911801241B350BE091D90405
:103B1000F091DA04E217F307A0F42E1B3F0B2817ED
:103B2000390778F0AC014E5F5F4F2417350748F036
:103B30004E0F5F1F5093DA044093D9048193919301
:103B40009FCFF0E0E0E09CCFCF93DF930097E9F0C8
:103B5000FC01329713821282A091DB04B091DC0445
:103B6000ED0130E020E01097A1F420813181820F37
:103B7000931F2091D9043091DA042817390709F0EE
:103B800061C0F093DA04E093D904DF91CF910895F6
:103B9000EA01CE17DF07E8F54A815B819E014115F6
:103BA0005105B1F7E901FB83EA8349915991C40FAB
:103BB000D51FEC17FD0761F4808191810296840F77
:103BC000951FE90199838883828193819B838A83EE
:103BD000F0E0E0E012968D919C9113970097B9F573
:103BE0002D913C911197CD010296820F931F209148
:103BF000D9043091DA042817390739F6309751F58E
:103C00001092DC041092DB04B093DA04A093D90480
:103C1000BCCFD383C28340815181840F951FC817C5
:103C2000D90761F44E5F5F4F88819981480F591F12
:103C3000518340838A819B8193838283211531053F
:103C400009F0B0CFF093DC04E093DB049ECFFD01DC
:103C5000DC01C0CF13821282D7CFB0E0A0E0E3E353
:103C6000FEE10C940E1B8C01009751F4CB010E94D5
:103C7000081D8C01C801CDB7DEB7E0E10C942A1B0A
:103C8000FC01E60FF71F9C0122503109E217F307F0
:103C900008F49DC0D901CD91DC911197C617D707C3
:103CA00098F0C530D10530F3CE01049786179707F9
:103CB00008F3C61BD70B2297C193D1936D937C93C6
:103CC000CF010E94A41DD6CF5B01AC1ABD0A4C01E6
:103CD0008C0E9D1EA091DB04B091DC04512C412C74
:103CE000F12CE12C109731F58091D9049091DA04F0
:103CF0008815990509F05CC04616570608F058C0AB
:103D00008091130190911401009741F48DB79EB7F3
:103D10004091170150911801841B950BE817F90782
:103D200008F055C0F093DA04E093D904F9017183E7
:103D30006083A0CF8D919C91119712966C901297F1
:103D400013967C901397A815B90559F56C0142E0BC
:103D5000C40ED11CCA14DB0420F1AC014A195B0962
:103D6000DA011296159780F0628273825183408344
:103D7000D9016D937C93E114F10471F0D70113968E
:103D8000FC93EE93129776CF22968C0F9D1FF9012C
:103D900091838083F301EFCFF093DC04E093DB04A5
:103DA00069CF4816590608F42C017D01D3019ACF3A
:103DB000CB010E94081D7C01009749F0AE01B801BB
:103DC0000E94EA1EC8010E94A41D870153CF10E083
:103DD00000E050CFFB01DC0102C001900D92415088
:103DE0005040D8F70895FB01DC018D9101908019B6
:103DF0000110D9F3990B0895FB01DC0101900D929C
:103E00000020E1F70895FB01DC014150504048F0EB
:103E100001900D920020C9F701C01D924150504001
:103E2000E0F7089510E0C2E7D0E004C0FE010E9470
:0E3E3000021D2196C337D107C9F7F894FFCFC2
:103E3E00010101010100020003000400050014034A
:103E4E001403010000DD0480005E00BC0077010059
:103E5E000000007101D100FE00BE012F010D0121F5
:103E6E0001000000002E03D100C3032D038A03A21C
:103E7E000315034154005469656D706F20676173BB
:103E8E007461646F20656E2070726F6365736F3A34
:103E9E0020000D0A004E6F206861792070726F78D5
:103EAE00696D69646164004F4B0041542B49424572
:103EBE00320041542B494245330030300041542BDF
:103ECE00414444523F0041542B494245303030303A
:103EDE0030373036370041542B49424531003836A1
:103EEE00007365747570207465726D696E61646FB0
:023EFE000000C2
:107E0000112484B714BE81FFF0D085E080938100F7
:107E100082E08093C00088E18093C10086E0809377
:107E2000C20080E18093C4008EE0C9D0259A86E02C
:107E300020E33CEF91E0309385002093840096BBD3
:107E4000B09BFECF1D9AA8958150A9F7CC24DD24C4
:107E500088248394B5E0AB2EA1E19A2EF3E0BF2EE7
:107E6000A2D0813461F49FD0082FAFD0023811F036
:107E7000013811F484E001C083E08DD089C08234E0
:107E800011F484E103C0853419F485E0A6D080C0E4
:107E9000853579F488D0E82EFF2485D0082F10E0AE
:107EA000102F00270E291F29000F111F8ED06801E7
:107EB0006FC0863521F484E090D080E0DECF843638
:107EC00009F040C070D06FD0082F6DD080E0C81688
:107ED00080E7D80618F4F601B7BEE895C0E0D1E017
:107EE00062D089930C17E1F7F0E0CF16F0E7DF06D8
:107EF00018F0F601B7BEE89568D007B600FCFDCFD4
:107F0000A601A0E0B1E02C9130E011968C91119780
:107F100090E0982F8827822B932B1296FA010C0160
:107F200087BEE89511244E5F5F4FF1E0A038BF0790
:107F300051F7F601A7BEE89507B600FCFDCF97BE46
:107F4000E89526C08437B1F42ED02DD0F82E2BD052
:107F50003CD0F601EF2C8F010F5F1F4F84911BD097
:107F6000EA94F801C1F70894C11CD11CFA94CF0C13
:107F7000D11C0EC0853739F428D08EE10CD085E9AC
:107F80000AD08FE07ACF813511F488E018D01DD067
:107F900080E101D065CF982F8091C00085FFFCCF94
:107FA0009093C60008958091C00087FFFCCF809118
:107FB000C00084FD01C0A8958091C6000895E0E648
:107FC000F0E098E1908380830895EDDF803219F02E
:107FD00088E0F5DFFFCF84E1DECF1F93182FE3DFCA
:107FE0001150E9F7F2DF1F91089580E0E8DFEE27F6
:047FF000FF270994CA
:027FFE00040479
:0400000300007E007B
:00000001FF
