:100000000C9473000C94E40B0C94BD0B0C946D12C7
:100010000C946D120C946D120C949B000C949B002C
:100020000C949B000C949B000C949B000C949B00E4
:100030000C949B000C949B000C949B000C949B00D4
:100040000C94A80D0C949B000C94310C0C940B0C8C
:100050000C949B000C949B000C949B000C949B00B4
:100060000C949B000C949B000000000025002800CD
:100070002B000000000023002600290004040404D3
:100080000404040402020202020203030303030342
:10009000010204081020408001020408102001021F
:1000A0000408102000000000240027002A0000009F
:1000B0000008000201000003040700000000000027
:1000C0000000005EBCE2613FDD83C29C7E20A3FD98
:1000D0001F41009D23BE46DB65F88C11AF32CA5725
:1000E000E9749514161B11241FBECFEFD8E0DEBFB4
:1000F000CDBF11E0A0E0B1E0E0E0F2E402C0059085
:100100000D92A43BB107D9F724E0A4EBB1E001C004
:100110001D92A03DB207E1F710E0C2E7D0E004C0B5
:100120002197FE010E94D91EC137D107C9F70E944D
:1001300005180C94F3200C9400000C94E1078091B6
:100140000D01882309F44AC083E10E94200D20910B
:10015000C6013091C7012817390724F49093C701CD
:100160008093C601A091C601B091C7012AE230E098
:100170000E94BE1E2FEF33E040E050E00E94AE1C14
:10018000CA01B9010E94911B20E030E040E251E435
:100190000E94A21D609314017093150180931601B3
:1001A0009093170110920D0181E0809304018091DA
:1001B000460390914703892B29F480E197E2A0E060
:1001C000B0E004C08AE090E0A0E0B0E080933E039D
:1001D00090933F03A0934003B093410380910C019F
:1001E000882351F183E10E94200D2091C6013091B6
:1001F000C7012817390724F49093C7018093C601DB
:1002000081E080930D0110920C0180914603909142
:100210004703892B29F480E492E4AFE0B0E004C006
:1002200088EE93E0A0E0B0E080933E0390933F031C
:10023000A0934003B093410380910B01882351F1B7
:1002400083E10E94200D2091C6013091C70128173B
:10025000390724F49093C7018093C60181E080930D
:100260000C0110920B018091460390914703892B5A
:1002700029F480E492E4AFE0B0E004C088EE93E0BB
:10028000A0E0B0E080933E0390933F03A09340032F
:10029000B093410380910A01882351F183E10E94C8
:1002A000200D2091C6013091C7012817390724F489
:1002B0009093C7018093C60181E080930B01109257
:1002C0000A018091460390914703892B29F480E429
:1002D00092E4AFE0B0E004C088EE93E0A0E0B0E0CC
:1002E00080933E0390933F03A0934003B093410358
:1002F00080910901882351F183E10E94200D209112
:10030000C6013091C7012817390724F49093C7011B
:100310008093C60181E080930A01109209018091C7
:10032000460390914703892B29F480E492E4AFE0DF
:10033000B0E004C088EE93E0A0E0B0E080933E031C
:1003400090933F03A0934003B09341038091080131
:10035000882351F183E10E94200D2091C601309144
:10036000C7012817390724F49093C7018093C60169
:1003700081E08093090110920801809146039091D9
:100380004703892B29F480E492E4AFE0B0E004C095
:1003900088EE93E0A0E0B0E080933E0390933F03AB
:1003A000A0934003B093410380910701882351F14A
:1003B00083E10E94200D2091C6013091C7012817CA
:1003C000390724F49093C7018093C60181E080939C
:1003D0000801109207018091460390914703892BF1
:1003E00029F480E492E4AFE0B0E004C088EE93E04A
:1003F000A0E0B0E080933E0390933F03A0934003BE
:10040000B093410380910601882351F183E10E945A
:10041000200D2091C6013091C7012817390724F417
:100420009093C7018093C60181E0809307011092E9
:1004300006018091460390914703892B29F480E4BB
:1004400092E4AFE0B0E004C088EE93E0A0E0B0E05A
:1004500080933E0390933F03A0934003B0934103E6
:1004600080910501882351F183E10E94200D2091A4
:10047000C6013091C7012817390724F49093C701AA
:100480008093C60181E0809306011092050180915E
:10049000460390914703892B29F480E492E4AFE06E
:1004A000B0E004C088EE93E0A0E0B0E080933E03AB
:1004B00090933F03A0934003B093410380910401C4
:1004C000882381F18091480390914903A0914A03C8
:1004D000B0914B030197A105B10521F583E10E947D
:1004E000200D9093C7018093C60181E080930501A0
:1004F000109204018091460390914703892B69F47F
:1005000080E492E4AFE0B0E080933E0390933F0339
:10051000A0934003B0934103089588EE93E0A0E0D8
:10052000B0E0F2CF0895CF92DF92EF92FF92CF9397
:10053000DF938091C501882311F18091920280930D
:10054000B3021092C50181E0809303011092D7029B
:100550008091610390916203892B29F480E197E2F5
:10056000A0E0B0E004C08AE090E0A0E0B0E08093BA
:10057000590390935A03A0935B03B0935C0380915B
:10058000C401882371F1109239041092440410922E
:1005900045041092460410924704109249041092A8
:1005A000480460E08AE00E94B50C1092C40181E02A
:1005B0008093C5018091610390916203892B29F496
:1005C00080E197E2A0E0B0E004C08AE090E0A0E023
:1005D000B0E08093590390935A03A0935B03B093C8
:1005E0005C038091C301882301F18091D70280933D
:1005F00092021092C30181E08093C4018091610353
:1006000090916203892B29F480E197E2A0E0B0E0A9
:1006100004C08AE090E0A0E0B0E08093590390939A
:100620005A03A0935B03B0935C038091030188237A
:1006300009F4CFC08091630390916403A091650396
:10064000B09166030197A105B10509F0C2C061E050
:100650008AE00E94B50C6AE070E080E090E00E94C1
:10066000620DC4E1D0E080E10E94200DBC01990F31
:10067000880B990B0E94911B9B01AC016091D302E6
:100680007091D4028091D5029091D6020E94361DBD
:100690006093D3027093D4028093D5029093D602D4
:1006A00081E10E94200DBC01990F880B990B0E94DB
:1006B000911B9B01AC016091CF027091D00280919F
:1006C000D1029091D2020E94361D6093CF027093A6
:1006D000D0028093D1029093D20282E10E94200D39
:1006E000BC01990F880B990B0E94911B2091CB02A2
:1006F0003091CC024091CD025091CE020E94361D25
:100700006B017C016093CB027093CC028093CD028D
:100710009093CE02219709F0A6CF20E030E040EA86
:1007200051E46091D3027091D4028091D5029091EE
:10073000D6020E94A21D6093D3027093D4028093CC
:10074000D5029093D60220E030E040EA51E4609177
:10075000CF027091D0028091D1029091D2020E947A
:10076000A21D6093CF027093D0028093D102909328
:10077000D20220E030E040EA51E4C701B6010E9415
:10078000A21D6093CB027093CC028093CD02909314
:10079000CE0289E394E00E94BC1381E08093C30100
:1007A000109203018091610390916203892B29F4D7
:1007B00080EE93E9A4E0B0E004C08CE291E0A0E018
:1007C000B0E08093590390935A03A0935B03B093D6
:1007D0005C03DF91CF91FF90EF90DF90CF90089571
:1007E0008091C201882321F18091C0019091C101C3
:1007F0009093B6028093B5021092C20181E080937B
:10080000020180917C0390917D03892B29F480E182
:1008100097E2A0E0B0E004C08AE090E0A0E0B0E0A1
:100820008093740390937503A0937603B09377033A
:100830008091BF018823E9F11092030410920E0405
:1008400010920F04109210041092110410921304CD
:100850001092120410921E041092290410922A047D
:1008600010922B0410922C0410922E0410922D043E
:1008700060E08091CB030E94B50C1092BF0181E033
:100880008093C20180917C0390917D03892B29F490
:1008900080E197E2A0E0B0E004C08AE090E0A0E050
:1008A000B0E08093740390937503A0937603B093A4
:1008B00077038091BE01882341F18091C802909115
:1008C000C902880F991F880F991F9093C1018093C7
:1008D000C0011092BE0181E08093BF0180917C0332
:1008E00090917D03892B29F480E197E2A0E0B0E0AC
:1008F00004C08AE090E0A0E0B0E08093740390939D
:100900007503A0937603B093770380910201882347
:10091000D1F180917E0390917F03A0918003B091EB
:1009200081030197A105B10571F561E08091CB03C9
:100930000E94B50C6AE070E080E090E00E94620DD9
:100940008EE194E00E94BC1381E08093CA02809300
:10095000BE011092020180917C0390917D03892B4E
:1009600069F480E094E2A4EFB0E080937403909384
:100970007503A0937603B0937703089580E89EE310
:10098000A0E0B0E0F2CF08958091BD01882361F12D
:100990008091B9019091BA01A091BB01B091BC01C5
:1009A0008093AF029093B002A093B102B093B202D1
:1009B0001092BD0181E08093010180919703909195
:1009C0009803892B29F480E197E2A0E0B0E004C00D
:1009D0008AE090E0A0E0B0E080938F0390939003D2
:1009E000A0939103B09392038091B801882371F191
:1009F00060E085E00E94B50C1092CD031092D80300
:100A00001092D9031092DA031092DB031092DD03E7
:100A10001092DC031092B80181E08093BD018091B7
:100A2000970390919803892B29F480E197E2A0E045
:100A3000B0E004C08AE090E0A0E0B0E080938F03D3
:100A400090939003A0939103B09392038091B70188
:100A5000882361F18091C8019091C901A091CA01D8
:100A6000B091CB018093B9019093BA01A093BB01DF
:100A7000B093BC011092B70181E08093B8018091DE
:100A8000970390919803892B29F480E197E2A0E0E5
:100A9000B0E004C08AE090E0A0E0B0E080938F0373
:100AA00090939003A0939103B093920380910101DE
:100AB0008823B9F18091990390919A03A0919B03A7
:100AC000B0919C030197A105B10559F561E085E05E
:100AD0000E94B50C6AE070E080E090E00E94620D38
:100AE0008DEC93E00E94BC131092010181E0809391
:100AF000B7018091970390919803892B69F480EC5A
:100B00009FECAAE6B0E080938F0390939003A093AC
:100B10009103B0939203089588E59BE1A0E0B0E0D3
:100B2000F2CF08958091B601882331F1809193022C
:100B30008093B4021092B60191E09093000181116C
:100B400004C082E591E00E94CE078091B2039091AB
:100B5000B303892B29F480E197E2A0E0B0E004C060
:100B60008AE090E0A0E0B0E08093AA039093AB030A
:100B7000A093AC03B093AD038091B501882371F1CC
:100B80001092E8031092F3031092F4031092F5030D
:100B90001092F6031092F8031092F70360E088E0D9
:100BA0000E94B50C1092B50181E08093B60180914E
:100BB000B2039091B303892B29F480E197E2A0E07E
:100BC000B0E004C08AE090E0A0E0B0E08093AA0327
:100BD0009093AB03A093AC03B093AD038091B401A9
:100BE000882301F18091C702809393021092B4018F
:100BF00081E08093B5018091B2039091B303892B7A
:100C000029F480E197E2A0E0B0E004C08AE090E03F
:100C1000A0E0B0E08093AA039093AB03A093AC0351
:100C2000B093AD03809100018823C9F18091B40392
:100C30009091B503A091B603B091B7030197A105B8
:100C4000B10569F561E088E00E94B50C6AE070E0EA
:100C500080E090E00E94620D1092C70288EE93E05F
:100C60000E94BC131092000181E08093B401809136
:100C7000B2039091B303892B69F480EF99E4A2E069
:100C8000B0E08093AA039093AB03A093AC03B0931E
:100C9000AD03089586E990E0A0E0B0E0F2CF0895BA
:100CA00082E00E948C0C892B31F41092940261E056
:100CB0008FE00C94B50C60E08FE00E94B50C81E0F1
:100CC000809394020895FC0190810180F281E02DCF
:100CD000892F809560FF12C0F8942281822382833D
:100CE0008181892B8183A3E2B0E01197F1F78281A2
:100CF000982B9283789487ED90E011C0F89422812C
:100D0000822382838181892B8183AFEFB0E01197A9
:100D1000F1F78281982B928378948FE090E001978D
:100D2000F1F70895DC012C911196ED91FC91129749
:100D3000F8948181922F90958923818378948DE70F
:100D400043E050E0815021F1DA011197F1F7308151
:100D50003223C1F3F8948281892382838181822B9B
:100D600081837894ABE7B7E01197F1F7F89481812C
:100D70009823918383E191E00197F1F78081282303
:100D800081E009F080E07894E3E6F6E03197F1F74E
:100D900008958F929F92AF92BF92CF92DF92EF927F
:100DA000FF920F931F93CF93DF93CDB7DEB7619779
:100DB0000FB6F894DEBF0FBECDBF80917602909142
:100DC00077020E94920640E06CEC8091760290914E
:100DD00077020E941E144091700264E480917602B2
:100DE000909177020E941E14809172028823D9F19B
:100DF000E0917102E950E33040F4F0E0EE0FFF1FA4
:100E0000E85DFE4F0081118102C00EEE12E080917C
:100E10007302882311F18091700281111EC00E941B
:100E20009C0D4B015C016801110FEE08FF088091D9
:100E30007602909177020E9471148130A1F00E9495
:100E40009C0DDC01CB018C199D09AE09BF098815E9
:100E50009905AA05BB0558F306C0B801110F880B08
:100E6000990B0E94620DE0917602F0917702138651
:100E700015861486DF011B96CF0103961E928A17F2
:100E80009B07E1F7BE01665F7F4FCF010E948F088D
:100E9000882341F067E0CE010A960E9406149989E2
:100EA0008917F9F060E070E08EEF92EC6093C80172
:100EB0007093C9018093CA019093CB0161960FB6DC
:100EC000F894DEBF0FBECDBFDF91CF911F910F9180
:100ED000FF90EF90DF90CF90BF90AF909F908F905A
:100EE000089580917602909177020E94920688235D
:100EF00009F451C0BE016F5F7F4FCE010A960E9478
:100F0000FF07882309F447C068E0CE0101960E94DC
:100F10000614998589133FC02A8130E0C901982FB2
:100F20008827990F990F990F698128E0629FB00176
:100F300011249C01262B372B8A858031C9F46885C2
:100F400070E08F81AB01481B5109CA019695982F1B
:100F50008827979587950E94AA1E60517109207F66
:100F600053E0220F331F5A95E1F7620F731F01C040
:100F7000B901613854EE75070CF494CF072E000CBC
:100F8000880B990B0E94911B20E030E040E05CE36D
:100F90000E94F01B8BCF60E874EEEBCFCF93DF9312
:100FA000BC0183ED91E00E944113EC0164E671E025
:100FB00083ED91E00E9441138C0F9D1FDF91CF9133
:100FC000089561E08FE00E94B50C0E949C0D609333
:100FD000CF017093D0018093D1019093D2016EE044
:100FE00071E080E090E00E94620D67E671E08DEABA
:100FF00094E00E94411386E594E00C94BC13AF92F8
:10100000BF92CF92DF92EF92FF920F931F93CF93F5
:10101000DF938B01BC0180917602909177020E9450
:10102000521440E06EEB80917602909177020E941C
:101030001E14E801680189E0C80ED11CA090760258
:10104000B090770288E0E82EF12C10E001E0C501B5
:101050000E9471148111102B000F81E0E81AF10831
:10106000B1F71993CC16DD0649F78091760290917D
:1010700077020E94920691E0813009F090E0892F7A
:10108000DF91CF911F910F91FF90EF90DF90CF9064
:10109000BF90AF9008950F931F93CF93DF93CDB779
:1010A000DEB729970FB6F894DEBF0FBECDBF8C0117
:1010B00080917602909177020E949206882309F12E
:1010C000BE016F5F7F4FC8010E94FF078823C9F0F0
:1010D00068E0CE0101960E9406149985891311C01B
:1010E0008D818F3361F020F48F3159F489E00CC089
:1010F0008F3519F08F3739F004C08BE005C08AE0D6
:1011000003C080E001C08CE029960FB6F894DEBFE2
:101110000FBECDBFDF91CF911F910F910895BF9268
:10112000CF92DF92EF92FF920F931F93CF93DF93B3
:10113000EC016B018D85811105C0CE010E949206E4
:10114000811105C01B861D861C8680E060C040E0C2
:1011500060EFCE010E941E1401E0E12CB12C11E0E1
:10116000CE010E947114F82ECE010E94711491E0FC
:10117000F91203C08130B1F434C02E2D30E0F812E2
:101180001BC08B85181738F4FE01E20FF31F838113
:10119000802341F402C0811729F0F12C193058F452
:1011A0001C8709C0FE01EE0DF11D8381802B838316
:1011B000FF24F39409C0B12EFE01E20FF31F9381C7
:1011C000802F8095892383836F2DCE010E94630633
:1011D0001F5F000F11F4E39401E087E08E1508F023
:1011E000BFCF113408F4AECFBB86B11002C081E08E
:1011F0008D878B81882309F4A5CFDE011396F60134
:101200002B968D918193CA17DB07D9F781E0DF9187
:10121000CF911F910F91FF90EF90DF90CF90BF90F3
:1012200008958091C7049091C804892B59F1E091E9
:101230005404F091550484E0ED3AF80719F1309721
:1012400039F0A389B4899C918589809589238C93F1
:101250008091CB048E7F8093CB041092CD011092AD
:10126000CC018DEA94E09093550480935404E0916E
:10127000C004F091C10490818091C204892B8083C5
:1012800081E0089580E008950F931F93CF93DF933B
:10129000CDB7DEB762970FB6F894DEBF0FBECDBFF5
:1012A0008C01CB01F8011182108213821282158207
:1012B00014824AE0BE016F5F7F4F0E945A1BBE013D
:1012C0006F5F7F4FC8010E94480B62960FB6F8947B
:1012D000DEBF0FBECDBFDF91CF911F910F9108955B
:1012E0000F931F93CF93DF93FC01C481D581209787
:1012F00019F4FB01108210C0C131D10510F0C1E119
:10130000D0E08B01FC0160817181AE01C8010E94B7
:10131000E420C00FD11F1882DF91CF911F910F9150
:101320000895AF92BF92CF92DF92EF92FF920F9308
:101330001F93CF93DF936C015B018A01DB0114964D
:10134000ED90FC901597E416F50620F4812F8701A7
:10135000E42EF82E66E671E0C6010E94A80BF501A6
:10136000C481D5810C171D07C8F4EC16FD0608F4DE
:10137000E701D501ED91FC911197EC0FFD1FF08075
:1013800010826D917C91600F711FC6010E94480B05
:10139000F50180819181C80FD91FF882C601DF91C4
:1013A000CF911F910F91FF90EF90DF90CF90BF9062
:1013B000AF90089508950895CF92DF92EF92FF9233
:1013C0000F931F93CF93DF936C017A018B01C0E0E1
:1013D000D0E0CE15DF0581F0D8016D918D01D601E9
:1013E000ED91FC910190F081E02DC6010995892BCA
:1013F00011F02196EECF7E01C701DF91CF911F91B1
:101400000F91FF90EF90DF90CF900895FC01538DE6
:10141000448D252F30E0842F90E0821B930B5417CE
:1014200010F0CF96089501970895FC01918D828D5B
:10143000981761F0828DDF01A80FB11D5D968C9128
:10144000928D9F5F9F73928F90E008958FEF9FEF33
:101450000895FC01918D828D981731F0828DE80FEF
:10146000F11D858D90E008958FEF9FEF08950E9404
:10147000C6200F931F93CF93DF93EC01888199814E
:10148000009729F02A813B812617370788F48B01C2
:101490006F5F7F4F0E940020009761F099838883DF
:1014A0001B830A832C813D81232B11F4FC011082C4
:1014B00081E001C080E0DF91CF911F910F910895ED
:1014C000EF92FF920F931F93CF93DF9361157105F6
:1014D00011F480E01CC041155105C1F07B01EC0105
:1014E0008C819D818A01080F191FB801CE010E94CD
:1014F000390A882371F3288139818C819D81B70154
:10150000820F931F0E94DD201D830C8381E0DF91F9
:10151000CF911F910F91FF90EF900895EF92FF925E
:101520000F931F93CF93DF93EC017B018A01BA01E4
:101530000E94390A2881398181110DC02115310598
:1015400019F0C9010E94771F198218821D821C821E
:101550001B821A8206C01D830C83B701C9010E9439
:10156000DD20CE01DF91CF911F910F91FF90EF9081
:10157000089583ED91E00E94441021E0892B09F445
:1015800020E0822F0895EF92FF920F931F93CF9345
:10159000DF93EC0181E0888F9B8D8C8D981305C0C3
:1015A000E889F989808185FD26C0F62E0B8D10E033
:1015B0000F5F1F4F0F731127E02E8C8DE8120CC0A8
:1015C0000FB607FCFACFE889F989808185FFF5CF4E
:1015D000CE010E944B12F1CF8B8DFE01E80FF11D61
:1015E000E35AFF4FF0829FB7F8940B8FEA89FB898B
:1015F000808180620AC09FB7F894EE89FF8960837A
:10160000E889F98980818370806480839FBF81E04D
:1016100090E0DF91CF911F910F91FF90EF9008958F
:10162000CF93DF93EC01888D8823C9F0EA89FB8989
:10163000808185FD05C0A889B9898C9186FD0FC080
:101640000FB607FCF5CF808185FFF2CFA889B98955
:101650008C9185FFEDCFCE010E944B12E7CFDF9139
:10166000CF9108956115710551F0FB0101900020A3
:10167000E9F73197AF01461B570B0C94600A80E0E5
:101680000895FB0144815581608171810C94600A49
:10169000CF93DF93EC016115710559F0FB010190C7
:1016A0000020E9F73197AF01461B570B0E948E0AC5
:1016B0000CC088819981009711F00E94771F1982D0
:1016C00018821D821C821B821A82CE01DF91CF916B
:1016D00008950F931F93CF93DF938C01EB01FC01CF
:1016E00080819181009739F0688179816115710558
:1016F000A1F40E94771F88819981F80191838083EA
:101700008A819B81938382838C819D81958384834D
:10171000198218821B821A820FC0F80142815381FC
:101720002C813D814217530720F30E94DD208C81DC
:101730009D81F801958384831D821C82DF91CF9166
:101740001F910F910895FC01808191810C94771F66
:10175000FC0111821082138212821582148261159B
:10176000710551F0FB0101900020E9F73197AF01BD
:10177000461B570B0C948E0A08951F920F920FB6BA
:101780000F9211242F933F934F935F936F937F9307
:101790008F939F93AF93BF93EF93FF93E0911001CB
:1017A000F09111010995FF91EF91BF91AF919F9138
:1017B0008F917F916F915F914F913F912F910F90FA
:1017C0000FBE0F901F9018951F920F920FB60F9299
:1017D00011242F933F934F935F936F937F938F9336
:1017E0009F93AF93BF93EF93FF93E0910E01F0911E
:1017F0000F010995FF91EF91BF91AF919F918F914B
:101800007F916F915F914F913F912F910F900FBEFC
:101810000F901F9018951F920F920FB60F921124E0
:101820002F933F934F935F936F937F938F939F93E8
:10183000AF93BF93EF93FF9383ED91E00E944B1220
:10184000FF91EF91BF91AF919F918F917F916F9198
:101850005F914F913F912F910F900FBE0F901F906E
:1018600018951F920F920FB60F9211242F938F93FA
:101870009F93EF93FF93E091E301F091E401808166
:10188000E091E901F091EA0182FD12C0908180911E
:10189000EC018F5F8F732091ED01821751F0E09181
:1018A000EC01F0E0ED52FE4F958F8093EC0101C00A
:1018B0008081FF91EF919F918F912F910F900FBE9B
:1018C0000F901F901895833081F028F4813099F0A3
:1018D0008230A1F008958730A9F08830B9F08430C3
:1018E000D1F4809180008F7D03C0809180008F773C
:1018F00080938000089584B58F7702C084B58F7D72
:1019000084BD08958091B0008F7703C08091B000AE
:101910008F7D8093B0000895CF93DF93282F30E020
:10192000F901E255FF4F8491F901E057FF4FD4913F
:10193000F901E458FF4FC491CC2391F081110E942A
:10194000630CEC2FF0E0EE0FFF1FEE58FF4FA59158
:10195000B491EC91ED2381E090E021F480E002C0AD
:1019600080E090E0DF91CF9108951F93CF93DF93B4
:10197000282F30E0F901E255FF4F8491F901E0573B
:10198000FF4FD491F901E458FF4FC491CC23C1F02B
:10199000162F81110E94630CEC2FF0E0EE0FFF1F59
:1019A000E859FF4FA591B4919FB7F894111104C065
:1019B0008C91D095D82302C0EC91DE2BDC939FBF95
:1019C000DF91CF911F910895CF93DF9390E0FC01B9
:1019D000E057FF4F2491FC01E458FF4F8491882386
:1019E00061F190E0880F991FFC01EC55FF4FC59104
:1019F000D491FC01E859FF4FA591B491611109C040
:101A00009FB7F8948881209582238883EC912E23B8
:101A10000BC0623061F49FB7F8948881322F309503
:101A200083238883EC912E2B2C939FBF06C08FB706
:101A3000F894E8812E2B28838FBFDF91CF910895F2
:101A40008E3008F08E502091130190E4299F900170
:101A500011248770822B80937C0080917A008064AF
:101A600080937A0080917A0086FDFCCF8091780087
:101A70002091790090E0922B08953FB7F8948091DF
:101A8000C2029091C302A091C402B091C50226B5D2
:101A9000A89B05C02F3F19F00196A11DB11D3FBFA6
:101AA000BA2FA92F982F8827820F911DA11DB11D34
:101AB000BC01CD0142E0660F771F881F991F4A9530
:101AC000D1F708958F929F92AF92BF92CF92DF92FB
:101AD000EF92FF926B017C010E943D0D4B015C0176
:101AE000C114D104E104F104F1F00E943D0DDC01C8
:101AF000CB0188199909AA09BB09883E9340A10521
:101B0000B10570F321E0C21AD108E108F10888EEAE
:101B1000880E83E0981EA11CB11CC114D104E104FD
:101B2000F10419F7DDCFFF90EF90DF90CF90BF90D9
:101B3000AF909F908F9008952FB7F8946091BE0258
:101B40007091BF028091C0029091C1022FBF089591
:101B50001F920F920FB60F9211242F933F938F93E2
:101B60009F93AF93BF938091BE029091BF02A091CB
:101B7000C002B091C1023091BD0223E0230F2D3786
:101B800020F40196A11DB11D05C026E8230F029681
:101B9000A11DB11D2093BD028093BE029093BF0290
:101BA000A093C002B093C1028091C2029091C3027F
:101BB000A091C402B091C5020196A11DB11D8093F0
:101BC000C2029093C302A093C402B093C502BF9116
:101BD000AF919F918F913F912F910F900FBE0F90DA
:101BE0001F901895FF920F931F93CF93DF93CDB75C
:101BF000DEB7A4970FB6F894DEBF0FBECDBF86E563
:101C000094E00E9456130E9411098DEA94E00E940C
:101C1000C310892B09F42CC266E671E0CE014F9601
:101C20000E94A80B8DEA94E00E94C310892B29F131
:101C30008DEA94E00E94DB101A8219821C821B82BA
:101C40001E821D828B8B1C8ABE016D5E7F4FCE0172
:101C500001960E94480BBE016F5F7F4FCE014F96E9
:101C60000E94410BCE0101960E94A30B61E070E03F
:101C700080E090E00E94620DD5CF8091BC02882365
:101C800009F434C18091B702811122C08BA19CA1BB
:101C9000892B61F06AE771E08F8D98A10E94D420B2
:101CA000892B21F481E08093B70210C08091C60295
:101CB000833060F467E671E08DEA94E00E9441139E
:101CC0008091C6028F5F8093C60202C01092C60246
:101CD0008091B702882309F405C18091BA0281116D
:101CE00041C06DE771E083E894E00E94480B61E732
:101CF00074E083E894E00E94410B20E030E040E291
:101D000051E4609114017091150180911601909138
:101D100017010E94F01B0E94141ECE0143960E94E0
:101D20004409BE016D5E7F4F83E894E00E94410B41
:101D3000BE016F5F7F4F83E894E00E947009BE018F
:101D40006F5F7F4F8DEA94E00E94411381E08093A2
:101D5000BA02CE0101960E94CE07CE0143960E94A0
:101D6000A30BC0C08091BB028111BAC065E871E0CD
:101D70008DE794E00E94480B6091B5027091B60225
:101D8000CE0149960E9444098D8D9E8D8330910528
:101D9000F0F4029719F06DE871E002C06EE871E0AE
:101DA000CE0149960E94480B6091B5027091B6022F
:101DB000CE0101960E944409BE016F5F7F4FCE01A4
:101DC00049960E94410BCE0101960E94A30BBE01D1
:101DD000675E7F4F8DE794E00E94410B8091B402D3
:101DE000882319F06FEA71E002C06EE871E08DE7B8
:101DF00094E00E94320B8091B302882319F06FEABD
:101E000071E002C06EE871E08DE794E00E94320B51
:101E100020E030E040E251E46091AF027091B00206
:101E20008091B1029091B2020E94F01B0E94141E98
:101E3000CE0143960E9444098F89988D8330910585
:101E400050F5029719F06DE871E002C06EE871E09C
:101E5000CE0143960E94480B20E030E040E251E47E
:101E60006091AF027091B0028091B1029091B20284
:101E70000E94F01B0E94141ECE0101960E9444098C
:101E8000BE016F5F7F4FCE0143960E94410BCE0192
:101E900001960E94A30BBE016D5E7F4F8DE794E01B
:101EA0000E94410BCE0143960E94A30BCE0149969E
:101EB0000E94A30BBE016F5F7F4F8DE794E00E94ED
:101EC0007009BE016F5F7F4F8DEA94E00E9441135D
:101ED00081E08093BB02CE0101960E94CE0702C032
:101EE0000E94E7128091BC028111BEC08091B702AE
:101EF000811118C08BA19CA1892B09F4B5C06AE798
:101F000071E08F8D98A10E94D420892B09F0ACC07C
:101F100060E971E08DEA94E00E94411381E08093D2
:101F2000B702A2C08091B802811171C048E050E0B0
:101F3000BE01615E7F4FCE0101960E949109BE01F4
:101F40006F5F7F4FCE014F960E94690BCE010196C5
:101F50000E94A30B66E671E0CE0101960E94A80BD9
:101F60000BA11CA101151105B9F00630110510F0E7
:101F700006E010E0EF8DF8A1E00FF11FF080108275
:101F80006F8D78A1CE0101960E94480B8F8D98A18C
:101F9000FC01E00FF11FF082BE016F5F7F4F87E70A
:101FA00094E00E94690BCE0101960E94A30B46E0CB
:101FB00050E0BE01615E7F4FCE0101960E94910903
:101FC000BE016F5F7F4F81E794E00E94690BCE01F5
:101FD00001960E94A30B69E971E08FE894E00E94EA
:101FE000480BBE016F5F7F4F8FE894E00E9470093D
:101FF000BE016F5F7F4F8DEA94E00E944113CE01D6
:1020000001960E94CE0781E08093B8022DC0809196
:10201000B902811129C069EA71E089E894E00E945F
:10202000480B61EB71E089E894E00E94320B67E7AE
:1020300074E089E894E00E94410BBE016F5F7F4F1E
:1020400089E894E00E947009BE016F5F7F4F8DEABE
:1020500094E00E944113CE0101960E94CE0781E0D8
:102060008093B9028093BC02CE014F960E94A30BCD
:10207000A4960FB6F894DEBF0FBECDBFDF91CF910F
:102080001F910F91FF900895FC01918D228D892F52
:1020900090E0805C9F4F821B91098F739927089570
:1020A00080E090E0892B29F00E94B90A81110C94FC
:1020B00000000895209154043091550428173907E1
:1020C00071F49091CC018091CD01981741F0E0918D
:1020D000CC01F0E0EE51FD4F808190E008958FEF4C
:1020E0009FEF089508951F93CF93DF93DC015C96D3
:1020F0008D919C915D97009739F421E030E0139623
:102100003C932E9312973BC05196ED91FC915297C0
:1021100050962C915097322F30951FB75E964C9168
:102120005E97742F727041FD6095F894408177231B
:1021300011F0422B01C043234083EC012197F1F7BA
:1021400048E0508160FF02C0522B01C053235083EE
:10215000EC012197F1F76695415099F7808177233B
:1021600019F08323808302C0282B20831FBF5C9635
:102170008D919C915D970197F1F781E090E0DF915F
:10218000CF911F9108952091540430915504281740
:10219000390771F48091CD012091CC0190E0805CF1
:1021A0009F4F821B910960E470E00E94AA1E08956F
:1021B00080E090E008952091540430915504281750
:1021C0003907B9F49091CC018091CD01981789F02D
:1021D000E091CC01F0E0EE51FD4F80812091CC01E7
:1021E00030E02F5F3F4F2F7333272093CC0190E0D7
:1021F00008958FEF9FEF089580E090E0089580911B
:10220000D9029091DA028B30910524F09093C902A3
:102210008093C8021092DA021092D9021092D8026A
:102220001092030410920E0410920F0410921004E6
:102230001092110410921304109212041092CA0208
:1022400008958F929F92AF92BF92CF92DF92EF92BA
:10225000FF920F931F93CF93DF938091E10281113F
:102260002BC082E10E94200DBC01990F880B990BB5
:102270000E94911B2091CB023091CC024091CD0263
:102280005091CE020E94351D20E030E048E952E432
:102290000E94A21D9B01AC010E94F01B0E94551ED2
:1022A00020E030E040E050E40E944A1E18160CF096
:1022B000D9C081E08093E10205E010E0C0E0D0E009
:1022C00080E10E94200DBC01990F880B990B0E94A0
:1022D000911B2091D3023091D4024091D5025091AC
:1022E000D6020E94351D9B01AC010E94F01B6B01C0
:1022F0007C01BE01DD0F880B990B0E94911B9B0195
:10230000AC01C701B6010E94361D0E94141EEB01EC
:1023100001501109A9F6CB0165E070E00E94AA1EE8
:102320008B0135E0E32EF12CC0E0D0E081E10E948A
:10233000200DBC01990F880B990B0E94911B2091D5
:10234000CF023091D0024091D1025091D2020E942E
:10235000351D9B01AC010E94F01B4B015C01BE01CD
:10236000DD0F880B990B0E94911B9B01AC01C501ED
:10237000B4010E94361D0E94141EEB0181E0E81A90
:10238000F108A1F6CE0165E070E00E94AA1E600F80
:10239000711F072E000C880B990B0E94911B0E9445
:1023A000551E6B017C0120E030E0A9010E944A1E0D
:1023B00020E030E040E05FE387FD05C0C701B601E3
:1023C0000E94361D04C0C701B6010E94351D0E943F
:1023D000141E8091DF029091E002FC01EE0FFF1FBE
:1023E000E85EFE4F718360830196853091052CF481
:1023F0009093E0028093DF0235C01092E0021092C9
:10240000DF022091DD023091DE02E8E1F1E081910E
:10241000919140815181841B950B4E96CD9770F41C
:1024200020E030E081E0EE31F80789F781E0809329
:10243000DC021092DE021092DD0206C03093DE0252
:102440002093DD021092DC028091DC02882341F0AF
:1024500081E08093D7021092E1021092DC0202C068
:102460001092E102DF91CF911F910F91FF90EF90B9
:10247000DF90CF90BF90AF909F908F90089589E0AC
:102480000E948C0C019719F41092C702089581E004
:102490008093C7020895FC01848DDF01A80FB11D50
:1024A000A35ABF4F2C91848D90E001968F7399278A
:1024B000848FA689B7892C93A089B1898C91837068
:1024C00080648C93938D848D981306C00288F38961
:1024D000E02D80818F7D808308951F920F920FB62B
:1024E0000F9211242F933F934F935F936F937F939A
:1024F0008F939F93AF93BF93EF93FF93E091540417
:10250000F0915504309709F451C0968DA685B78592
:10251000858591FF04C09C91892329F447C09C9133
:10252000892309F043C0A389B4899C91858980954A
:1025300089238C93868997890197F1F7608D718D36
:10254000A685B785558538E020E0CB010197F1F7E6
:10255000822F90E095958795282F4C91452309F07F
:102560002068315091F7868D81FD20958091CD01B5
:1025700090E001968F7399273091CC01381749F07C
:10258000A091CD01B0E0AE51BD4F2C938093CD0111
:1025900003C0868D8160868F828D938D0197F1F7C0
:1025A000A389B4899C918589892B8C93FF91EF91A4
:1025B000BF91AF919F918F917F916F915F914F915B
:1025C0003F912F910F900FBE0F901F90189560E0D4
:1025D0008FE00E94B50CE7EBF2E0108211821282CC
:1025E00013821482E6E5F4E01082138614861586C1
:1025F0001686108A17860895CF92DF92EF92FF9287
:102600000F931F938091B7028823A1F18091BC02A0
:10261000811107C096EBC92E93E0D92EE12CF12C45
:1026200006C082ECC82EDD24D394E12CF12C0E944C
:102630009C0D2EE0C20E21E0D21EE11CF11C009187
:10264000CF011091D0012091D1013091D201DC0154
:10265000CB01801B910BA20BB30B8C159D05AE0516
:10266000BF0540F01F910F91FF90EF90DF90CF904A
:102670000C94E7121F910F91FF90EF90DF90CF9095
:1026800008956115710579F0FB0101900020E9F7CB
:102690003197AF01461B570BDC01ED91FC91028095
:1026A000F381E02D099480E090E008950F931F934B
:1026B000CF93DF93FC012081222309F458C0EC0161
:1026C000818592850197C1F40E949C0D0B891C891C
:1026D0002D893E89DC01CB01801B910BA20BB30B32
:1026E00009811A812B813C8180179107A207B307CA
:1026F000F0F10E949C0D17C00E943D0D0B891C89B2
:102700002D893E89DC01CB01801B910BA20BB30B01
:1027100009811A812B813C8180179107A207B30799
:1027200030F10E943D0D6B8B7C8B8D8B9E8B8B854E
:102730009C85AD85BE854D815E816F817885481B06
:10274000590B6A0B7B0B413051056105710509F48A
:1027500018820196A11DB11D8B879C87AD87BE870E
:10276000E989FA89DF91CF911F910F910994DF9147
:10277000CF911F910F910895CF93DF93FC01218991
:102780003289232BC1F0EC0181859285019719F4E0
:102790000E949C0D02C00E943D0D6B8B7C8B8D8B2B
:1027A0009E8B81E088831B861C861D861E8681E0A9
:1027B00090E0988B8F87DF91CF9108958091CA0226
:1027C000882319F180E00E94200D893E9340DCF0BF
:1027D0008091DB0281110CC081E08093DB0280914B
:1027E000D9029091DA0201969093DA028093D9028D
:1027F0008091D802811109C081E08093D80283E0E2
:1028000094E00C94BC131092DB020895DC0180E08C
:10281000615098F02D91982F9227E92FEF70F0E0FA
:10282000EE53FF4F249192959F70E92FF0E0EE5206
:10283000FF4FE491822F8E27EBCF0895DF92EF9226
:10284000FF920F931F93CF93DF93EC01D62EE42ECC
:1028500008E010E0FF24F39461E08D2D8F2109F44E
:1028600060E0CE010E946306FF0C01501109A1F740
:10287000E11010C0F894E981FA81918188818095F6
:1028800089238183E981FA819281888180958923D6
:1028900082837894DF91CF911F910F91FF90EF90F9
:1028A000DF900895EF92FF920F931F93CF93DF93E2
:1028B0008C017B0140E065E50E941E14E70188E081
:1028C000E80EF11C699140E0C8010E941E14CE156B
:1028D000DF05C1F7DF91CF911F910F91FF90EF902E
:1028E0000895FC0190810180F281E02DF8948181AE
:1028F000892B81832281892F809528232283A7E039
:10290000B0E01197F1F7218182238183A3E2B0E047
:102910001197F1F780817894EFECF0E03197F1F7BF
:10292000982381E009F480E008951092D601109276
:10293000D50188EE93E0A0E0B0E08093D7019093BA
:10294000D801A093D901B093DA0122E331E03093AA
:10295000D4012093D30125EC30E03093E0012093A3
:10296000DF0124EC30E03093E2012093E10120EC20
:1029700030E03093E4012093E30121EC30E0309328
:10298000E6012093E50122EC30E03093E80120934A
:10299000E70126EC30E03093EA012093E901109240
:1029A000EC011092ED011092EE011092EF011092E5
:1029B000B0041092AF048093B1049093B204A0933A
:1029C000B304B093B40484E491E09093AE04809394
:1029D000AD041092C4041092C3041092C604109265
:1029E000C5041092C8041092C7041092CA04109231
:1029F000C9046091CB046E7F6D7F6093CB046695B4
:102A0000617081E0682783E00E94B50C61E083E09B
:102A10000E94E40CE3E9F0E0E491E093BD04EFE709
:102A2000F0E0E491F0E0EE0FFF1FE859FF4F8591D1
:102A300094919093BF048093BE0460E084E00E9470
:102A4000E40C8091CB0481FD04C061E084E00E942D
:102A5000B50C84E08093B904E4E9F0E0E491E093FC
:102A6000BA04E0E8F0E0E491F0E0EE0FFF1FEE586A
:102A7000FF4F859194919093BC048093BB0460EACE
:102A800071E085E994E00E94A80B66E671E08BE9AD
:102A900094E00E94A80B66E671E081EA94E00E944F
:102AA000A80B66E671E087EA94E00E94A80B66E650
:102AB00071E08FE894E00E94A80B66E671E089E877
:102AC00094E00E94A80B66E671E083E894E00E941F
:102AD000A80B66E671E08DE794E00E94A80B66E61D
:102AE00071E087E794E00E94A80B66E671E081E759
:102AF00094E00E94A80B1092600410925F0480E59D
:102B000093ECA0E0B0E08093570490935804A09316
:102B10005904B0935A0410925B0410925C04109212
:102B20005D0410925E048CEF92E1909368048093B0
:102B30006704109256041092690410926A0410926D
:102B40006B0410926C041092610410926204109253
:102B5000630410926404109243041092420480EFC4
:102B600099E4A2E0B0E080933A0490933B04A093F0
:102B70003C04B0933D0410923E0410923F04109226
:102B800040041092410481E291E190934B048093C0
:102B90004A041092390410924C0410924D04109281
:102BA0004E0410924F041092440410924504109267
:102BB00046041092470410920D0410920C0480EC0D
:102BC00091EEA4EEB0E08093040490930504A093EA
:102BD0000604B0930704109208041092090410929E
:102BE0000A0410920B048FEF90E1909315048093E8
:102BF00014041092030410921604109217041092F9
:102C000018041092190410920E0410920F041092DE
:102C1000100410921104109228041092270480E2EC
:102C20009EE4A0E0B0E080931F0490932004A09362
:102C30002104B093220410922304109224041092D1
:102C40002504109226048EED93E190933004809336
:102C50002F0410921E04109231041092320410922C
:102C60003304109234041092290410922A04109212
:102C70002B0410922C041092F2031092F10380EABC
:102C800096E8A1E0B0E08093E9039093EA03A09373
:102C9000EB03B093EC031092ED031092EE0310924D
:102CA000EF031092F0038FE392E19093FA03809385
:102CB000F9031092E8031092FB031092FC031092A8
:102CC000FD031092FE031092F3031092F40310928E
:102CD000F5031092F60360E086E00E94E40CE6E95A
:102CE000F0E0E491E0938402E2E8F0E0E491F0E0C7
:102CF000EE0FFF1FEE58FF4F85919491909386023F
:102D00008093850210928F0210929102109290028D
:102D1000EFE8F2E0129282E0E738F807D9F784E8AA
:102D200092E0909377028093760210927402109250
:102D300075021092700289E08093710281E08093A5
:102D40007202809373021092830210928202109298
:102D5000D7031092D60380EC96ECADE2B0E08093FE
:102D6000CE039093CF03A093D003B093D1031092DE
:102D7000D2031092D3031092D4031092D50389EC9E
:102D800096E09093DF038093DE031092CD031092C0
:102D9000E0031092E1031092E2031092E303109219
:102DA000D8031092D9031092DA031092DB03109229
:102DB000C5031092C7031092C6031092CA038EE097
:102DC00090E09093C9038093C80387E090E09093CC
:102DD000CC038093CB0361E00E94E40C21E030E05F
:102DE0003093B3032093B2038AE090E0A0E0B0E018
:102DF0008093AA039093AB03A093AC03B093AD036D
:102E000044E050E060E070E04093AE035093AF03C5
:102E10006093B0037093B103E2E9F5E0F093BB0374
:102E2000E093BA031092A9031092BC031092BD0361
:102E30001092BE031092BF031092B4031092B50318
:102E40001092B6031092B703309398032093970320
:102E500080938F0390939003A0939103B093920378
:102E60004093930350939403609395037093960358
:102E7000E4ECF4E0F093A003E0939F0310928E0340
:102E80001092A1031092A2031092A3031092A40324
:102E90001092990310929A0310929B0310929C0334
:102EA00030937D0320937C03809374039093750388
:102EB000A0937603B09377034093780350937903FC
:102EC00060937A0370937B03E0EFF3E0F093850364
:102ED000E093840310927303109286031092870389
:102EE000109288031092890310927E0310927F0340
:102EF0001092800310928103309362032093610348
:102F00008093590390935A03A0935B03B0935C039F
:102F100040935D0350935E0360935F03709360037F
:102F200043E952E050936A034093690310925803B7
:102F300010926B0310926C0310926D0310926E034B
:102F4000109263031092640310926503109266035B
:102F5000309347032093460380933E0390933F03AF
:102F6000A0934003B09341038093420390934303A3
:102F7000A0934403B09345034FE950E050934F03AF
:102F800040934E0310923D03109250031092510350
:102F90001092520310925303109248031092490367
:102FA00010924A0310924B0330932C0320932B036F
:102FB0008093230390932403A0932503B0932603C7
:102FC00081E090E0A0E0B0E0809327039093280395
:102FD000A0932903B0932A038DE990E090933403E2
:102FE000809333031092220310923503109236031C
:102FF000109237031092380310922D0310922E0373
:1030000010922F03109230030895CF93DF93CDB722
:10301000DEB728970FB6F894DEBF0FBECDBF789409
:1030200084B5826084BD84B5816084BD85B58260CD
:1030300085BD85B5816085BD80916E00816080937E
:103040006E001092810080918100826080938100E7
:1030500080918100816080938100809180008160F7
:10306000809380008091B10084608093B100809152
:10307000B00081608093B00080917A00846080937A
:103080007A0080917A00826080937A0080917A0041
:10309000816080937A0080917A00806880937A00C2
:1030A0001092C100E091E301F091E40182E080839D
:1030B000E091DF01F091E0011082E091E101F091F7
:1030C000E2018FEC80831092EB01E091E701F09137
:1030D000E80186E08083E091E501F091E6018081DE
:1030E00080618083E091E501F091E6018081886054
:1030F0008083E091E501F091E60180818068808322
:10310000E091E501F091E60180818F7D808383E08D
:10311000809313016AE070E080E090E00E94620D0D
:1031200061E08FE00E94E40C1092C8041092C70482
:103130001092C6041092C5041092C4041092C304E5
:103140008DE991E09093CA048093C9049091B904E9
:10315000963108F058C02DEB30E03093C404209332
:10316000C3042BE931E03093C6042093C5042CE25C
:1031700031E03093C8042093C70440916800983030
:1031800058F031E09E3008F430E021E0822F01C099
:10319000880F3A95EAF701C084E0842B8093680099
:1031A000983038F09E3040F0963148F020E030E022
:1031B00008C02DE630E005C02BE630E002C02CE66A
:1031C00030E03093C1042093C004983030F481E0A3
:1031D00001C0880F9A95EAF70EC0292F30E09E3083
:1031E00018F42850310902C02E50310981E001C085
:1031F000880F2A95EAF78093C2048091C9049091C0
:10320000CA040197F1F70E9411096AE070E080E0BA
:1032100090E00E94620D61E088E00E94E40C60E0B2
:1032200089E00E94E40C61E085E00E94E40CE091FA
:103230007602F0917702138615861486DF011B96BD
:1032400033961E92EA17FB07E1F710927402109270
:10325000750201E0BE016F5F7F4F80917602909111
:1032600077020E948F08882309F465C067E0CE01C9
:1032700001960E94061498858913ECCF8091700204
:10328000811127C080917602909177020E94920668
:10329000BE016F5F7F4F80917602909177020E940E
:1032A000521440E064EB80917602909177020E9484
:1032B0001E1480917602909177020E947114182F4B
:1032C00080917602909177020E949206112309F470
:1032D00074C1109171028981803109F4A3C1CE01BA
:1032E00001960E944B08811718F48091710209C061
:1032F0008981803111F48CE004C0CE0101960E94D6
:103300004B0880937102809174028F5F80937402E6
:103310008981883209F454C138F4803109F450C1EC
:10332000823209F097CF4CC18B3309F449C1823402
:1033300009F090CF45C161E08AE00E94E40C0E9450
:10334000E10780E596E090930F0180930E01809154
:1033500069008C7F816080936900E89A8AE691E039
:103360000E94CE0711E00E94F20D88EE93E00E94C9
:1033700056138DEC93E00E94561383E094E00E9474
:1033800056138EE194E00E94561389E394E00E9464
:1033900056130E94F20D809194028111EDC00E949B
:1033A0009C0D613D77408105910518F10E949C0DAF
:1033B000C090AB02D090AC02E090AD02F090AE02B3
:1033C00028EEC20E23E0D21EE11CF11CC616D70661
:1033D000E806F90670F40E949C0D6093AB027093AE
:1033E000AC028093AD029093AE0282E293E00E9421
:1033F000BC130E949C0DC090A702D090A802E09040
:10340000A902F090AA0228E8C20E23E1D21EE11C14
:10341000F11CC616D706E806F90670F40E949C0D4A
:103420006093A7027093A8028093A9029093AA02C6
:1034300089EA93E00E94BC1380919302882309F4E7
:103440006DC00E949C0DC090A302D090A402E09099
:10345000A502F090A60220E4C20E2FE1D21EE11CCC
:10346000F11CC616D706E806F90670F40E949C0DFA
:103470006093A3027093A4028093A5029093A60286
:103480008EE893E00E94BC130E949C0DC0909F02A6
:10349000D090A002E090A102F090A20220E3C20E20
:1034A00025E7D21EE11CF11CC616D706E806F90670
:1034B00070F40E949C0D60939F027093A002809311
:1034C000A1029093A20283E793E00E94BC13809133
:1034D000920281117BC00E949C0DC0909B02D090F3
:1034E0009C02E0909D02F0909E0224EFC20E21E02B
:1034F000D21EE11CF11CC616D706E806F90670F4C8
:103500000E949C0D60939B0270939C0280939D028D
:1035100090939E0288E593E00E94BC130E949C0D4C
:10352000653F71408105910520F080911201811164
:1035300072C00E949C0DC0909702D0909802E090BB
:103540009902F0909A0220E1C20E27E2D21EE11CFD
:10355000F11CC616D706E806F90670F48DE393E071
:103560000E94BC130E949C0D609397027093980276
:103570008093990290939A028DE393E00E945613F0
:1035800089EA93E00E9456138EE893E00E94561356
:1035900083E793E00E94561388E593E00E94561358
:1035A00082E293E00E94561361E070E080E090E0D8
:1035B0000E94620D0E945010D6CE0093700289CEF8
:1035C000809175028F5F8093750244CE1093B30291
:1035D0000E949C0DC0909B02D0909C02E0909D02A6
:1035E000F0909E0228E8C20E23E1D21EE11CF11CDD
:1035F000C616D706E806F90608F090CF0E949C0D83
:1036000060939B0270939C0280939D0290939E0214
:103610001092920283CF8DE393E00E94BC1310922C
:10362000120187CF1D3008F060CE65CE81E794E0AF
:103630000E94A30B87E794E00E94A30B8DE794E020
:103640000E94A30B83E894E00E94A30B89E894E016
:103650000E94A30B8FE894E00E94A30B87EA94E0FA
:103660000E94A30B81EA94E00E94A30B8BE994E0F3
:103670000E94A30B85E994E00E94A30B84E491E0EF
:103680009093AE048093AD048091540490915504BE
:103690008D5A944071F4E091C004F091C10490817E
:1036A0008091C204809589238083109255041092E2
:1036B00054040895BB274A3031F4992322F4BDE223
:1036C000909581959F4F0C94661BBB27FB01552756
:1036D000AA27880F991FAA1FA41710F0A41B83956F
:1036E0005051B9F7A05DAA3308F0A95DA1930097E6
:1036F00079F7B111B1931192CB010C947F1BDC01CE
:10370000FC01672F71917723E1F7329704C07C9118
:103710006D9370836291AE17BF07C8F30895E89464
:1037200009C097FB3EF490958095709561957F4F09
:103730008F4F9F4F9923A9F0F92F96E9BB279395B7
:10374000F695879577956795B795F111F8CFFAF4C7
:10375000BB0F11F460FF1BC06F5F7F4F8F4F9F4FF8
:1037600016C0882311F096E911C0772321F09EE856
:10377000872F762F05C0662371F096E8862F70E0BC
:1037800060E02AF09A95660F771F881FDAF7880F96
:103790009695879597F90895990F0008550FAA0BEC
:1037A000E0E8FEEF16161706E807F907C0F0121654
:1037B0001306E407F50798F0621B730B840B950B57
:1037C00039F40A2661F0232B242B252B21F40895AC
:1037D0000A2609F4A140A6958FEF811D811D089549
:1037E0000E94031C0C94741C0E94661C38F00E94FA
:1037F0006D1C20F0952311F00C945D1C0C94631C3F
:1038000011240C94A81C0E94851C70F3959FC1F391
:10381000950F50E0551F629FF001729FBB27F00D7E
:10382000B11D639FAA27F00DB11DAA1F649F6627D3
:10383000B00DA11D661F829F2227B00DA11D621F22
:10384000739FB00DA11D621F839FA00D611D221FDC
:10385000749F3327A00D611D231F849F600D211DC0
:10386000822F762F6A2F11249F5750409AF0F1F043
:1038700088234AF0EE0FFF1FBB1F661F771F881FAC
:1038800091505040A9F79E3F510580F00C945D1C6B
:103890000C94A81C5F3FE4F3983ED4F3869577958B
:1038A0006795B795F795E7959F5FC1F7FE2B880F52
:1038B000911D9695879597F9089597F99F6780E8E8
:1038C00070E060E008959FEF80EC089500240A9472
:1038D0001616170618060906089500240A941216EB
:1038E0001306140605060895092E0394000C11F41E
:1038F000882352F0BB0F40F4BF2B11F460FF04C0CB
:103900006F5F7F4F8F4F9F4F089557FD9058440F23
:10391000551F59F05F3F71F04795880F97FB991F2E
:1039200061F09F3F79F087950895121613061406EB
:10393000551FF2CF4695F1DF08C016161706180678
:10394000991FF1CF86957105610508940895E89453
:10395000BB2766277727CB0197F90895052E97FB9C
:103960001EF400940E94C51C57FD07D00E94041D40
:1039700007FC03D04EF40C94C51C5095409530952F
:1039800021953F4F4F4F5F4F0895909580957095CB
:1039900061957F4F8F4F9F4F08952F923F924F9287
:1039A0005F926F927F928F929F92AF92BF92CF92CF
:1039B000DF92EF92FF920F931F93CF93DF93CDB7D8
:1039C000DEB7CA1BDB0B0FB6F894DEBF0FBECDBF50
:1039D00009942A88398848885F846E847D848C8421
:1039E0009B84AA84B984C884DF80EE80FD800C812A
:1039F0001B81AA81B981CE0FD11D0FB6F894DEBF0D
:103A00000FBECDBFED010895A1E21A2EAA1BBB1B6C
:103A1000FD010DC0AA1FBB1FEE1FFF1FA217B3079A
:103A2000E407F50720F0A21BB30BE40BF50B661FB0
:103A3000771F881F991F1A9469F760957095809574
:103A400090959B01AC01BD01CF010895A29FB001EB
:103A5000B39FC001A39F700D811D1124911DB29FC2
:103A6000700D811D1124911D08955058BB27AA2760
:103A70000E944D1D0C94741C0E94661C38F00E941C
:103A80006D1C20F039F49F3F19F426F40C94631C4C
:103A90000EF4E095E7FB0C945D1CE92F0E94851C59
:103AA00058F3BA17620773078407950720F079F473
:103AB000A6F50C94A71C0EF4E0950B2EBA2FA02DA2
:103AC0000B01B90190010C01CA01A0011124FF27CB
:103AD000591B99F0593F50F4503E68F11A16F040C6
:103AE000A22F232F342F4427585FF3CF46953795C5
:103AF0002795A795F0405395C9F77EF41F16BA0B8A
:103B0000620B730B840BBAF09150A1F0FF0FBB1F37
:103B1000661F771F881FC2F70EC0BA0F621F731F80
:103B2000841F48F4879577956795B795F7959E3FDD
:103B300008F0B0CF9395880F08F09927EE0F97956E
:103B4000879508950E94B61D0C94741C0E946D1CEC
:103B500058F00E94661C40F029F45F3F29F00C9455
:103B60005D1C51110C94A81C0C94631C0E94851CB4
:103B700068F39923B1F3552391F3951B550BBB279C
:103B8000AA2762177307840738F09F5F5F4F220FE1
:103B9000331F441FAA1FA9F335D00E2E3AF0E0E8D8
:103BA00032D091505040E695001CCAF72BD0FE2F22
:103BB00029D0660F771F881FBB1F261737074807B6
:103BC000AB07B0E809F0BB0B802DBF01FF2793586E
:103BD0005F4F3AF09E3F510578F00C945D1C0C94B9
:103BE000A81C5F3FE4F3983ED4F3869577956795DC
:103BF000B795F7959F5FC9F7880F911D96958795A3
:103C000097F90895E1E0660F771F881FBB1F6217C1
:103C100073078407BA0720F0621B730B840BBA0B7F
:103C2000EE1F88F7E09508950E941B1E6894B1115D
:103C30000C94A81C08950E948D1C88F09F5798F042
:103C4000B92F9927B751B0F0E1F0660F771F881FA1
:103C5000991F1AF0BA95C9F714C0B13091F00E94BB
:103C6000A71CB1E008950C94A71C672F782F882714
:103C7000B85F39F0B93FCCF3869577956795B395E2
:103C8000D9F73EF490958095709561957F4F8F4F51
:103C90009F4F08950E94CC1B08F48FEF089519F4EC
:103CA00016F40C94631C0C94951E0E948D1CB8F3A2
:103CB0009923C9F3B6F39F57550B87FF0E94A31EA4
:103CC0000024A0E640EA900180585695979528F484
:103CD000805C660F771F881F20F02617370748077C
:103CE00030F4621B730B840B202931294A2BA695D3
:103CF00017940794202531254A2758F7660F771F18
:103D0000881F20F026173707480730F4620B730B23
:103D1000840B200D311D411DA09581F7B901842F21
:103D20009158880F9695879508959F3F31F091504F
:103D300020F4879577956795B795880F911D96958F
:103D4000879597F9089591505040660F771F881F07
:103D5000D2F7089597FB072E16F4009407D077FD4D
:103D600009D00E94C51E07FC05D03EF490958195B0
:103D70009F4F0895709561957F4F08950E94261D6D
:103D8000B7FF0895821B930B0895AA1BBB1B51E13B
:103D900007C0AA1FBB1FA617B70710F0A61BB70BBB
:103DA000881F991F5A95A9F780959095BC01CD0160
:103DB0000895EE0FFF1F0590F491E02D09940F93E5
:103DC0001F93CF93DF938230910510F482E090E04F
:103DD000E091CE04F091CF0420E030E0A0E0B0E02C
:103DE000309719F140815181028113814817590799
:103DF000C8F08417950769F4109731F012960C9368
:103E0000129713961C9327C00093CE041093CF04EF
:103E100022C02115310519F04217530718F49A01F1
:103E2000BD01EF01DF01F801DBCF21153105F9F00C
:103E3000281B390B2430310580F48A819B81611560
:103E4000710521F0FB019383828304C09093CF041A
:103E50008093CE04FE01329644C0FE01E20FF31FB0
:103E60008193919322503109398328833AC020915C
:103E7000CC043091CD04232B41F4209124013091C6
:103E800025013093CD042093CC0420912201309160
:103E900023012115310541F42DB73EB7409126018C
:103EA00050912701241B350BE091CC04F091CD04F7
:103EB000E217F307A0F42E1B3F0B2817390778F001
:103EC000AC014E5F5F4F2417350748F04E0F5F1F60
:103ED0005093CD044093CC048193919302C0E0E0D1
:103EE000F0E0CF01DF91CF911F910F910895CF9313
:103EF000DF93009709F481C0FC013297138212828C
:103F0000A091CE04B091CF04109781F4208131812B
:103F1000820F931F2091CC043091CD0428173907CC
:103F200051F5F093CD04E093CC0467C0ED0120E09F
:103F300030E0CE17DF0740F44A815B819E014115D6
:103F40005105F1F0EA01F5CFD383C283408151815D
:103F5000840F951FC817D90759F488819981840F58
:103F6000951F0296918380838A819B8193838283AC
:103F70002115310529F4F093CF04E093CE043DC020
:103F8000E901FB83EA8349915991C40FD51FEC17CE
:103F9000FD0761F480819181840F951F0296E901EC
:103FA00099838883828193819B838A83E0E0F0E018
:103FB00012968D919C911397009719F0FD01DC01E9
:103FC000F7CF8D919C9111979D012E5F3F4F820FEE
:103FD000931F2091CC043091CD042817390769F440
:103FE000309729F41092CF041092CE0402C01382AD
:103FF0001282B093CD04A093CC04DF91CF910895A9
:10400000A0E0B0E0E6E0F0E20C94D11CEC010097F7
:1040100021F4CB010E94DF1EB4C0FC01E60FF71FA4
:104020009C0122503109E217F30708F4A8C0D90116
:104030000D911C91119706171707B0F00530110567
:1040400008F49BC0C80104978617970708F495C029
:1040500002501109061B170B019311936D937C936A
:10406000CF010E94771F89C05B01A01AB10A4C01E1
:10407000800E911EA091CE04B091CF04612C712CC2
:10408000E12CF12C109709F446C08D919C91119769
:10409000A815B905B1F56C0142E0C40ED11CCA14D3
:1040A000DB0478F14C018A189B08640142E0C40EDD
:1040B000D11C1296BC9012971396AC91B5E0CB161A
:1040C000D10440F0B282A38391828082D9016D93A2
:1040D0007C9309C00E5F1F4F800F911FF9019183E0
:1040E0008083EB2DFA2FE114F10431F0D701139600
:1040F000FC93EE93129741C0F093CF04E093CE046B
:104100003CC06816790608F43C017D0112960D90BA
:10411000BC91A02DB7CF8091CC049091CD0488168E
:104120009906E1F466167706C8F480912201909111
:104130002301009741F48DB79EB74091260150911D
:104140002701841B950BE817F907C8F4F093CD04F9
:10415000E093CC04F901718360830FC0CB010E940E
:10416000DF1E7C01009759F0A801BE010E94CB2000
:10417000CE010E94771FC70104C0CE0102C080E0BB
:1041800090E0CDB7DEB7EEE00C94ED1C81E090E05E
:10419000F8940C94F320FB01DC0102C001900D9215
:1041A00041505040D8F70895FB01DC018D910190FA
:1041B00080190110D9F3990B0895FB01DC010190DE
:1041C0000D920020E1F70895FB01DC0141505040C1
:1041D00048F001900D920020C9F701C01D92415096
:1041E0005040E0F7089510E0C2E7D0E004C0FE01BF
:1041F0000E94D91E2196C337D107C9F7F894FFCF83
:104200000101010101000000000000000000DB09C5
:10421000DB0901010000803F0100020003000400EF
:1042200005000000D00480005E00BC0077010000A3
:104230000000C30ADC09060A100B4410150A290AFB
:10424000000000007310DC09FC107210C310DB10BA
:104250005A104E6F206861792070726F78696D69AD
:10426000646164000D0A0041540073657475702028
:104270007465726D696E61646F004F4B0041542B21
:10428000494245320041542B494245330030300009
:1042900041542B414444523F0041542B4942453044
:1042A00030303030373036370041542B49424531B9
:0442B000003836009C
:00000001FF
