:100000000C9473000C94E20B0C94BB0B0C946B12CD
:100010000C946B120C946B120C949B000C949B0030
:100020000C949B000C949B000C949B000C949B00E4
:100030000C949B000C949B000C949B000C949B00D4
:100040000C94A60D0C949B000C942F0C0C94090C92
:100050000C949B000C949B000C949B000C949B00B4
:100060000C949B000C949B000000000025002800CD
:100070002B000000000023002600290004040404D3
:100080000404040402020202020203030303030342
:10009000010204081020408001020408102001021F
:1000A0000408102000000000240027002A0000009F
:1000B0000008000201000003040700000000000027
:1000C0000000005EBCE2613FDD83C29C7E20A3FD98
:1000D0001F41009D23BE46DB65F88C11AF32CA5725
:1000E000E9749314141B11241FBECFEFD8E0DEBFB8
:1000F000CDBF11E0A0E0B1E0ECEFF1E402C005906B
:100100000D92A43EB107D9F725E0A4EEB1E001C0FD
:100110001D92A030B207E1F710E0C2E7D0E004C0C2
:100120002197FE010E94D71EC137D107C9F70E944F
:1001300003180C94F1200C9400000C94DF078091BC
:100140000D01882309F44AC083E10E941E0D20910D
:10015000F6013091F7012817390724F49093F7013D
:100160008093F601A091F601B091F7012AE230E008
:100170000E94BC1E2FEF33E040E050E00E94AC1C18
:10018000CA01B9010E948F1B20E030E040E251E437
:100190000E94A01D609314017093150180931601B5
:1001A0009093170110920D0181E0809304018091DA
:1001B000760390917703892B29F480E197E2A0E000
:1001C000B0E004C08AE090E0A0E0B0E080936E036D
:1001D00090936F03A0937003B093710380910C010F
:1001E000882351F183E10E941E0D2091F601309188
:1001F000F7012817390724F49093F7018093F6014B
:1002000081E080930D0110920C0180917603909112
:100210007703892B29F480E492E4AFE0B0E004C0D6
:1002200088EE93E0A0E0B0E080936E0390936F03BC
:10023000A0937003B093710380910B01882351F157
:1002400083E10E941E0D2091F6013091F7012817DD
:10025000390724F49093F7018093F60181E08093AD
:100260000C0110920B018091760390917703892BFA
:1002700029F480E492E4AFE0B0E004C088EE93E0BB
:10028000A0E0B0E080936E0390936F03A09370039F
:10029000B093710380910A01882351F183E10E9498
:1002A0001E0D2091F6013091F7012817390724F42B
:1002B0009093F7018093F60181E080930B011092F7
:1002C0000A018091760390917703892B29F480E4C9
:1002D00092E4AFE0B0E004C088EE93E0A0E0B0E0CC
:1002E00080936E0390936F03A0937003B093710398
:1002F00080910901882351F183E10E941E0D209114
:10030000F6013091F7012817390724F49093F7018B
:100310008093F60181E080930A0110920901809197
:10032000760390917703892B29F480E492E4AFE07F
:10033000B0E004C088EE93E0A0E0B0E080936E03EC
:1003400090936F03A0937003B093710380910801A1
:10035000882351F183E10E941E0D2091F601309116
:10036000F7012817390724F49093F7018093F601D9
:1003700081E08093090110920801809176039091A9
:100380007703892B29F480E492E4AFE0B0E004C065
:1003900088EE93E0A0E0B0E080936E0390936F034B
:1003A000A0937003B093710380910701882351F1EA
:1003B00083E10E941E0D2091F6013091F70128176C
:1003C000390724F49093F7018093F60181E080933C
:1003D0000801109207018091760390917703892B91
:1003E00029F480E492E4AFE0B0E004C088EE93E04A
:1003F000A0E0B0E080936E0390936F03A09370032E
:10040000B093710380910601882351F183E10E942A
:100410001E0D2091F6013091F7012817390724F4B9
:100420009093F7018093F60181E080930701109289
:1004300006018091760390917703892B29F480E45B
:1004400092E4AFE0B0E004C088EE93E0A0E0B0E05A
:1004500080936E0390936F03A0937003B093710326
:1004600080910501882351F183E10E941E0D2091A6
:10047000F6013091F7012817390724F49093F7011A
:100480008093F60181E0809306011092050180912E
:10049000760390917703892B29F480E492E4AFE00E
:1004A000B0E004C088EE93E0A0E0B0E080936E037B
:1004B00090936F03A0937003B09371038091040134
:1004C000882381F18091780390917903A0917A0338
:1004D000B0917B030197A105B10521F583E10E944D
:1004E0001E0D9093F7018093F60181E08093050142
:1004F000109204018091760390917703892B69F41F
:1005000080E492E4AFE0B0E080936E0390936F03D9
:10051000A0937003B0937103089588EE93E0A0E078
:10052000B0E0F2CF0895CF92DF92EF92FF92CF9397
:10053000DF938091F501882311F18091C2028093AD
:10054000E3021092F50181E080930301109207030A
:100550008091910390919203892B29F480E197E295
:10056000A0E0B0E004C08AE090E0A0E0B0E08093BA
:10057000890390938A03A0938B03B0938C0380919B
:10058000F401882371F1109269041092740410929E
:1005900075041092760410927704109279041092E8
:1005A000780460E08AE00E94B30C1092F40181E0CC
:1005B0008093F5018091910390919203892B29F406
:1005C00080E197E2A0E0B0E004C08AE090E0A0E023
:1005D000B0E08093890390938A03A0938B03B09338
:1005E0008C038091F301882301F1809107038093AC
:1005F000C2021092F30181E08093F4018091910393
:1006000090919203892B29F480E197E2A0E0B0E079
:1006100004C08AE090E0A0E0B0E08093890390936A
:100620008A03A0938B03B0938C03809103018823EA
:1006300009F4CFC08091930390919403A091950306
:10064000B09196030197A105B10509F0C2C061E020
:100650008AE00E94B30C6AE070E080E090E00E94C3
:10066000600DC4E1D0E080E10E941E0DBC01990F35
:10067000880B990B0E948F1B9B01AC0160910303B7
:100680007091040380910503909106030E94341D2C
:100690006093030370930403809305039093060310
:1006A00081E10E941E0DBC01990F880B990B0E94DD
:1006B0008F1B9B01AC016091FF0270910003809140
:1006C0000103909102030E94341D6093FF02709316
:1006D0000003809301039093020382E10E941E0DA8
:1006E000BC01990F880B990B0E948F1B2091FB0274
:1006F0003091FC024091FD025091FE020E94341D97
:100700006B017C016093FB027093FC028093FD02FD
:100710009093FE02219709F0A6CF20E030E040EA56
:1007200051E460910303709104038091050390915B
:1007300006030E94A01D609303037093040380933B
:1007400005039093060320E030E040EA51E4609115
:10075000FF027091000380910103909102030E94B7
:10076000A01D6093FF027093000380930103909398
:10077000020320E030E040EA51E4C701B6010E94E4
:10078000A01D6093FB027093FC028093FD02909386
:10079000FE0289E694E00E94BA1381E08093F3019F
:1007A000109203018091910390919203892B29F477
:1007B00080EE93E9A4E0B0E004C08CE291E0A0E018
:1007C000B0E08093890390938A03A0938B03B09346
:1007D0008C03DF91CF91FF90EF90DF90CF90089541
:1007E0008091F201882321F18091F0019091F10133
:1007F0009093E6028093E5021092F20181E08093EB
:1008000002018091AC039091AD03892B29F480E122
:1008100097E2A0E0B0E004C08AE090E0A0E0B0E0A1
:100820008093A4039093A503A093A603B093A7037A
:100830008091EF018823E9F11092330410923E0475
:1008400010923F041092400410924104109243040D
:100850001092420410924E041092590410925A04BD
:1008600010925B0410925C0410925E0410925D047E
:1008700060E08091FB030E94B30C1092EF0181E0D5
:100880008093F2018091AC039091AD03892B29F400
:1008900080E197E2A0E0B0E004C08AE090E0A0E050
:1008A000B0E08093A4039093A503A093A603B09314
:1008B000A7038091EE01882341F18091F802909185
:1008C000F902880F991F880F991F9093F101809367
:1008D000F0011092EE0181E08093EF018091AC0372
:1008E0009091AD03892B29F480E197E2A0E0B0E07C
:1008F00004C08AE090E0A0E0B0E08093A40390936D
:10090000A503A093A603B093A703809102018823B7
:10091000D1F18091AE039091AF03A091B003B0915B
:10092000B1030197A105B10571F561E08091FB0369
:100930000E94B30C6AE070E080E090E00E94600DDD
:100940008EE494E00E94BA1381E08093FA028093CF
:10095000EE01109202018091AC039091AD03892BBE
:1009600069F480E094E2A4EFB0E08093A403909354
:10097000A503A093A603B093A703089580E89EE380
:10098000A0E0B0E0F2CF08958091ED01882361F1FD
:100990008091E9019091EA01A091EB01B091EC0105
:1009A0008093DF029093E002A093E102B093E20211
:1009B0001092ED0181E0809301018091C703909135
:1009C000C803892B29F480E197E2A0E0B0E004C0DD
:1009D0008AE090E0A0E0B0E08093BF039093C00372
:1009E000A093C103B093C2038091E801882371F101
:1009F00060E085E00E94B30C1092FD0310920804A1
:100A00001092090410920A0410920B0410920D0423
:100A100010920C041092E80181E08093ED01809126
:100A2000C7039091C803892B29F480E197E2A0E0E5
:100A3000B0E004C08AE090E0A0E0B0E08093BF03A3
:100A40009093C003A093C103B093C2038091E701C8
:100A5000882361F18091F8019091F901A091FA0148
:100A6000B091FB018093E9019093EA01A093EB011F
:100A7000B093EC011092E70181E08093E80180914E
:100A8000C7039091C803892B29F480E197E2A0E085
:100A9000B0E004C08AE090E0A0E0B0E08093BF0343
:100AA0009093C003A093C103B093C203809101014E
:100AB0008823B9F18091C9039091CA03A091CB0317
:100AC000B091CC030197A105B10559F561E085E02E
:100AD0000E94B30C6AE070E080E090E00E94600D3C
:100AE0008DEF93E00E94BA131092010181E0809390
:100AF000E7018091C7039091C803892B69F480ECCA
:100B00009FECAAE6B0E08093BF039093C003A0934C
:100B1000C103B093C203089588E59BE1A0E0B0E073
:100B2000F2CF08958091E601882331F18091C302CC
:100B30008093E4021092E60191E09093000181110C
:100B400004C082E591E00E94CC078091E20390917D
:100B5000E303892B29F480E197E2A0E0B0E004C030
:100B60008AE090E0A0E0B0E08093DA039093DB03AA
:100B7000A093DC03B093DD038091E501882371F13C
:100B80001092180410922304109224041092250449
:100B900010922604109228041092270460E088E046
:100BA0000E94B30C1092E50181E08093E6018091F0
:100BB000E2039091E303892B29F480E197E2A0E01E
:100BC000B0E004C08AE090E0A0E0B0E08093DA03F7
:100BD0009093DB03A093DC03B093DD038091E401E9
:100BE000882301F18091F7028093C3021092E401FF
:100BF00081E08093E5018091E2039091E303892BEA
:100C000029F480E197E2A0E0B0E004C08AE090E03F
:100C1000A0E0B0E08093DA039093DB03A093DC03C1
:100C2000B093DD03809100018823B9F18091E40342
:100C30009091E503A091E603B091E7030197A10528
:100C4000B10559F561E088E00E94B30C6AE070E0FC
:100C500080E090E00E94600D88E194E00E94BA1369
:100C60001092000181E08093E4018091E203909171
:100C7000E303892B69F480EF99E4A2E0B0E080936C
:100C8000DA039093DB03A093DC03B093DD030895B4
:100C900086E990E0A0E0B0E0F2CF089582E00E9403
:100CA0008A0C892B31F41092C40261E08FE00C941D
:100CB000B30C60E08FE00E94B30C81E08093C4022B
:100CC0000895FC0190810180F281E02D892F8095AB
:100CD00060FF12C0F8942281822382838181892B54
:100CE0008183A3E2B0E01197F1F78281982B928380
:100CF000789487ED90E011C0F8942281822382835A
:100D00008181892B8183AFEFB0E01197F1F7828168
:100D1000982B928378948FE090E00197F1F70895F3
:100D2000DC012C911196ED91FC911297F894818140
:100D3000922F90958923818378948DE743E050E04A
:100D4000815021F1DA011197F1F730813223C1F39B
:100D5000F8948281892382838181822B8183789494
:100D6000ABE7B7E01197F1F7F8948181982391836D
:100D700083E191E00197F1F78081282381E009F078
:100D800080E07894E3E6F6E03197F1F708958F92EA
:100D90009F92AF92BF92CF92DF92EF92FF920F930A
:100DA0001F93CF93DF93CDB7DEB761970FB6F8945B
:100DB000DEBF0FBECDBF8091A6029091A7020E9418
:100DC000900640E06CEC8091A6029091A7020E94F0
:100DD0001C144091A00264E48091A6029091A702A5
:100DE0000E941C148091A2028823D9F1E091A102F3
:100DF000E950E33040F4F0E0EE0FFF1FE85DFE4FF6
:100E00000081118102C00EEE12E08091A3028823BE
:100E100011F18091A00281111EC00E949A0D4B0118
:100E20005C016801110FEE08FF088091A602909105
:100E3000A7020E946F148130A1F00E949A0DDC017C
:100E4000CB018C199D09AE09BF0988159905AA0522
:100E5000BB0558F306C0B801110F880B990B0E940F
:100E6000600DE091A602F091A70213861586148604
:100E7000DF011B96CF0103961E928A179B07E1F7AD
:100E8000BE01665F7F4FCF010E948D08882341F02D
:100E900067E0CE010A960E94041499898917F9F037
:100EA00060E070E08EEF92EC6093F8017093F901CE
:100EB0008093FA019093FB0161960FB6F894DEBF20
:100EC0000FBECDBFDF91CF911F910F91FF90EF909B
:100ED000DF90CF90BF90AF909F908F9008958091BA
:100EE000A6029091A7020E949006882309F451C09F
:100EF000BE016F5F7F4FCE010A960E94FD078823D7
:100F000009F447C068E0CE0101960E940414998557
:100F100089133FC02A8130E0C901982F8827990F93
:100F2000990F990F698128E0629FB00111249C01FB
:100F3000262B372B8A858031C9F4688570E08F8134
:100F4000AB01481B5109CA019695982F88279795A0
:100F500087950E94A81E60517109207F53E0220FDF
:100F6000331F5A95E1F7620F731F01C0B901613851
:100F700054EE75070CF494CF072E000C880B990BD8
:100F80000E948F1B20E030E040E05CE30E94EE1BFB
:100F90008BCF60E874EEEBCFCF93DF93BC0183E09F
:100FA00092E00E943F13EC0163E971E083E092E07C
:100FB0000E943F138C0F9D1FDF91CF91089561E038
:100FC0008FE00E94B30C0E949A0D6093FF01709312
:100FD000000280930102909302026EE071E080E0D3
:100FE00090E00E94600D66E971E08DED94E00E9452
:100FF0003F1386E894E00C94BA13AF92BF92CF925D
:10100000DF92EF92FF920F931F93CF93DF938B01A9
:10101000BC018091A6029091A7020E94501440E06A
:101020006EEB8091A6029091A7020E941C14E80129
:10103000680189E0C80ED11CA090A602B090A7025A
:1010400088E0E82EF12C10E001E0C5010E946F1449
:101050008111102B000F81E0E81AF108B1F7199304
:10106000CC16DD0649F78091A6029091A7020E9456
:10107000900691E0813009F090E0892FDF91CF91C7
:101080001F910F91FF90EF90DF90CF90BF90AF90A6
:1010900008950F931F93CF93DF93CDB7DEB72997B2
:1010A0000FB6F894DEBF0FBECDBF8C018091A602B3
:1010B0009091A7020E949006882309F1BE016F5FFC
:1010C0007F4FC8010E94FD078823C9F068E0CE0168
:1010D00001960E9404149985891311C08D818F3364
:1010E00061F020F48F3159F489E00CC08F3519F08C
:1010F0008F3739F004C08BE005C08AE003C080E080
:1011000001C08CE029960FB6F894DEBF0FBECDBFAC
:10111000DF91CF911F910F910895BF92CF92DF92EF
:10112000EF92FF920F931F93CF93DF93EC016B012C
:101130008D85811105C0CE010E949006811105C0E8
:101140001B861D861C8680E060C040E060EFCE01FB
:101150000E941C1401E0E12CB12C11E0CE010E9490
:101160006F14F82ECE010E946F1491E0F91203C0A3
:101170008130B1F434C02E2D30E0F8121BC08B85C5
:10118000181738F4FE01E20FF31F8381802341F426
:1011900002C0811729F0F12C193058F41C8709C0BE
:1011A000FE01EE0DF11D8381802B8383FF24F394D8
:1011B00009C0B12EFE01E20FF31F9381802F8095AD
:1011C000892383836F2DCE010E9461061F5F000F6C
:1011D00011F4E39401E087E08E1508F0BFCF1134DD
:1011E00008F4AECFBB86B11002C081E08D878B8141
:1011F000882309F4A5CFDE011396F6012B968D9175
:101200008193CA17DB07D9F781E0DF91CF911F9156
:101210000F91FF90EF90DF90CF90BF900895809155
:10122000F7049091F804892B59F1E0918404F0912E
:10123000850484E0ED3DF80719F1309739F0A38972
:10124000B4899C918589809589238C938091FB0436
:101250008E7F8093FB041092FD011092FC018DEDB6
:1012600094E09093850480938404E091F004F091DD
:10127000F10490818091F204892B808381E00895AC
:1012800080E008950F931F93CF93DF93CDB7DEB720
:1012900062970FB6F894DEBF0FBECDBF8C01CB01B5
:1012A000F8011182108213821282158214824AE0A0
:1012B000BE016F5F7F4F0E94581BBE016F5F7F4F63
:1012C000C8010E94460B62960FB6F894DEBF0FBEAF
:1012D000CDBFDF91CF911F910F9108950F931F9371
:1012E000CF93DF93FC01C481D581209719F4FB01D2
:1012F000108210C0C131D10510F0C1E1D0E08B01E6
:10130000FC0160817181AE01C8010E94E220C00F22
:10131000D11F1882DF91CF911F910F910895AF9245
:10132000BF92CF92DF92EF92FF920F931F93CF93D2
:10133000DF936C015B018A01DB011496ED90FC9058
:101340001597E416F50620F4812F8701E42EF82E78
:1013500065E971E0C6010E94A60BF501C481D58143
:101360000C171D07C8F4EC16FD0608F4E701D501BB
:10137000ED91FC911197EC0FFD1FF08010826D91A3
:101380007C91600F711FC6010E94460BF5018081A0
:101390009181C80FD91FF882C601DF91CF911F91AB
:1013A0000F91FF90EF90DF90CF90BF90AF90089596
:1013B00008950895CF92DF92EF92FF920F931F93BB
:1013C000CF93DF936C017A018B01C0E0D0E0CE15A2
:1013D000DF0581F0D8016D918D01D601ED91FC9171
:1013E0000190F081E02DC6010995892B11F021961D
:1013F000EECF7E01C701DF91CF911F910F91FF903A
:10140000EF90DF90CF900895FC01538D448D252FF0
:1014100030E0842F90E0821B930B541710F0CF968E
:10142000089501970895FC01918D828D981761F0C0
:10143000828DDF01A80FB11D5D968C91928D9F5F0B
:101440009F73928F90E008958FEF9FEF0895FC01B6
:10145000918D828D981731F0828DE80FF11D858D69
:1014600090E008958FEF9FEF08950E94C4200F939E
:101470001F93CF93DF93EC0188819981009729F026
:101480002A813B812617370788F48B016F5F7F4FD6
:101490000E94FE1F009761F0998388831B830A8353
:1014A0002C813D81232B11F4FC01108281E001C0CD
:1014B00080E0DF91CF911F910F910895EF92FF92FD
:1014C0000F931F93CF93DF936115710511F480E0A3
:1014D0001CC041155105C1F07B01EC018C819D813F
:1014E0008A01080F191FB801CE010E94370A88230C
:1014F00071F3288139818C819D81B701820F931FFF
:101500000E94DB201D830C8381E0DF91CF911F912E
:101510000F91FF90EF900895EF92FF920F931F931A
:10152000CF93DF93EC017B018A01BA010E94370A55
:101530002881398181110DC02115310519F0C901AA
:101540000E94751F198218821D821C821B821A82BA
:1015500006C01D830C83B701C9010E94DB20CE01A8
:10156000DF91CF911F910F91FF90EF90089583E04D
:1015700092E00E94421021E0892B09F420E0822FA2
:101580000895EF92FF920F931F93CF93DF93EC0197
:1015900081E0888F9B8D8C8D981305C0E889F9892F
:1015A000808185FD26C0F62E0B8D10E00F5F1F4F4A
:1015B0000F731127E02E8C8DE8120CC00FB607FCBC
:1015C000FACFE889F989808185FFF5CFCE010E94A5
:1015D0004912F1CF8B8DFE01E80FF11DE35AFF4F49
:1015E000F0829FB7F8940B8FEA89FB898081806233
:1015F0000AC09FB7F894EE89FF896083E889F9896A
:1016000080818370806480839FBF81E090E0DF9160
:10161000CF911F910F91FF90EF900895CF93DF939B
:10162000EC01888D8823C9F0EA89FB89808185FDDA
:1016300005C0A889B9898C9186FD0FC00FB607FC3B
:10164000F5CF808185FFF2CFA889B9898C9185FF7C
:10165000EDCFCE010E944912E7CFDF91CF910895DF
:101660006115710551F0FB0101900020E9F73197F8
:10167000AF01461B570B0C945E0A80E00895FB01F6
:1016800044815581608171810C945E0ACF93DF9310
:10169000EC016115710559F0FB0101900020E9F79B
:1016A0003197AF01461B570B0E948C0A0CC08881F2
:1016B0009981009711F00E94751F198218821D826E
:1016C0001C821B821A82CE01DF91CF9108950F9365
:1016D0001F93CF93DF938C01EB01FC0180819181FB
:1016E000009739F06881798161157105A1F40E9434
:1016F000751F88819981F801918380838A819B81FC
:10170000938382838C819D8195838483198218823F
:101710001B821A820FC0F801428153812C813D81C6
:101720004217530720F30E94DB208C819D81F80132
:10173000958384831D821C82DF91CF911F910F912D
:101740000895FC01808191810C94751FFC01118228
:10175000108213821282158214826115710551F074
:10176000FB0101900020E9F73197AF01461B570BB1
:101770000C948C0A08951F920F920FB60F921124A9
:101780002F933F934F935F936F937F938F939F9389
:10179000AF93BF93EF93FF93E0911001F09111018C
:1017A0000995FF91EF91BF91AF919F918F917F919B
:1017B0006F915F914F913F912F910F900FBE0F90BE
:1017C0001F9018951F920F920FB60F9211242F930E
:1017D0003F934F935F936F937F938F939F93AF93B9
:1017E000BF93EF93FF93E0910E01F0910F010995E4
:1017F000FF91EF91BF91AF919F918F917F916F91E9
:101800005F914F913F912F910F900FBE0F901F90BE
:1018100018951F920F920FB60F9211242F933F939A
:101820004F935F936F937F938F939F93AF93BF93E8
:10183000EF93FF9383E092E00E944912FF91EF91B2
:10184000BF91AF919F918F917F916F915F914F91D8
:101850003F912F910F900FBE0F901F9018951F92E0
:101860000F920FB60F9211242F938F939F93EF93A4
:10187000FF93E0911302F09114028081E09119022C
:10188000F0911A0282FD12C0908180911C028F5F3C
:101890008F7320911D02821751F0E0911C02F0E03D
:1018A000ED5FFD4F958F80931C0201C08081FF91F9
:1018B000EF919F918F912F910F900FBE0F901F90DE
:1018C0001895833081F028F4813099F08230A1F0AE
:1018D00008958730A9F08830B9F08430D1F4809130
:1018E00080008F7D03C0809180008F77809380007F
:1018F000089584B58F7702C084B58F7D84BD089527
:101900008091B0008F7703C08091B0008F7D80936D
:10191000B0000895CF93DF93282F30E0F901E2550E
:10192000FF4F8491F901E057FF4FD491F901E4583A
:10193000FF4FC491CC2391F081110E94610CEC2FD8
:10194000F0E0EE0FFF1FEE58FF4FA591B491EC9120
:10195000ED2381E090E021F480E002C080E090E09F
:10196000DF91CF9108951F93CF93DF93282F30E01D
:10197000F901E255FF4F8491F901E057FF4FD491EF
:10198000F901E458FF4FC491CC23C1F0162F811107
:101990000E94610CEC2FF0E0EE0FFF1FE859FF4FA3
:1019A000A591B4919FB7F894111104C08C91D09572
:1019B000D82302C0EC91DE2BDC939FBFDF91CF9147
:1019C0001F910895CF93DF9390E0FC01E057FF4F04
:1019D0002491FC01E458FF4F8491882361F190E049
:1019E000880F991FFC01EC55FF4FC591D491FC0164
:1019F000E859FF4FA591B491611109C09FB7F894C0
:101A00008881209582238883EC912E230BC062303D
:101A100061F49FB7F8948881322F309583238883AF
:101A2000EC912E2B2C939FBF06C08FB7F894E881C2
:101A30002E2B28838FBFDF91CF9108958E3008F031
:101A40008E502091130190E4299F900111248770FA
:101A5000822B80937C0080917A00806480937A004E
:101A600080917A0086FDFCCF8091780020917900EA
:101A700090E0922B08953FB7F8948091F2029091F4
:101A8000F302A091F402B091F50226B5A89B05C01F
:101A90002F3F19F00196A11DB11D3FBFBA2FA92FED
:101AA000982F8827820F911DA11DB11DBC01CD016A
:101AB00042E0660F771F881F991F4A95D1F7089556
:101AC0008F929F92AF92BF92CF92DF92EF92FF924E
:101AD0006B017C010E943B0D4B015C01C114D104E0
:101AE000E104F104F1F00E943B0DDC01CB01881907
:101AF0009909AA09BB09883E9340A105B10570F375
:101B000021E0C21AD108E108F10888EE880E83E0CE
:101B1000981EA11CB11CC114D104E104F10419F7F1
:101B2000DDCFFF90EF90DF90CF90BF90AF909F9070
:101B30008F9008952FB7F8946091EE027091EF02A4
:101B40008091F0029091F1022FBF08951F920F92A1
:101B50000FB60F9211242F933F938F939F93AF93C0
:101B6000BF938091EE029091EF02A091F002B091AC
:101B7000F1023091ED0223E0230F2D3720F401967E
:101B8000A11DB11D05C026E8230F0296A11DB11DA0
:101B90002093ED028093EE029093EF02A093F00267
:101BA000B093F1028091F2029091F302A091F402BD
:101BB000B091F5020196A11DB11D8093F2029093A0
:101BC000F302A093F402B093F502BF91AF919F91FD
:101BD0008F913F912F910F900FBE0F901F901895EE
:101BE000FF920F931F93CF93DF93CDB7DEB7A497E8
:101BF0000FB6F894DEBF0FBECDBF86E894E00E941A
:101C000054130E940F098DED94E00E94C110892B9E
:101C100009F42CC265E971E0CE014F960E94A60B33
:101C20008DED94E00E94C110892B29F18DED94E097
:101C30000E94D9101A8219821C821B821E821D8268
:101C40008B8B1C8ABE016D5E7F4FCE0101960E9478
:101C5000460BBE016F5F7F4FCE014F960E943F0B38
:101C6000CE0101960E94A10B61E070E080E090E05F
:101C70000E94600DD5CF8091EC02882309F434C115
:101C80008091E702811122C08BA19CA1892B61F078
:101C900069EA71E08F8D98A10E94D220892B21F4EE
:101CA00081E08093E70210C08091F602833060F4F7
:101CB00066E971E08DED94E00E943F138091F60299
:101CC0008F5F8093F60202C01092F6028091E702C5
:101CD000882309F405C18091EA02811141C06CEAB0
:101CE00071E083EB94E00E94460B61EA74E083EBC1
:101CF00094E00E943F0B20E030E040E251E460912C
:101D000014017091150180911601909117010E94A4
:101D1000EE1B0E94121ECE0143960E944209BE0194
:101D20006D5E7F4F83EB94E00E943F0BBE016F5FBF
:101D30007F4F83EB94E00E946E09BE016F5F7F4F7F
:101D40008DED94E00E943F1381E08093EA02CE0182
:101D500001960E94CC07CE0143960E94A10BC0C001
:101D60008091EB028111BAC064EB71E08DEA94E0DE
:101D70000E94460B6091E5027091E602CE01499601
:101D80000E9442098D8D9E8D83309105F0F402975B
:101D900019F06CEB71E002C06DEB71E0CE01499679
:101DA0000E94460B6091E5027091E602CE01019619
:101DB0000E944209BE016F5F7F4FCE0149960E948B
:101DC0003F0BCE0101960E94A10BBE01675E7F4FC3
:101DD0008DEA94E00E943F0B8091E402882319F081
:101DE0006EED71E002C06DEB71E08DEA94E00E944F
:101DF000300B8091E302882319F06EED71E002C090
:101E00006DEB71E08DEA94E00E94300B20E030E051
:101E100040E251E46091DF027091E0028091E102C2
:101E20009091E2020E94EE1B0E94121ECE01439688
:101E30000E9442098F89988D8330910550F5029751
:101E400019F06CEB71E002C06DEB71E0CE014396CE
:101E50000E94460B20E030E040E251E46091DF0256
:101E60007091E0028091E1029091E2020E94EE1BEB
:101E70000E94121ECE0101960E944209BE016F5FB0
:101E80007F4FCE0143960E943F0BCE0101960E94E8
:101E9000A10BBE016D5E7F4F8DEA94E00E943F0B67
:101EA000CE0143960E94A10BCE0149960E94A10B40
:101EB000BE016F5F7F4F8DEA94E00E946E09BE0104
:101EC0006F5F7F4F8DED94E00E943F1381E0809320
:101ED000EB02CE0101960E94CC0702C00E94E512DF
:101EE0008091EC028111BEC08091E702811118C07F
:101EF0008BA19CA1892B09F4B5C069EA71E08F8D93
:101F000098A10E94D220892B09F0ACC06FEB71E040
:101F10008DED94E00E943F1381E08093E702A2C020
:101F20008091E802811171C048E050E0BE01615E1D
:101F30007F4FCE0101960E948F09BE016F5F7F4FD8
:101F4000CE014F960E94670BCE0101960E94A10B15
:101F500065E971E0CE0101960E94A60B0BA11CA1C0
:101F600001151105B9F00630110510F006E010E07A
:101F7000EF8DF8A1E00FF11FF08010826F8D78A136
:101F8000CE0101960E94460B8F8D98A1FC01E00FB7
:101F9000F11FF082BE016F5F7F4F87EA94E00E94DD
:101FA000670BCE0101960E94A10B46E050E0BE01F6
:101FB000615E7F4FCE0101960E948F09BE016F5F67
:101FC0007F4F81EA94E00E94670BCE0101960E9448
:101FD000A10B68EC71E08FEB94E00E94460BBE0110
:101FE0006F5F7F4F8FEB94E00E946E09BE016F5FC1
:101FF0007F4F8DED94E00E943F13CE0101960E9429
:10200000CC0781E08093E8022DC08091E902811124
:1020100029C068ED71E089EB94E00E94460B60EE08
:1020200071E089EB94E00E94300B67EA74E089EB81
:1020300094E00E943F0BBE016F5F7F4F89EB94E0FD
:102040000E946E09BE016F5F7F4F8DED94E00E948C
:102050003F13CE0101960E94CC0781E08093E902F4
:102060008093EC02CE014F960E94A10BA4960FB66E
:10207000F894DEBF0FBECDBFDF91CF911F910F91BE
:10208000FF900895FC01918D228D892F90E0805C56
:102090009F4F821B91098F739927089580E090E0EC
:1020A000892B29F00E94B70A81110C940000089531
:1020B00020918404309185042817390771F4909198
:1020C000FC018091FD01981741F0E091FC01F0E0E6
:1020D000EE5EFC4F808190E008958FEF9FEF0895B2
:1020E00008951F93CF93DF93DC015C968D919C91B3
:1020F0005D97009739F421E030E013963C932E93DE
:1021000012973BC05196ED91FC91529750962C91AD
:102110005097322F30951FB75E964C915E97742F73
:10212000727041FD6095F8944081772311F0422B45
:1021300001C043234083EC012197F1F748E050812F
:1021400060FF02C0522B01C053235083EC01219742
:10215000F1F76695415099F78081772319F0832331
:10216000808302C0282B20831FBF5C968D919C9199
:102170005D970197F1F781E090E0DF91CF911F919A
:10218000089520918404309185042817390771F44B
:102190008091FD012091FC0190E0805C9F4F821BAB
:1021A000910960E470E00E94A81E089580E090E02C
:1021B0000895209184043091850428173907B9F4D3
:1021C0009091FC018091FD01981789F0E091FC014C
:1021D000F0E0EE5EFC4F80812091FC0130E02F5F4B
:1021E0003F4F2F7333272093FC0190E008958FEF2A
:1021F0009FEF089580E090E0089580910903909109
:102200000A038B30910524F09093F9028093F80231
:1022100010920A03109209031092080310923304DB
:1022200010923E0410923F04109240041092410418
:1022300010924304109242041092FA0208958F9271
:102240009F92AF92BF92CF92DF92EF92FF920F9345
:102250001F93CF93DF938091110381112BC082E1F3
:102260000E941E0DBC01990F880B990B0E948F1BB9
:102270002091FB023091FC024091FD025091FE0240
:102280000E94331D20E030E048E952E40E94A01D86
:102290009B01AC010E94EE1B0E94531E20E030E027
:1022A00040E050E40E94481E18160CF0D9C081E0AE
:1022B0008093110305E010E0C0E0D0E080E10E94CF
:1022C0001E0DBC01990F880B990B0E948F1B20914A
:1022D00003033091040340910503509106030E94CB
:1022E000331D9B01AC010E94EE1B6B017C01BE0102
:1022F000DD0F880B990B0E948F1B9B01AC01C7015E
:10230000B6010E94341D0E94121EEB0101501109FA
:10231000A9F6CB0165E070E00E94A81E8B0135E0B4
:10232000E32EF12CC0E0D0E081E10E941E0DBC0143
:10233000990F880B990B0E948F1B2091FF023091FF
:10234000000340910103509102030E94331D9B0141
:10235000AC010E94EE1B4B015C01BE01DD0F880B3E
:10236000990B0E948F1B9B01AC01C501B4010E9417
:10237000341D0E94121EEB0181E0E81AF108A1F65B
:10238000CE0165E070E00E94A81E600F711F072E4D
:10239000000C880B990B0E948F1B0E94531E6B012F
:1023A0007C0120E030E0A9010E94481E20E030E0DE
:1023B00040E05FE387FD05C0C701B6010E94341D00
:1023C00004C0C701B6010E94331D0E94121E8091F5
:1023D0000F0390911003FC01EE0FFF1FE85EFE4F0C
:1023E000718360830196853091052CF490931003DE
:1023F00080930F0335C01092100310920F032091A9
:102400000D0330910E03E8E1F1E08191919140815B
:102410005181841B950B4E96CD9770F420E030E0EF
:1024200081E0EE31F80789F781E080930C03109288
:102430000E0310920D0306C030930E0320930D037C
:1024400010920C0380910C03882341F081E080936B
:1024500007031092110310920C0302C01092110393
:10246000DF91CF911F910F91FF90EF90DF90CF9070
:10247000BF90AF909F908F90089589E00E948A0C42
:10248000019719F41092F702089581E08093F70202
:102490000895FC01848DDF01A80FB11DA35ABF4F21
:1024A0002C91848D90E001968F739927848FA68953
:1024B000B7892C93A089B1898C91837080648C93A7
:1024C000938D848D981306C00288F389E02D808156
:1024D0008F7D808308951F920F920FB60F92112463
:1024E0002F933F934F935F936F937F938F939F931C
:1024F000AF93BF93EF93FF93E0918404F091850431
:10250000309709F451C0968DA685B785858591FFD2
:1025100004C09C91892329F447C09C91892309F028
:1025200043C0A389B4899C918589809589238C9324
:10253000868997890197F1F7608D718DA685B7859A
:10254000558538E020E0CB010197F1F7822F90E02C
:1025500095958795282F4C91452309F02068315097
:1025600091F7868D81FD20958091FD0190E0019687
:102570008F7399273091FC01381749F0A091FD0124
:10258000B0E0AE5EBC4F2C938093FD0103C0868DFE
:102590008160868F828D938D0197F1F7A389B4892D
:1025A0009C918589892B8C93FF91EF91BF91AF917D
:1025B0009F918F917F916F915F914F913F912F915B
:1025C0000F900FBE0F901F90189560E08FE00E9453
:1025D000B30CE7EEF2E010821182128213821482B1
:1025E000E6E8F4E010821386148615861686108AB3
:1025F00017860895CF92DF92EF92FF920F931F9369
:102600008091E7028823A1F18091EC02811107C03B
:1026100096EBC92E93E0D92EE12CF12C06C082EC6A
:10262000C82EDD24D394E12CF12C0E949A0D2EE0CB
:10263000C20E21E0D21EE11CF11C0091FF0110919D
:1026400000022091010230910202DC01CB01801BCB
:10265000910BA20BB30B8C159D05AE05BF0540F089
:102660001F910F91FF90EF90DF90CF900C94E512A7
:102670001F910F91FF90EF90DF90CF90089561151B
:10268000710579F0FB0101900020E9F73197AF0166
:10269000461B570BDC01ED91FC910280F381E02D8C
:1026A000099480E090E008950F931F93CF93DF93F8
:1026B000FC012081222309F458C0EC018185928518
:1026C0000197C1F40E949A0D0B891C892D893E89BE
:1026D000DC01CB01801B910BA20BB30B09811A818A
:1026E0002B813C8180179107A207B307F0F10E946C
:1026F0009A0D17C00E943B0D0B891C892D893E89BC
:10270000DC01CB01801B910BA20BB30B09811A8159
:102710002B813C8180179107A207B30730F10E94FB
:102720003B0D6B8B7C8B8D8B9E8B8B859C85AD85C0
:10273000BE854D815E816F817885481B590B6A0B80
:102740007B0B413051056105710509F41882019632
:10275000A11DB11D8B879C87AD87BE87E989FA894A
:10276000DF91CF911F910F910994DF91CF911F912C
:102770000F910895CF93DF93FC0121893289232B98
:10278000C1F0EC0181859285019719F40E949A0DA0
:1027900002C00E943B0D6B8B7C8B8D8B9E8B81E0EE
:1027A00088831B861C861D861E8681E090E0988BA0
:1027B0008F87DF91CF9108958091FA02882319F1D4
:1027C00080E00E941E0D893E9340DCF080910B0357
:1027D00081110CC081E080930B03809109039091DB
:1027E0000A03019690930A038093090380910803DA
:1027F000811109C081E08093080383E394E00C9485
:10280000BA1310920B030895DC0180E0615098F038
:102810002D91982F9227E92FEF70F0E0EE53FF4FA4
:10282000249192959F70E92FF0E0EE52FF4FE491D2
:10283000822F8E27EBCF0895DF92EF92FF920F93B6
:102840001F93CF93DF93EC01D62EE42E08E010E027
:10285000FF24F39461E08D2D8F2109F460E0CE0117
:102860000E946106FF0C01501109A1F7E11010C090
:10287000F894E981FA819181888180958923818307
:10288000E981FA8192818881809589238283789475
:10289000DF91CF911F910F91FF90EF90DF900895FE
:1028A000EF92FF920F931F93CF93DF938C017B01E5
:1028B00040E065E50E941C14E70188E0E80EF11C89
:1028C000699140E0C8010E941C14CE15DF05C1F7D4
:1028D000DF91CF911F910F91FF90EF900895FC0130
:1028E00090810180F281E02DF8948181892B818390
:1028F0002281892F809528232283A7E0B0E01197B9
:10290000F1F7218182238183A3E2B0E01197F1F7EF
:1029100080817894EFECF0E03197F1F7982381E033
:1029200009F480E00895109206021092050288EEE4
:1029300093E0A0E0B0E08093070290930802A09398
:102940000902B0930A0222E331E03093040220939B
:10295000030225EC30E03093100220930F0224ECA8
:1029600030E0309312022093110220EC30E03093DB
:1029700014022093130221EC30E0309316022093CE
:10298000150222EC30E0309318022093170226EC57
:1029900030E030931A022093190210921C02109218
:1029A0001D0210921E0210921F021092E00410925B
:1029B000DF048093E1049093E204A093E304B093D6
:1029C000E40484E491E09093DE048093DD041092AB
:1029D000F4041092F3041092F6041092F50410928D
:1029E000F8041092F7041092FA041092F90460911E
:1029F000FB046E7F6D7F6093FB046695617081E0E0
:102A0000682783E00E94B30C61E083E00E94E20C3F
:102A1000E3E9F0E0E491E093ED04EFE7F0E0E49126
:102A2000F0E0EE0FFF1FE859FF4F859194919093CE
:102A3000EF048093EE0460E084E00E94E20C809159
:102A4000FB0481FD04C061E084E00E94B30C84E0DB
:102A50008093E904E4E9F0E0E491E093EA04E0E83B
:102A6000F0E0E491F0E0EE0FFF1FEE58FF4F85918C
:102A700094919093EC048093EB046FEC71E085ECFF
:102A800094E00E94A60B65E971E08BEC94E00E9453
:102A9000A60B65E971E081ED94E00E94A60B65E963
:102AA00071E087ED94E00E94A60B65E971E08FEB81
:102AB00094E00E94A60B65E971E089EB94E00E9426
:102AC000A60B65E971E083EB94E00E94A60B65E933
:102AD00071E08DEA94E00E94A60B65E971E087EA57
:102AE00094E00E94A60B65E971E081EA94E00E94FF
:102AF000A60B1092900410928F0480E593ECA0E056
:102B0000B0E08093870490938804A0938904B093E5
:102B10008A0410928B0410928C0410928D041092EF
:102B20008E048AEF92E19093980480939704109218
:102B300086041092990410929A0410929B041092A9
:102B40009C0410929104109292041092930410929B
:102B50009404109273041092720480EF99E4A2E03E
:102B6000B0E080936A0490936B04A0936C04B093DC
:102B70006D0410926E0410926F0410927004109203
:102B800071048FE191E190937B0480937A04109219
:102B9000690410927C0410927D0410927E041092BD
:102BA0007F041092740410927504109276041092AF
:102BB000770410923D0410923C0480EC91EEA4EE58
:102BC000B0E08093340490933504A0933604B0931E
:102BD0003704109238041092390410923A0410927B
:102BE0003B048DEF90E19093450480934404109250
:102BF0003304109246041092470410924804109235
:102C0000490410923E0410923F0410924004109226
:102C10004104109258041092570480E29EE4A0E010
:102C2000B0E080934F0490935004A0935104B0936C
:102C300052041092530410925404109255041092AE
:102C400056048CED93E19093600480935F0410929E
:102C50004E04109261041092620410926304109268
:102C600064041092590410925A0410925B0410925A
:102C70005C04109222041092210480EA96E8A1E0FC
:102C8000B0E08093190490931A04A0931B04B093AE
:102C90001C0410921D0410921E0410921F04109226
:102CA00020048DE392E190932A04809329041092EA
:102CB000180410922B0410922C0410922D041092E0
:102CC0002E041092230410922404109225041092D2
:102CD000260460E086E00E94E20CE6E9F0E0E49180
:102CE000E093B402E2E8F0E0E491F0E0EE0FFF1FC1
:102CF000EE58FF4F859194919093B6028093B50260
:102D00001092BF021092C1021092C002EFEBF2E0EB
:102D1000129282E0E73BF807D9F784EB92E09093B8
:102D2000A7028093A6021092A4021092A50210920C
:102D3000A00289E08093A10281E08093A2028093A7
:102D4000A3021092B3021092B202109207041092E2
:102D5000060480EC96ECADE2B0E08093FE03909325
:102D6000FF03A0930004B093010410920204109298
:102D70000304109204041092050487EC96E09093EB
:102D80000F0480930E041092FD0310921004109211
:102D9000110410921204109213041092080410925D
:102DA000090410920A0410920B041092F503109279
:102DB000F7031092F6031092FA038EE090E09093DE
:102DC000F9038093F80387E090E09093FC038093ED
:102DD000FB0361E00E94E20C21E030E03093E3036A
:102DE0002093E2038AE090E0A0E0B0E08093DA0371
:102DF0009093DB03A093DC03B093DD0344E050E049
:102E000060E070E04093DE035093DF036093E003E3
:102E10007093E103E2E9F5E0F093EB03E093EA035A
:102E20001092D9031092EC031092ED031092EE036E
:102E30001092EF031092E4031092E5031092E60360
:102E40001092E7033093C8032093C7038093BF0316
:102E50009093C003A093C103B093C2034093C303F4
:102E60005093C4036093C5037093C603E4ECF4E08D
:102E7000F093D003E093CF031092BE031092D103DE
:102E80001092D2031092D3031092D4031092C9036C
:102E90001092CA031092CB031092CC033093AD036F
:102EA0002093AC038093A4039093A503A093A6035F
:102EB000B093A7034093A8035093A9036093AA0378
:102EC0007093AB03E0EFF3E0F093B503E093B4034A
:102ED0001092A3031092B6031092B7031092B80396
:102EE0001092B9031092AE031092AF031092B00388
:102EF0001092B1033093920320939103809389033E
:102F000090938A03A0938B03B0938C0340938D031B
:102F100050938E0360938F037093900343E952E0C4
:102F200050939A03409399031092880310929B0345
:102F300010929C0310929D0310929E031092930393
:102F40001092940310929503109296033093770396
:102F50002093760380936E0390936F03A093700386
:102F6000B09371038093720390937303A0937403DF
:102F7000B09375034FE950E050937F0340937E0375
:102F800010926D03109280031092810310928203BD
:102F900010928303109278031092790310927A03AF
:102FA00010927B0330935C0320935B038093530365
:102FB00090935403A0935503B093560381E090E09F
:102FC000A0E0B0E08093570390935803A093590377
:102FD000B0935A038DE990E0909364038093630368
:102FE00010925203109265031092660310926703C9
:102FF0001092680310925D0310925E0310925F03BB
:10300000109260030895CF93DF93CDB7DEB7289772
:103010000FB6F894DEBF0FBECDBF789484B5826042
:1030200084BD84B5816084BD85B5826085BD85B56C
:10303000816085BD80916E00816080936E001092EA
:103040008100809181008260809381008091810065
:1030500081608093810080918000816080938000F6
:103060008091B10084608093B1008091B000816054
:103070008093B00080917A00846080937A00809180
:103080007A00826080937A0080917A0081608093D8
:103090007A0080917A00806880937A001092C10053
:1030A000E0911302F091140282E08083E0910F021C
:1030B000F09110021082E0911102F09112028FEC57
:1030C000808310921B02E0911702F091180286E0B3
:1030D0008083E0911502F0911602808180618083E7
:1030E000E0911502F0911602808188608083E09162
:1030F0001502F0911602808180688083E0911502AC
:10310000F091160280818F7D808383E0809313018C
:103110006AE070E080E090E00E94600D61E08FE086
:103120000E94E20C1092F8041092F7041092F60438
:103130001092F5041092F4041092F3048DE991E0DA
:103140009093FA048093F9049091E904963108F081
:1031500058C02DEB30E03093F4042093F3042BE9B6
:1031600031E03093F6042093F5042CE231E0309303
:10317000F8042093F70440916800983058F031E04B
:103180009E3008F430E021E0822F01C0880F3A958C
:10319000EAF701C084E0842B80936800983038F00F
:1031A0009E3040F0963148F020E030E008C02DE637
:1031B00030E005C02BE630E002C02CE630E0309372
:1031C000F1042093F004983030F481E001C0880FBE
:1031D0009A95EAF70EC0292F30E09E3018F4285057
:1031E000310902C02E50310981E001C0880F2A95B3
:1031F000EAF78093F2048091F9049091FA04019720
:10320000F1F70E940F096AE070E080E090E00E9410
:10321000600D61E088E00E94E20C60E089E00E94BD
:10322000E20C61E085E00E94E20CE091A602F091E0
:10323000A702138615861486DF011B9633961E920D
:10324000EA17FB07E1F71092A4021092A50201E031
:10325000BE016F5F7F4F8091A6029091A7020E94EE
:103260008D08882309F465C067E0CE0101960E94AD
:10327000041498858913ECCF8091A002811127C096
:103280008091A6029091A7020E949006BE016F5FF6
:103290007F4F8091A6029091A7020E94501440E0B7
:1032A00064EB8091A6029091A7020E941C14809169
:1032B000A6029091A7020E946F14182F8091A60277
:1032C0009091A7020E949006112309F474C11091F5
:1032D000A1028981803109F4A3C1CE0101960E9427
:1032E0004908811718F48091A10209C089818031B1
:1032F00011F48CE004C0CE0101960E94490880932D
:10330000A1028091A4028F5F8093A40289818832F8
:1033100009F454C138F4803109F450C1823209F003
:1033200097CF4CC18B3309F449C1823409F090CF57
:1033300045C161E08AE00E94E20C0E94DF078EE452
:1033400096E090930F0180930E01809169008C7F2D
:10335000816080936900E89A89E991E00E94CC0736
:1033600011E00E94F00D88E194E00E9454138DEF6B
:1033700093E00E94541383E394E00E9454138EE47C
:1033800094E00E94541389E694E00E9454130E9432
:10339000F00D8091C4028111EDC00E949A0D613D33
:1033A00077408105910518F10E949A0DC090DB02CB
:1033B000D090DC02E090DD02F090DE0228EEC20E3A
:1033C00023E0D21EE11CF11CC616D706E806F9065A
:1033D00070F40E949A0D6093DB027093DC0280937C
:1033E000DD029093DE0282E593E00E94BA130E9410
:1033F0009A0DC090D702D090D802E090D902F090F8
:10340000DA0228E8C20E23E1D21EE11CF11CC61626
:10341000D706E806F90670F40E949A0D6093D70269
:103420007093D8028093D9029093DA0289ED93E0E9
:103430000E94BA138091C302882309F46DC00E94D0
:103440009A0DC090D302D090D402E090D502F090B3
:10345000D60220E4C20E2FE1D21EE11CF11CC616DA
:10346000D706E806F90670F40E949A0D6093D3021D
:103470007093D4028093D5029093D6028EEB93E0A2
:103480000E94BA130E949A0DC090CF02D090D00231
:10349000E090D102F090D20220E3C20E25E7D21EC6
:1034A000E11CF11CC616D706E806F90670F40E9466
:1034B0009A0D6093CF027093D0028093D1029093C3
:1034C000D20283EA93E00E94BA138091C202811172
:1034D0007BC00E949A0DC090CB02D090CC02E090AD
:1034E000CD02F090CE0224EFC20E21E0D21EE11CEC
:1034F000F11CC616D706E806F90670F40E949A0D6C
:103500006093CB027093CC028093CD029093CE0255
:1035100088E893E00E94BA130E949A0D653F7140BB
:103520008105910520F080911201811172C00E94E5
:103530009A0DC090C702D090C802E090C902F090E6
:10354000CA0220E1C20E27E2D21EE11CF11CC616FF
:10355000D706E806F90670F48DE693E00E94BA13E8
:103560000E949A0D6093C7027093C8028093C902AB
:103570009093CA028DE693E00E94541389ED93E084
:103580000E9454138EEB93E00E94541383EA93E05D
:103590000E94541388E893E00E94541382E593E05C
:1035A0000E94541361E070E080E090E00E94600DA2
:1035B0000E944E10D6CE0093A00289CE8091A50223
:1035C0008F5F8093A50244CE1093E3020E949A0D70
:1035D000C090CB02D090CC02E090CD02F090CE0211
:1035E00028E8C20E23E1D21EE11CF11CC616D70644
:1035F000E806F90608F090CF0E949A0D6093CB027E
:103600007093CC028093CD029093CE021092C202AE
:1036100083CF8DE693E00E94BA131092120187CFF8
:103620001D3008F060CE65CE81EA94E00E94A10BC7
:1036300087EA94E00E94A10B8DEA94E00E94A10B1E
:1036400083EB94E00E94A10B89EB94E00E94A10B14
:103650008FEB94E00E94A10B87ED94E00E94A10BF8
:1036600081ED94E00E94A10B8BEC94E00E94A10BF1
:1036700085EC94E00E94A10B84E491E09093DE0439
:103680008093DD0480918404909185048D5D944045
:1036900071F4E091F004F091F10490818091F204D2
:1036A0008095892380831092850410928404089564
:1036B000BB274A3031F4992322F4BDE290958195DD
:1036C0009F4F0C94641BBB27FB015527AA27880F2B
:1036D000991FAA1FA41710F0A41B83955051B9F786
:1036E000A05DAA3308F0A95DA193009779F7B11105
:1036F000B1931192CB010C947D1BDC01FC01672F6F
:1037000071917723E1F7329704C07C916D937083B8
:103710006291AE17BF07C8F30895E89409C097FBFC
:103720003EF490958095709561957F4F8F4F9F4F98
:103730009923A9F0F92F96E9BB279395F6958795DC
:1037400077956795B795F111F8CFFAF4BB0F11F49F
:1037500060FF1BC06F5F7F4F8F4F9F4F16C0882346
:1037600011F096E911C0772321F09EE8872F762F7C
:1037700005C0662371F096E8862F70E060E02AF0BD
:103780009A95660F771F881FDAF7880F96958795A9
:1037900097F90895990F0008550FAA0BE0E8FEEF7E
:1037A00016161706E807F907C0F012161306E40705
:1037B000F50798F0621B730B840B950B39F40A26FE
:1037C00061F0232B242B252B21F408950A2609F4DC
:1037D000A140A6958FEF811D811D08950E94011CB7
:1037E0000C94721C0E94641C38F00E946B1C20F028
:1037F000952311F00C945B1C0C94611C11240C9407
:10380000A61C0E94831C70F3959FC1F3950F50E096
:10381000551F629FF001729FBB27F00DB11D639F82
:10382000AA27F00DB11DAA1F649F6627B00DA11D28
:10383000661F829F2227B00DA11D621F739FB00DCE
:10384000A11D621F839FA00D611D221F749F33273E
:10385000A00D611D231F849F600D211D822F762FD7
:103860006A2F11249F5750409AF0F1F088234AF0B4
:10387000EE0FFF1FBB1F661F771F881F9150504020
:10388000A9F79E3F510580F00C945B1C0C94A61C7C
:103890005F3FE4F3983ED4F3869577956795B795A7
:1038A000F795E7959F5FC1F7FE2B880F911D9695C1
:1038B000879597F9089597F99F6780E870E060E031
:1038C00008959FEF80EC089500240A9416161706B9
:1038D00018060906089500240A9412161306140601
:1038E00005060895092E0394000C11F4882352F064
:1038F000BB0F40F4BF2B11F460FF04C06F5F7F4F1C
:103900008F4F9F4F089557FD9058440F551F59F002
:103910005F3F71F04795880F97FB991F61F09F3FBC
:1039200079F087950895121613061406551FF2CFE5
:103930004695F1DF08C0161617061806991FF1CF35
:1039400086957105610508940895E894BB2766275C
:103950007727CB0197F90895052E97FB1EF4009465
:103960000E94C31C57FD07D00E94021D07FC03D014
:103970004EF40C94C31C50954095309521953F4FC3
:103980004F4F5F4F089590958095709561957F4F4B
:103990008F4F9F4F08952F923F924F925F926F9259
:1039A0007F928F929F92AF92BF92CF92DF92EF92CF
:1039B000FF920F931F93CF93DF93CDB7DEB7CA1B50
:1039C000DB0B0FB6F894DEBF0FBECDBF09942A887B
:1039D000398848885F846E847D848C849B84AA8423
:1039E000B984C884DF80EE80FD800C811B81AA81B0
:1039F000B981CE0FD11D0FB6F894DEBF0FBECDBF7B
:103A0000ED010895A1E21A2EAA1BBB1BFD010DC0FA
:103A1000AA1FBB1FEE1FFF1FA217B307E407F5077E
:103A200020F0A21BB30BE40BF50B661F771F881F5A
:103A3000991F1A9469F760957095809590959B01F0
:103A4000AC01BD01CF010895A29FB001B39FC00199
:103A5000A39F700D811D1124911DB29F700D811DBA
:103A60001124911D08955058BB27AA270E944B1D71
:103A70000C94721C0E94641C38F00E946B1C20F095
:103A800039F49F3F19F426F40C94611C0EF4E09570
:103A9000E7FB0C945B1CE92F0E94831C58F3BA17B8
:103AA000620773078407950720F079F4A6F50C9454
:103AB000A51C0EF4E0950B2EBA2FA02D0B01B90119
:103AC00090010C01CA01A0011124FF27591B99F094
:103AD000593F50F4503E68F11A16F040A22F232FA0
:103AE000342F4427585FF3CF469537952795A795F0
:103AF000F0405395C9F77EF41F16BA0B620B730B97
:103B0000840BBAF09150A1F0FF0FBB1F661F771F07
:103B1000881FC2F70EC0BA0F621F731F841F48F4BC
:103B2000879577956795B795F7959E3F08F0B0CF45
:103B30009395880F08F09927EE0F9795879508952C
:103B40000E94B41D0C94721C0E946B1C58F00E94C1
:103B5000641C40F029F45F3F29F00C945B1C511168
:103B60000C94A61C0C94611C0E94831C68F399237E
:103B7000B1F3552391F3951B550BBB27AA27621769
:103B80007307840738F09F5F5F4F220F331F441F76
:103B9000AA1FA9F335D00E2E3AF0E0E832D09150AA
:103BA0005040E695001CCAF72BD0FE2F29D0660F97
:103BB000771F881FBB1F261737074807AB07B0E8DA
:103BC00009F0BB0B802DBF01FF2793585F4F3AF0E0
:103BD0009E3F510578F00C945B1C0C94A61C5F3F33
:103BE000E4F3983ED4F3869577956795B795F79566
:103BF0009F5FC9F7880F911D9695879597F908954E
:103C0000E1E0660F771F881FBB1F621773078407E9
:103C1000BA0720F0621B730B840BBA0BEE1F88F7F8
:103C2000E09508950E94191E6894B1110C94A61C89
:103C300008950E948B1C88F09F5798F0B92F992700
:103C4000B751B0F0E1F0660F771F881F991F1AF087
:103C5000BA95C9F714C0B13091F00E94A51CB1E02B
:103C600008950C94A51C672F782F8827B85F39F02A
:103C7000B93FCCF3869577956795B395D9F73EF420
:103C800090958095709561957F4F8F4F9F4F0895C8
:103C90000E94CA1B08F48FEF089519F416F40C94CF
:103CA000611C0C94931E0E948B1CB8F39923C9F3DA
:103CB000B6F39F57550B87FF0E94A11E0024A0E674
:103CC00040EA900180585695979528F4805C660FDD
:103CD000771F881F20F026173707480730F4621B2C
:103CE000730B840B202931294A2BA695179407942E
:103CF000202531254A2758F7660F771F881F20F0A7
:103D000026173707480730F4620B730B840B200D1E
:103D1000311D411DA09581F7B901842F9158880F5D
:103D20009695879508959F3F31F0915020F487959F
:103D300077956795B795880F911D9695879597F913
:103D4000089591505040660F771F881FD2F708954D
:103D500097FB072E16F4009407D077FD09D00E9438
:103D6000C31E07FC05D03EF4909581959F4F0895A2
:103D7000709561957F4F08950E94241DB7FF0895A7
:103D8000821B930B0895AA1BBB1B51E107C0AA1FFE
:103D9000BB1FA617B70710F0A61BB70B881F991FEC
:103DA0005A95A9F780959095BC01CD010895EE0F25
:103DB000FF1F0590F491E02D09940F931F93CF936B
:103DC000DF938230910510F482E090E0E091FE04F0
:103DD000F091FF0420E030E0A0E0B0E0309719F16E
:103DE000408151810281138148175907C8F0841717
:103DF000950769F4109731F012960C931297139669
:103E00001C9327C00093FE041093FF0422C02115C9
:103E1000310519F04217530718F49A01BD01EF015B
:103E2000DF01F801DBCF21153105F9F0281B390B33
:103E30002430310580F48A819B816115710521F060
:103E4000FB019383828304C09093FF048093FE045C
:103E5000FE01329644C0FE01E20FF31F819391935D
:103E600022503109398328833AC02091FC043091D3
:103E7000FD04232B41F4209124013091250130933E
:103E8000FD042093FC04209122013091230121158F
:103E9000310541F42DB73EB74091260150912701DD
:103EA000241B350BE091FC04F091FD04E217F307AD
:103EB000A0F42E1B3F0B2817390778F0AC014E5F9A
:103EC0005F4F2417350748F04E0F5F1F5093FD04D6
:103ED0004093FC048193919302C0E0E0F0E0CF01B5
:103EE000DF91CF911F910F910895CF93DF930097AA
:103EF00009F481C0FC01329713821282A091FE0462
:103F0000B091FF04109781F420813181820F931FBB
:103F10002091FC043091FD042817390751F5F093E6
:103F2000FD04E093FC0467C0ED0120E030E0CE1713
:103F3000DF0740F44A815B819E0141155105F1F094
:103F4000EA01F5CFD383C28340815181840F951F4D
:103F5000C817D90759F488819981840F951F029653
:103F6000918380838A819B8193838283211531058C
:103F700029F4F093FF04E093FE043DC0E901FB83C4
:103F8000EA8349915991C40FD51FEC17FD0761F4DD
:103F900080819181840F951F0296E901998388831E
:103FA000828193819B838A83E0E0F0E012968D9179
:103FB0009C911397009719F0FD01DC01F7CF8D91CB
:103FC0009C9111979D012E5F3F4F820F931F20916F
:103FD000FC043091FD042817390769F4309729F45F
:103FE0001092FF041092FE0402C013821282B0935A
:103FF000FD04A093FC04DF91CF910895A0E0B0E010
:10400000E4E0F0E20C94CF1CEC01009721F4CB012A
:104010000E94DD1EB4C0FC01E60FF71F9C01225078
:104020003109E217F30708F4A8C0D9010D911C91DA
:10403000119706171707B0F00530110508F49BC05B
:10404000C80104978617970708F495C00250110914
:10405000061B170B019311936D937C93CF010E9464
:10406000751F89C05B01A01AB10A4C01800E911E18
:10407000A091FE04B091FF04612C712CE12CF12C75
:10408000109709F446C08D919C911197A815B90518
:10409000B1F56C0142E0C40ED11CCA14DB0478F106
:1040A0004C018A189B08640142E0C40ED11C129690
:1040B000BC9012971396AC91B5E0CB16D10440F0AA
:1040C000B282A38391828082D9016D937C9309C0CF
:1040D0000E5F1F4F800F911FF90191838083EB2D9D
:1040E000FA2FE114F10431F0D7011396FC93EE930B
:1040F000129741C0F093FF04E093FE043CC06816A1
:10410000790608F43C017D0112960D90BC91A02D1A
:10411000B7CF8091FC049091FD0488169906E1F4D4
:1041200066167706C8F480912201909123010097CA
:1041300041F48DB79EB74091260150912701841B11
:10414000950BE817F907C8F4F093FD04E093FC041D
:10415000F901718360830FC0CB010E94DD1E7C01D9
:10416000009759F0A801BE010E94C920CE010E940B
:10417000751FC70104C0CE0102C080E090E0CDB73A
:10418000DEB7EEE00C94EB1C81E090E0F8940C9428
:10419000F120FB01DC0102C001900D924150504022
:1041A000D8F70895FB01DC018D9101908019011071
:1041B000D9F3990B0895FB01DC0101900D920020C9
:1041C000E1F70895FB01DC014150504048F00190B7
:1041D0000D920020C9F701C01D9241505040E0F7F8
:1041E000089510E0C2E7D0E004C0FE010E94D71E8F
:0C41F0002196C337D107C9F7F894FFCF20
:1041FC000101010101000000000000000000D909CC
:10420C00D90901010000803F0100020003000400F5
:10421C0005000000000580005E00BC007701000076
:10422C000000C10ADA09040A0E0B4210130A270A0D
:10423C00000000007110DA09FA107010C110D910CA
:10424C0058102A2A4355494441444F3A204E6F2076
:10425C006861792070726F78696D696461642A2A6B
:10426C00202D2D202A2A4355494441444F3A204EB3
:10427C006F206861792070726F78696D6964616410
:10428C002A2A000D0A00415400736574757020745D
:10429C0065726D696E61646F004F4B0041542B4920
:1042AC004245320041542B494245330030300041E5
:1042BC00542B414444523F0041542B494245303029
:1042CC00303030373036370041542B4942453100BD
:0442DC003836000070
:107E0000112484B714BE81FFF0D085E080938100F7
:107E100082E08093C00088E18093C10086E0809377
:107E2000C20080E18093C4008EE0C9D0259A86E02C
:107E300020E33CEF91E0309385002093840096BBD3
:107E4000B09BFECF1D9AA8958150A9F7CC24DD24C4
:107E500088248394B5E0AB2EA1E19A2EF3E0BF2EE7
:107E6000A2D0813461F49FD0082FAFD0023811F036
:107E7000013811F484E001C083E08DD089C08234E0
:107E800011F484E103C0853419F485E0A6D080C0E4
:107E9000853579F488D0E82EFF2485D0082F10E0AE
:107EA000102F00270E291F29000F111F8ED06801E7
:107EB0006FC0863521F484E090D080E0DECF843638
:107EC00009F040C070D06FD0082F6DD080E0C81688
:107ED00080E7D80618F4F601B7BEE895C0E0D1E017
:107EE00062D089930C17E1F7F0E0CF16F0E7DF06D8
:107EF00018F0F601B7BEE89568D007B600FCFDCFD4
:107F0000A601A0E0B1E02C9130E011968C91119780
:107F100090E0982F8827822B932B1296FA010C0160
:107F200087BEE89511244E5F5F4FF1E0A038BF0790
:107F300051F7F601A7BEE89507B600FCFDCF97BE46
:107F4000E89526C08437B1F42ED02DD0F82E2BD052
:107F50003CD0F601EF2C8F010F5F1F4F84911BD097
:107F6000EA94F801C1F70894C11CD11CFA94CF0C13
:107F7000D11C0EC0853739F428D08EE10CD085E9AC
:107F80000AD08FE07ACF813511F488E018D01DD067
:107F900080E101D065CF982F8091C00085FFFCCF94
:107FA0009093C60008958091C00087FFFCCF809118
:107FB000C00084FD01C0A8958091C6000895E0E648
:107FC000F0E098E1908380830895EDDF803219F02E
:107FD00088E0F5DFFFCF84E1DECF1F93182FE3DFCA
:107FE0001150E9F7F2DF1F91089580E0E8DFEE27F6
:047FF000FF270994CA
:027FFE00040479
:0400000300007E007B
:00000001FF
