:100000000C9473000C9413130C94EC120C943A138C
:100010000C943A130C943A130C949B000C949B0090
:100020000C949B000C949B000C949B000C949B00E4
:100030000C949B000C949B000C949B000C949B00D4
:100040000C94A2120C949B000C9470120C944A1203
:100050000C949B000C949B000C949B000C949B00B4
:100060000C949B000C949B00005EBCE2613FDD831E
:10007000C29C7E20A3FD1F41009D23BE46DB65F888
:100080008C11AF32CA57E974000000002400270029
:100090002A0000000008000201000003040700001D
:1000A00000000000000000000000230026002900DE
:1000B00000000000250028002B00040404040404B0
:1000C0000404020202020202030303030303010207
:1000D00004081020408001020408102001020408D6
:1000E0001020F613B21311241FBECFEFD8E0DEBFED
:1000F000CDBF11E0A0E0B1E0E2E7F0E402C005907E
:100100000D92AE39B107D9F724E0AEE9B1E001C0F4
:100110001D92AD3BB207E1F710E0C2E7D0E004C0AA
:100120002197FE010E941C1EC137D107C9F70E940A
:1001300078170C942C200C94000080912D04909141
:100140002E04892B59F1E091BA03F091BB0384E0AE
:10015000E331F80719F1309739F0A389B4899C91FC
:100160008589809589238C93809131048E7F80933B
:10017000310410924C0210924B0283E194E0909370
:10018000BB038093BA03E0912604F0912704808199
:1001900090912804892B808381E0089580E0089560
:1001A0000895AF92BF92CF92DF92EF92FF920F939A
:1001B0001F93CF93DF936C017B018B01040F151FFD
:1001C000EB015E01AE18BF08C017D10759F0699165
:1001D000D601ED91FC910190F081E02DC6010995C9
:1001E000892B79F7C501DF91CF911F910F91FF9076
:1001F000EF90DF90CF90BF90AF900895FC01538DAA
:10020000448D252F30E0842F90E0821B930B5417F0
:1002100010F0CF96089501970895FC01918D828D7D
:10022000981761F0A28DAE0FBF2FB11D5D968C9116
:10023000928D9F5F9F73928F90E008958FEF9FEF55
:100240000895FC01918D828D981731F0828DE80F11
:10025000F11D858D90E008958FEF9FEF0895FC01CB
:10026000918D228D892F90E0805C9F4F821B910998
:100270008F739927089581E592E00E942F0121E074
:10028000892B09F420E0822F089580E090E0892BEB
:1002900029F00E943B0181110C9400000895FC019B
:1002A000A48DA80FB92FB11DA35ABF4F2C91848DD7
:1002B00090E001968F739927848FA689B7892C9334
:1002C000A089B1898C91837080648C93938D848D87
:1002D000981306C00288F389E02D80818F7D80838A
:1002E0000895EF92FF920F931F93CF93DF93EC014A
:1002F00081E0888F9B8D8C8D98131AC0E889F989CD
:10030000808185FF15C09FB7F894EE89FF896083CF
:10031000E889F98980818370806480839FBF81E050
:1003200090E0DF91CF911F910F91FF90EF90089592
:10033000F62E0B8D10E00F5F1F4F0F731127E02E6D
:100340008C8D8E110CC00FB607FCFACFE889F989A5
:10035000808185FFF5CFCE010E944F01F1CFEB8D5B
:10036000EC0FFD2FF11DE35AFF4FF0829FB7F89479
:100370000B8FEA89FB8980818062CFCFCF93DF9397
:10038000EC01888D8823B9F0AA89BB89E889F989AD
:100390008C9185FD03C0808186FD0DC00FB607FCE2
:1003A000F7CF8C9185FFF2CF808185FFEDCFCE0115
:1003B0000E944F01E9CFDF91CF910895833081F002
:1003C00028F4813099F08230A9F008958730A9F09F
:1003D0008830C9F08430B1F4809180008F7D03C0F3
:1003E000809180008F7780938000089584B58F7707
:1003F00084BD089584B58F7DFBCF8091B0008F7749
:100400008093B00008958091B0008F7DF9CFCF9395
:10041000DF93282F30E0F901EE56FF4F8491F90168
:10042000E253FF4FD491F901E654FF4FC491CC231E
:10043000A1F081110E94DE01EC2FF0E0EE0FFF1F12
:10044000EA55FF4FA591B491EC91ED2381E090E046
:1004500009F480E0DF91CF91089580E090E0FACF39
:1004600089E00E940702019719F41092B6010895DD
:1004700081E08093B60108951F93CF93DF93282FD7
:1004800030E0F901EE56FF4F8491F901E253FF4F3E
:10049000D491F901E654FF4FC491CC23A9F0162F53
:1004A00081110E94DE01EC2FF0E0EE0FFF1FE055FE
:1004B000FF4FA591B4918FB7F894EC91111108C03A
:1004C000D095DE23DC938FBFDF91CF911F910895EC
:1004D000DE2BF8CFEEE9F4E0108213861486158641
:1004E0001686108A178660E08AE00C943C02CF934F
:1004F000DF9390E0FC01E253FF4F249186549F4F1D
:10050000FC0184918823D1F090E0880F991FFC01B1
:10051000E857FF4FA591B491FC01E055FF4FC591FD
:10052000D49161110EC09FB7F8948C91E22FE095A1
:100530008E238C932881E223E8839FBFDF91CF91A4
:1005400008958FB7F894EC91E22BEC938FBFF6CF20
:100550008E3008F08E502091170190E4299F900171
:1005600011248770822B80937C0080917A008064B4
:1005700080937A0080917A0086FDFCCF809178008C
:100580009091790008953FB7F89480910D02909171
:100590000E02A0910F02B091100226B5A89B05C0D3
:1005A0002F3F19F00196A11DB11D3FBFBA2FA92FF2
:1005B000982F8827BC01CD01620F711D811D911DEF
:1005C00042E0660F771F881F991F4A95D1F708955B
:1005D0008F929F92AF92BF92CF92DF92EF92FF9253
:1005E0006B017C010E94C3024B015C01C114D10468
:1005F000E104F104B9F00E94C302681979098A097B
:100600009B09683E73408105910580F321E0C21A81
:10061000D108E108F10888EE880E83E0981EA11C3D
:10062000B11CE4CFFF90EF90DF90CF90BF90AF90E0
:100630009F908F9008952FB7F89460910902709160
:100640000A0280910B0290910C022FBF0895089529
:100650002091BA033091BB032817390771F49091A8
:100660004B0280914C02981741F0E0914B02F0E070
:10067000E853FE4F808190E008958FEF9FEF08953B
:100680000895EF92FF920F931F93CF93DF93DC01B6
:100690005C96ED90FC905D97E114F10479F481E0B3
:1006A00090E013969C938E93129790E080E0DF91F8
:1006B000CF911F910F91FF90EF9008955196ED917A
:1006C000FC91529750968C915097982F90950FB718
:1006D0005E962C915E97122F127021FD6095F89412
:1006E0002081112319F1282B2083E7012197F1F7AD
:1006F00028E0462F50E0308160FF1AC0382B30834D
:10070000E7012197F1F7BA0175956795215089F7AF
:10071000112381F08081892380830FBF5C968D91A6
:100720009C910197F1F781E090E0C1CF2923DCCFC4
:100730003923E5CF9081892BEFCF2091BA033091F7
:10074000BB032817390771F480914C0220914B02AA
:1007500090E0805C9F4F821B910960E470E00E94F2
:10076000ED1D089590E080E008952091BA03309146
:10077000BB0328173907B9F490914B0280914C02C2
:10078000981789F0E0914B02F0E0E853FE4F80812A
:1007900020914B0230E02F5F3F4F2F733327209380
:1007A0004B0290E008958FEF9FEF089590E080E076
:1007B00008958091BA019091BB018B30910524F08E
:1007C0009093B8018093B7011092BB011092BA01C7
:1007D0001092B9011092680410927304109274047C
:1007E0001092750410927604109278041092770497
:1007F0001092BF0108950F931F93CF93DF93FC01D5
:100800002081222309F454C0EC018185928501974F
:10081000C9F50E941B030B891C892D893E89601B29
:10082000710B820B930B09811A812B813C8160171C
:10083000710782079307E0F10E941B036B8B7C8B8F
:100840008D8B9E8B8B859C85AD85BE854D815E8114
:100850006F817885481B590B6A0B7B0B4130510522
:100860006105710509F418820196A11DB11D8B87E0
:100870009C87AD87BE87E989FA89DF91CF911F9167
:100880000F9109940E94C3020B891C892D893E890E
:10089000601B710B820B930B09811A812B813C81A8
:1008A000601771078207930718F00E94C302C6CF32
:1008B000DF91CF911F910F910895CF93DF93FC01AA
:1008C00021893289232BA9F0EC018185928501973A
:1008D00099F40E941B036B8B7C8B8D8B9E8B81E02C
:1008E00088831B861C861D861E8681E090E0988B7F
:1008F0008F87DF91CF9108950E94C302ECCF4F9272
:100900005F926F927F928F929F92AF92BF92CF929F
:10091000DF92EF92FF92CF93DF9361E08AE00E9433
:100920003C026AE070E080E090E00E94E802C4E1EE
:10093000D0E080E10E94A802BC01990F880B990BBE
:100940000E94D41A209147023091480240914902F6
:1009500050914A020E94791C4B015C01809247022F
:1009600090924802A0924902B0924A0281E10E940C
:10097000A802BC01990F880B990B0E94D41A2091F0
:1009800043023091440240914502509146020E9438
:10099000791C6B017C01C0924302D0924402E09228
:1009A0004502F092460282E10E94A802BC01990F22
:1009B000880B990B0E94D41A20913F02309140027B
:1009C00040914102509142020E94791C2B013C014E
:1009D00040923F0250924002609241027092420265
:1009E000219709F0A6CF20E030E040EA51E4C501AC
:1009F000B4010E94E51C6093470270934802809303
:100A0000490290934A0220E030E040EA51E4C701F5
:100A1000B6010E94E51C60934302709344028093E8
:100A200045029093460220E030E040EA51E4C301E1
:100A3000B2010E94E51C60933F02709340028093D4
:100A40004102909342028EE994E0DF91CF91FF90B2
:100A5000EF90DF90CF90BF90AF909F908F907F905E
:100A60006F905F904F900C945D048091BF0188233C
:100A700091F180E00E94A802893E934034F1809178
:100A8000BD019091BE0101969093BE018093BD017E
:100A900006970CF18091BC0181110CC081E080931C
:100AA000BC018091BA019091BB0101969093BB016A
:100AB0008093BA018091B90181110DC081E08093CA
:100AC000B90188E694E00C945D041092BC01109288
:100AD000BE011092BD010895DC0180E0615090F0EC
:100AE0009D919827E92FEF70F0E0E859FF4F24918E
:100AF000E92FE295EF70F0E0E858FF4FE491822F84
:100B00008E27ECCF0895DC012C911196ED91FC918C
:100B1000F8948181822B81839281322F30959323A7
:100B2000928387E090E00197F1F7818183238183AD
:100B300083E290E00197F1F790817894EFECF0E098
:100B40003197F1F7922381E009F480E00895FC01E8
:100B500090810180F281E02D292F209560FF14C043
:100B6000F8948281822382838181892B8183A3E20D
:100B7000B0E01197F1F78281982B9283789487EDFA
:100B800090E00197F1F70895F8948281822382839F
:100B90008181892B8183AFEFB0E01197F1F78281DA
:100BA000982B928378948FE090E0EBCFDF92EF92D6
:100BB000FF920F931F93CF93DF93EC01D62EE42E79
:100BC00008E010E0FF24F39461E08D2D8F2109F4FB
:100BD00060E0CE010E94A705FF0C01501109A1F7AA
:100BE000E11010C0F894E981FA81918188818095A3
:100BF00089238183E981FA81928188818095892383
:100C000082837894DF91CF911F910F91FF90EF90A5
:100C1000DF900895EF92FF920F931F93CF93DF938E
:100C20008C017B0140E065E50E94D605E70188E084
:100C3000E80EF11C699140E0C8010E94D605CE156E
:100C4000DF05C1F7DF91CF911F910F91FF90EF90DA
:100C50000895FC0190810180F281E02DF89481815A
:100C6000292F20958223818378943DE743E050E04B
:100C7000315029F1DA011197F1F780818923C1F30D
:100C8000F8948281822382838181892B8183789465
:100C9000ABE7B7E01197F1F7F89481818223818364
:100CA000A3E1B1E01197F1F78081982381E009F089
:100CB00080E07894E3E6F6E03197F1F7089580E07C
:100CC0000895AF92BF92CF92DF92EF92FF920F936F
:100CD0001F93CF93DF938B01BC018091F40290911D
:100CE000F5020E940A0640E06EEB8091F4029091BA
:100CF000F5020E94D605E801680189E0C80ED11C02
:100D0000A090F402B090F50288E0E82EF12C10E0FB
:100D100001E0C5010E9483058111102B000F81E0C5
:100D2000E81AF108B1F71993CC16DD0649F780915E
:100D3000F4029091F5020E94290691E0813009F0B9
:100D400090E0892FDF91CF911F910F91FF90EF904D
:100D5000DF90CF90BF90AF9008950F931F93CF93E4
:100D6000DF93CDB7DEB729970FB6F894DEBF0FBE7D
:100D7000CDBF8C018091F4029091F5020E9429066A
:100D8000811102C080E01FC0BE016F5F7F4FC801AC
:100D90000E9461068823B1F368E0CE0101960E94AB
:100DA0006C0599858913EECF8D818F33B9F020F4CE
:100DB0008F3141F789E007C08F3521F08F3711F768
:100DC0008CE001C08BE029960FB6F894DEBF0FBE11
:100DD000CDBFDF91CF911F910F9108958AE0F3CF9E
:100DE00060E08FE00E943C02E9E3F2E010821182B1
:100DF000128213821482ECEBF3E0108213861486C5
:100E000015861686108A17860895CF92DF92EF9284
:100E1000FF920F931F9380913902882389F180916B
:100E20003E0296EBC92E93E0D92EE12CF12C8823BB
:100E300031F082ECC82EDD24D394E12CF12C0E94F9
:100E40001B032EE0C20E21E0D21EE11CF11C00911A
:100E50004D0210914E0220914F0230915002601BC2
:100E6000710B820B930B6C157D058E059F0540F071
:100E70001F910F91FF90EF90DF90CF900C94F006B0
:100E80001F910F91FF90EF90DF90CF900895CF9337
:100E900080910801882309F44AC083E10E94A802D6
:100EA0002091B0013091B1012817390724F49093B3
:100EB000B1018093B001C1E0C093170110921D02EF
:100EC000A091B001B091B1012AE230E00E94011E70
:100ED0002FEF33E040E050E00E94F11BCA01B9015E
:100EE0000E94D41A20E030E040E251E40E94E51C68
:100EF0006093190170931A0180931B0190931C0158
:100F000010920801C093040180913403909135033D
:100F1000892B09F0BDC080E197E2A0E0B0E08093AA
:100F20002C0390932D03A0932E03B0932F03809155
:100F30000701882331F183E10E94A8022091B001CA
:100F40003091B1018217930724F09093B1018093FF
:100F5000B00181E080930801109207018091340371
:100F600090913503892B09F098C080E593ECA0E0BF
:100F7000B0E080932C0390932D03A0932E03B093A5
:100F80002F0380910601882331F183E10E94A8029A
:100F90002091B0013091B1018217930724F0909312
:100FA000B1018093B00181E08093070110920601A6
:100FB0008091340390913503892B09F073C080E54B
:100FC00093ECA0E0B0E080932C0390932D03A093CA
:100FD0002E03B0932F0380910501882331F183E123
:100FE0000E94A8022091B0013091B10182179307AD
:100FF00024F09093B1018093B00181E080930601C9
:10100000109205018091340390913503892B09F0EA
:101010004EC080E593ECA0E0B0E080932C03909369
:101020002D03A0932E03B0932F03809104018823F6
:1010300069F18091360390913703A0913803B09104
:1010400039030197A105B10509F583E080931701E4
:1010500083E10E94A8029093B1018093B00181E0E6
:10106000809305011092040180913403909135031F
:10107000892B11F580EA96E8A1E0B0E080932C037B
:1010800090932D03A0932E03B0932F03CF91089537
:101090008AE090E0A0E0B0E042CF82E390E0A0E000
:1010A000B0E067CF82E390E0A0E0B0E08CCF82E3D5
:1010B00090E0A0E0B0E0B1CF84E690E0A0E0B0E046
:1010C000DDCF8091AF018823F1F0809118028093E9
:1010D00034021092AF0181E080930301109211025B
:1010E00080914F0390915003892B09F074C080E1E7
:1010F00097E2A0E0B0E08093470390934803A09369
:101100004903B0934A038091AE018823D1F00E9435
:101110006A021092AE0181E08093AF0180914F038B
:1011200090915003892B09F05BC080E197E2A0E029
:10113000B0E08093470390934803A0934903B09392
:101140004A038091AD018823E1F0809111028093E0
:1011500018021092AD0181E08093AE0180914F039F
:1011600090915003892B09F040C080E197E2A0E004
:10117000B0E08093470390934803A0934903B09352
:101180004A0380910301882329F1809151039091B2
:101190005203A0915303B09154030197A105B105E7
:1011A000C9F40E947F0481E08093AD011092030195
:1011B00080914F0390915003892BE1F480EE93E9E5
:1011C000A4E0B0E08093470390934803A0934903C1
:1011D000B0934A0308958AE090E0A0E0B0E08BCF9E
:1011E0008AE090E0A0E0B0E0A4CF8AE090E0A0E048
:1011F000B0E0BFCF8CE291E0A0E0B0E0E3CF80911F
:10120000AC01882301F18091AA019091AB019093E8
:101210003702809336021092AC0181E08093020184
:1012200080916A0390916B03892B09F0AEC080E135
:1012300097E2A0E0B0E08093620390936303A093F1
:101240006403B09365038091A9018823C9F11092CA
:101250006804109273041092740410927504109232
:1012600076041092780410927704109283041092FE
:101270008E0410928F041092900410929104109298
:1012800093041092920460E08091B8030E943C02A3
:101290001092A90181E08093AC0180916A03909142
:1012A0006B03892B09F076C080E197E2A0E0B0E003
:1012B0008093620390936303A0936403B0936503E8
:1012C0008091A801882321F18091B7019091B80104
:1012D000880F991F880F991F9093AB018093AA01E3
:1012E0001092A80181E08093A90180916A039091F6
:1012F0006B03892B09F053C080E197E2A0E0B0E0D6
:101300008093620390936303A0936403B093650397
:10131000809102018823C1F180916C0390916D034B
:10132000A0916E03B0916F030197A105B10561F51E
:1013300061E08091B8030E943C026AE070E080E0C6
:1013400090E00E94E80283E894E00E945D0410921D
:10135000BE011092BD0181E08093BF018093A8017E
:101360001092020180916A0390916B03892BE1F442
:1013700080E094E2A4EFB0E0809362039093630373
:10138000A0936403B093650308958AE090E0A0E021
:10139000B0E051CF8AE090E0A0E0B0E089CF8AE0F1
:1013A00090E0A0E0B0E0ACCF80E89EE3A0E0B0E049
:1013B000E3CF8091A701882341F18091A30190910F
:1013C000A401A091A501B091A60180933002909351
:1013D0003102A0933202B09333021092A70181E050
:1013E000809301018091850390918603892B09F0F8
:1013F0009CC080E197E2A0E0B0E080937D039093F1
:101400007E03A0937F03B09380038091A201882381
:1014100051F160E085E00E943C021092320410928B
:101420003D0410923E0410923F041092400410922A
:101430004204109241041092A20181E08093A7011E
:101440008091850390918603892B09F073C080E118
:1014500097E2A0E0B0E080937D0390937E03A09399
:101460007F03B09380038091A101882341F1809193
:10147000B2019091B301A091B401B091B5018093F4
:10148000A3019093A401A093A501B093A60110928B
:10149000A10181E08093A201809185039091860350
:1014A000892B09F04CC080E197E2A0E0B0E0809386
:1014B0007D0390937E03A0937F03B093800380917C
:1014C0000101882389F18091870390918803A0917D
:1014D0008903B0918A030197A105B10529F561E05F
:1014E00085E00E943C026AE070E080E090E00E94AB
:1014F000E80282E394E00E945D041092010181E021
:101500008093A1018091850390918603892BE1F45A
:1015100080EC9FECAAE6B0E080937D0390937E037D
:10152000A0937F03B093800308958AE090E0A0E049
:10153000B0E063CF8AE090E0A0E0B0E08CCF8AE03A
:1015400090E0A0E0B0E0B3CF88E59BE1A0E0B0E0A0
:10155000E3CF8091A0018823E1F08091260280935F
:1015600035021092A00181E0809300018091A003D8
:101570009091A103892B09F090C080E197E2A0E04F
:10158000B0E08093980390939903A0939A03B0934B
:101590009B0380919F01882351F110924D0410927A
:1015A00058041092590410925A0410925B0410923D
:1015B0005D0410925C0460E088E00E943C0210929E
:1015C0009F0181E08093A0018091A0039091A103ED
:1015D000892B09F067C080E197E2A0E0B0E080933A
:1015E000980390939903A0939A03B0939B038091DF
:1015F0009E018823E1F08091B6018093260210922B
:101600009E0181E080939F018091A0039091A103AE
:10161000892B09F04CC080E197E2A0E0B0E0809314
:10162000980390939903A0939A03B0939B0380919E
:101630000001882389F18091A2039091A303A091D6
:10164000A403B091A5030197A105B10529F561E0B7
:1016500088E00E943C026AE070E080E090E00E9436
:10166000E8028DE494E00E945D041092000181E0A4
:1016700080939E018091A0039091A103892BE1F4B6
:1016800080EF99E4A2E0B0E08093980390939903EF
:10169000A0939A03B0939B0308958AE090E0A0E0A2
:1016A000B0E06FCF8AE090E0A0E0B0E098CF8AE0B1
:1016B00090E0A0E0B0E0B3CF86E990E0A0E0B0E039
:1016C000E3CF82E00E940702892B31F410922F02AF
:1016D00061E08FE00C943C0260E08FE00E943C02ED
:1016E00081E080932F020895BF92CF92DF92EF9214
:1016F000FF920F931F93CF93DF93EC01B62EC72E6B
:101700008D85811105C0CE010E94290681110EC070
:101710001B861D861C8680E0DF91CF911F910F9163
:10172000FF90EF90DF90CF90BF90089540E060EF82
:10173000CE010E94D60501E0E12CD12C11E0CE01B2
:101740000E948305F82ECE010E94830591E0F912D4
:1017500018C0813099F51134D8F2DB86D11002C05F
:1017600081E08D878B81882399F22396EB2DFC2DC8
:10177000CF01089629912193E817F907D9F781E05D
:10178000CBCFEE2DF0E0F8120FC08B851817A0F428
:10179000DE01AE0FBF1F13968C91802379F4F12CDC
:1017A000193008F41C87D12EEC0FFD1F8381902F78
:1017B0009095892383830AC08113F1CFFE01EE0D3A
:1017C000F11D8381802B8383FF24F3946F2DCE0141
:1017D0000E94A7051F5F000F11F4E39401E087E06A
:1017E0008E1508F0ACCFB7CF8F929F92AF92BF9279
:1017F000CF92DF92EF92FF920F931F93CF93DF93DD
:10180000CDB7DEB761970FB6F894DEBF0FBECDBF80
:101810008091F4029091F5020E94290640E06CEC60
:101820008091F4029091F5020E94D6054091EE025B
:1018300064E48091F4029091F5020E94D6058091B3
:10184000F002882391F1E091EF02E9500EEE12E0F0
:10185000E33038F4F0E0EE0FFF1FED5DFE4F008146
:1018600011818091F102882309F458C08091EE0221
:10187000811154C00E941B034B015C016801110FD0
:10188000EE08FF088091F4029091F5020E94830512
:10189000813059F00E941B036C197D098E099F0944
:1018A000681579058A059B0568F3E091F402F091CB
:1018B000F502138615861486128611861086178205
:1018C0001682158214821382BE01665F7F4F80915B
:1018D000F4029091F5020E94740B811126C060E021
:1018E00070E08EEF92EC6093B2017093B30180933D
:1018F000B4019093B50161960FB6F894DEBF0FBEA8
:10190000CDBFDF91CF911F910F91FF90EF90DF90AE
:10191000CF90BF90AF909F908F900895B801110F16
:10192000880B990B0E94E802C0CF67E0CE010A96AF
:101930000E946C0599898913D2CF8091F40290910D
:10194000F5020E942906882351F2BE016F5F7F4F86
:10195000CE010A960E946106882309F268E0CE0152
:1019600001960E946C0599858913B9CF6A8170E050
:10197000762F6627770F770F770F298148E0249F0E
:1019800090011124262B372B8A858031D1F468856C
:1019900070E08F81AB01481B5109CA019695982FC1
:1019A0008827979587950E94ED1DCB014097B90137
:1019B00053E0660F771F5A95E1F760789C01260F78
:1019C000371F213854EE35070CF489CFB901330F96
:1019D000880B990B0E94D41A20E030E040E05CE3D1
:1019E0000E94331B80CF0F931F93CF93DF93FC0193
:1019F000048115810115110539F4FB011082DF9175
:101A0000CF911F910F9108950131110510F001E15F
:101A100010E0EB01FC0160817181A801CE010E9400
:101A20001D20C00FD11F1882EACFFB0101900020BA
:101A3000E9F73197AF01461B570BDC01ED91FC91A3
:101A40000280F381E02D0994CF93DF93BC0181E5FF
:101A500092E00E94150DEC016DE471E081E592E0E9
:101A60000E94150D8C0F9D1FDF91CF91089561E0AD
:101A70008FE00E943C020E941B0360934D02709312
:101A80004E0280934F02909350026EE071E080E02E
:101A900090E00E94E80260E571E083E194E00E943A
:101AA000150D8CEB93E00C945D040C94370D0F93A3
:101AB0001F93CF93DF938C01EB01FC018081918117
:101AC0000097E1F06881798161157105A9F0428183
:101AD00053812C813D814217530770F00E941620DC
:101AE0008C819D81F801958384831D821C82DF9106
:101AF000CF911F910F9108950E94BE1E88819981F8
:101B0000F801918380838A819B81938382838C8176
:101B10009D8195838483198218821B821A82E5CF66
:101B2000CF93DF93EC0188819981009711F00E9497
:101B3000BE1E198218821D821C821B821A82DF91AE
:101B4000CF910895FC0180819181009711F00C9450
:101B5000BE1E08950F931F93CF93DF93EC018881EE
:101B60009981009759F02A813B812617370730F079
:101B700081E0DF91CF911F910F9108958B016F5FED
:101B80007F4F0E94471F009759F0998388831B83DA
:101B90000A832C813D81232B59F7FC011082E8CF69
:101BA00080E0E7CFEF92FF920F931F93CF93DF93E5
:101BB0008C017B01EB0109900020E9F72197C61BFE
:101BC000D70BBE010E94AA0D811109C0C801DF9187
:101BD000CF911F910F91FF90EF900C94900DF80111
:101BE000D583C483B70180819181DF91CF911F910B
:101BF0000F91FF90EF900C9416200F931F93CF93AB
:101C0000DF93CDB7DEB762970FB6F894DEBF0FBE95
:101C1000CDBF8C01CB01F801118210821382128298
:101C2000158214824AE0BE016F5F7F4F0E949D1AA9
:101C3000BE016F5F7F4FC8010E94D20D62960FB642
:101C4000F894DEBF0FBECDBFDF91CF911F910F91F2
:101C50000895EF92FF920F931F93CF93DF93611537
:101C6000710541F480E0DF91CF911F910F91FF90BA
:101C7000EF90089541155105B1F07B01EC010C8105
:101C80001D81040F151FB8010E94AA0D882351F36E
:101C9000288139818C819D81B701820F931F0E9419
:101CA00016201D830C8381E0DECFFB010190002014
:101CB000E9F73197AF01461B570B0C94290EFB0136
:101CC00044815581608171810C94290EEF92FF92BD
:101CD0000F931F93CF93DF93EC017B01198218823E
:101CE0001B821A821D821C82FB0101900020E9F7F1
:101CF00031978F01061B170BB8010E94AA0D8111A5
:101D000009C0CE01DF91CF911F910F91FF90EF900D
:101D10000C94900D1D830C83B70188819981DF910C
:101D2000CF911F910F91FF90EF900C941620AF92DE
:101D3000BF92CF92DF92EF92FF920F931F93CF93B8
:101D4000DF936C015B017A0189012417350720F4C8
:101D50008F2D7901042F182F6FE471E0C6010E94C6
:101D6000660ED5011496CD91DC91EC16FD06E0F4DB
:101D70000C171D0708F4E801D501ED91FC911197AE
:101D8000EC0FFD1F108110826D917C916E0D7F1DF7
:101D9000C60161157105A1F00E94D20DF501808187
:101DA0009181C80FD91F1883C601DF91CF911F9170
:101DB0000F91FF90EF90DF90CF90BF90AF9008957C
:101DC0000E94900DEBCFCF93DF93CDB7DEB7A497F2
:101DD0000FB6F894DEBF0FBECDBF8CEB93E00E9430
:101DE000FB030E949D0083E194E00E949D03892BE8
:101DF00009F4C5C06FE471E0CE014F960E94660EF3
:101E000083E194E00E949D03892B29F183E194E012
:101E10000E94B5031A8219821C821B821E821D82B7
:101E20008B8B1C8ABE016D5E7F4FCE0101960E9496
:101E3000D20DBE016F5F7F4FCE014F960E945F0EA5
:101E4000CE0101960E94A20D61E070E080E090E07A
:101E50000E94E802D5CF80913E02882309F472C027
:101E600080913902811121C08BA19CA1892B71F035
:101E700063E571E08F8D98A10E940D20892B31F4CC
:101E800081E080933902109238020FC080913802AD
:101E90008330C8F760E571E083E194E00E94150D9E
:101EA000809138028F5F80933802809139028823B5
:101EB00009F444C080913C0281116AC066E571E07A
:101EC00089EE93E00E94D20D67ED73E089EE93E016
:101ED0000E945F0E20E030E040E251E46091190181
:101EE00070911A0180911B0190911C010E94331B7B
:101EF0000E94571DCE0143960E94FD0DBE016D5EEE
:101F00007F4F89EE93E00E945F0EBE016F5F7F4FAF
:101F100089EE93E00E94F30CBE016F5F7F4F83E177
:101F200094E00E94150D81E080933C02CE01019661
:101F30000E94240DCE0143960E94A20D80913E0284
:101F4000811119C0809139028111DFC08BA19CA140
:101F5000892B89F063E571E08F8D98A10E940D2097
:101F6000892B49F469E671E083E194E00E94150D44
:101F700081E080933902CE014F960E94A20DA49673
:101F80000FB6F894DEBF0FBECDBFDF91CF9108959D
:101F900080913D028111B6C06EE571E083EE93E061
:101FA0000E94D20D6091360270913702CE0149969F
:101FB0000E94FD0D8D8D9E8D83309105E8F466E6BF
:101FC00071E0029711F467E671E0CE0149960E9434
:101FD000D20D6091360270913702CE0101960E94B7
:101FE000FD0DBE016F5F7F4FCE0149960E945F0ECF
:101FF000CE0101960E94A20DBE01675E7F4F83EE67
:1020000093E00E945F0E8091350268E871E08111D3
:1020100002C067E671E083EE93E00E94550E809166
:10202000340268E871E0811102C067E671E083EE76
:1020300093E00E94550E20E030E040E251E46091D0
:1020400030027091310280913202909133020E94ED
:10205000331B0E94571DCE0143960E94FD0D8F89B0
:10206000988D8330910548F566E671E0029711F48A
:1020700067E671E0CE0143960E94D20D20E030E089
:1020800040E251E46091300270913102809132025D
:10209000909133020E94331B0E94571DCE0101967E
:1020A0000E94FD0DBE016F5F7F4FCE0143960E94DF
:1020B0005F0ECE0101960E94A20DBE016D5E7F4FA4
:1020C00083EE93E00E945F0ECE0143960E94A20D24
:1020D000CE0149960E94A20DBE016F5F7F4F83EE35
:1020E00093E00E94F30CBE016F5F7F4F83E194E0A9
:1020F0000E94150D81E080933D02CE0101960E9461
:10210000240D1CCF0E94F00619CF80913A02811154
:102110005EC02BA13CA148E050E0BE01615E7F4F54
:10212000CE0101960E94970EBE016F5F7F4FCE01D8
:102130004F960E94570DCE0101960E94A20D26E0F7
:1021400030E050E040E0BE01615E7F4FCE0101967D
:102150000E94970EBE016F5F7F4F8DED93E00E944E
:10216000570DCE0101960E94A20D2BA13CA146E085
:1021700050E0BE01615E7F4FCE0101960E94970E36
:10218000BE016F5F7F4F87ED93E00E94570DCE0138
:1021900001960E94A20D62E771E085EF93E00E9434
:1021A000D20DBE016F5F7F4F85EF93E00E94F30C6D
:1021B000BE016F5F7F4F83E194E00E94150DCE0159
:1021C00001960E94240D81E080933A02D4CE809142
:1021D0003B028111D0CE62E871E08FEE93E00E9465
:1021E000D20D6AE871E08FEE93E00E94550E6DED1E
:1021F00073E08FEE93E00E945F0EBE016F5F7F4F32
:102200008FEE93E00E94F30CBE016F5F7F4F83E17E
:1022100094E00E94150DCE0101960E94240D81E0EC
:1022200080933B0280933E02A6CE8F929F92AF9204
:10223000BF92CF92DF92EF92FF920F931F93CF93B3
:10224000DF938091C70181110FC08091110281112C
:102250000BC082E10E94A802883E23E092070CF4A2
:10226000B2C081E0809312028091C701882309F4F3
:102270009DC005E010E0D0E0C0E080E10E94A8022F
:10228000BC01990F880B990B0E94D41A2091470228
:10229000309148024091490250914A020E94781CB4
:1022A0006B017C01BE01DD0F880B990B0E94D41AD3
:1022B0004B015C01A7019601C701B6010E94331BC7
:1022C0009B01AC01C501B4010E94791C0E94571DFD
:1022D000EB010150110989F6CB0165E070E00E9425
:1022E000ED1D7B0105E010E0D0E0C0E081E10E943F
:1022F000A802BC01990F880B990B0E94D41A209157
:1023000043023091440240914502509146020E949E
:10231000781C9B01AC010E94331B4B015C01BE0188
:10232000DD0F880B990B0E94D41A9B01AC01C501EB
:10233000B4010E94791C0E94571DEB010150110944
:10234000A9F6CB0165E070E00E94ED1D6E0D7F1DCA
:10235000072E000C880B990B0E94D41A0E94981D1E
:102360006B017C0120E030E0A9010E948D1D20E07E
:1023700030E040E05FE387FD4EC0C701B6010E9438
:10238000791C0E94571D8091C5019091C601FC01E6
:10239000EE0FFF1FE75FFE4F71836083019686306B
:1023A0009105F4F59093C6018093C501DF91CF911B
:1023B0001F910F91FF90EF90DF90CF90BF90AF9063
:1023C0009F908F900895BC01990F880B990B0E94E4
:1023D000D41A20913F023091400240914102509125
:1023E00042020E94781C20E030E048E952E40E945A
:1023F000E51C9B01AC010E94331B0E94981D20E04C
:1024000030E040E050E40E948D1D87FD2DCF81E03B
:102410008093C70129CFC701B6010E94781CB1CFB4
:102420001092C6011092C5012091C3013091C401E0
:10243000E9E0F1E043E151E08191919160817181A6
:10244000861B970B4996C39710F42F5F3F4F4E178B
:102450005F0791F723303105BCF081E08093C00124
:102460001092C4011092C3011092C2011092C101D6
:102470008091C001882359F081E08093110210926D
:10248000C7011092C00192CF1092C001E9CF109203
:10249000C7018CCF1F920F920FB60F9211242F936A
:1024A0003F934F935F936F937F938F939F93AF93DC
:1024B000BF93EF93FF9381E592E00E944F01FF915C
:1024C000EF91BF91AF919F918F917F916F915F91AC
:1024D0004F913F912F910F900FBE0F901F90189525
:1024E0001F920F920FB60F9211242F938F939F93E9
:1024F000EF93FF93E0916102F09162028081E0919D
:102500006702F091680282FD1BC0908180916A028F
:102510008F5F8F7320916B02821741F0E0916A0206
:10252000F0E0EF5AFD4F958F80936A02FF91EF9193
:102530009F918F912F910F900FBE0F901F90189524
:102540008081F4CF1F920F920FB60F9211242F9318
:102550003F938F939F93AF93BF9380910902909184
:102560000A02A0910B02B0910C023091080223E004
:10257000230F2D3758F50196A11DB11D2093080298
:102580008093090290930A02A0930B02B0930C026D
:1025900080910D0290910E02A0910F02B091100255
:1025A0000196A11DB11D80930D0290930E02A09380
:1025B0000F02B0931002BF91AF919F918F913F9105
:1025C0002F910F900FBE0F901F90189526E8230FA4
:1025D0000296A11DB11DD2CF1F920F920FB60F927E
:1025E00011242F933F934F935F936F937F938F9318
:1025F0009F93AF93BF93EF93FF93E0911501F091F9
:1026000016010995FF91EF91BF91AF919F918F9125
:102610007F916F915F914F913F912F910F900FBEDE
:102620000F901F9018951F920F920FB60F921124C2
:102630002F933F934F935F936F937F938F939F93CA
:10264000AF93BF93EF93FF93E0911301F0911401C7
:102650000995FF91EF91BF91AF919F918F917F91DC
:102660006F915F914F913F912F910F900FBE0F90FF
:102670001F9018951F920F920FB60F9211242F934F
:102680003F934F935F936F937F938F939F93AF93FA
:10269000BF93EF93FF93E091BA03F091BB033097A0
:1026A00049F0A685B7858585968D91FF14C09C91CC
:1026B0008923A1F4FF91EF91BF91AF919F918F91E9
:1026C0007F916F915F914F913F912F910F900FBE2E
:1026D0000F901F9018959C91892361F7A389B48965
:1026E0009C918589809589238C9386899789019708
:1026F000F1F7608D718DA685B785558538E020E0AE
:10270000CB010197F1F7822F90E095958795282FBF
:102710004C91452309F02068315091F7868D81FD59
:10272000209580914C0290E001968F73992730910B
:102730004B02381799F0A0914C02B0E0A853BE4F5D
:102740002C9380934C02828D938D0197F1F7A3898E
:10275000B4898C919589892B8C93ACCF868D8160BF
:10276000868FF1CF87ED93E00E94A20D8DED93E06F
:102770000E94A20D83EE93E00E94A20D89EE93E0E9
:102780000E94A20D8FEE93E00E94A20D85EF93E0D0
:102790000E94A20D8DE094E00E94A20D87E094E0DB
:1027A0000E94A20D81E094E00E94A20D8BEF93E0C5
:1027B0000E94A20D8FE391E0909314048093130480
:1027C0008091BA039091BB038351944071F4E091DE
:1027D0002604F09127049081809128048095892314
:1027E00080831092BB031092BA030895CF92DF92B8
:1027F000EF92FF92109254021092530298EEC92E5B
:1028000093E0D92EE12CF12CC0925502D0925602C1
:10281000E0925702F09258028DE291E090935202BA
:102820008093510285EC90E090935E0280935D026C
:1028300084EC90E09093600280935F0280EC90E0E3
:10284000909362028093610281EC90E09093640225
:102850008093630282EC90E090936602809365021D
:1028600086EC90E0909368028093670210926A026F
:1028700010926B0210926C0210926D021092A804DA
:102880001092A70480EF99E4A2E0B0E080939F0447
:102890009093A004A093A104B093A2041092A30467
:1028A0001092A4041092A5041092A60485E191E16F
:1028B0009093B0048093AF0410929E041092B104E0
:1028C0001092B2041092B3041092B4041092A904AE
:1028D0001092AA041092AB041092AC0410927204ED
:1028E0001092710480EC91EEA4EEB0E08093690444
:1028F00090936A04A0936B04B0936C0410926D04DF
:1029000010926E0410926F041092700489ED93E09F
:1029100090937A04809379041092680410927B0457
:1029200010927C0410927D0410927E041092730425
:1029300010927404109275041092760410928D0413
:1029400010928C0480E29EE4A0E0B0E080938404C6
:1029500090938504A0938604B09387041092880412
:102960001092890410928A0410928B0485E395E0FA
:10297000909395048093940410928304109296048B
:1029800010929704109298041092990410928E0459
:1029900010928F0410929004109291041092570498
:1029A0001092560480EA96E8A1E0B0E080934E04CD
:1029B00090934F04A0935004B0935104109252048A
:1029C00010925304109254041092550480E392E044
:1029D00090935F0480935E0410924D041092600403
:1029E00010926104109262041092630410925804D1
:1029F0001092590410925A0410925B0460E086E031
:102A00000E947702E4EDF0E0E491E0930203E0EC51
:102A1000F0E0E491F0E0EE0FFF1FEA55FF4F8591E3
:102A20009491909304038093030310920D031092EA
:102A30000F0310920E0310920C0310920B031092CE
:102A40000A031092090310920803109207031092D0
:102A500006031092050382E093E09093F5028093C1
:102A6000F4021092F2021092F3021092EE0289E048
:102A70008093EF0261E06093F0026093F1021092A4
:102A800001031092000310923C0410923B0480EC6E
:102A900096ECADE2B0E08093330490933404A093BD
:102AA0003504B09336041092370410923804109213
:102AB000390410923A0484EF9BE09093440480938D
:102AC000430410923204109245041092460410926E
:102AD00047041092480410923D0410923E04109254
:102AE0003F04109240041092160410921504C092F4
:102AF0001704D0921804E0921904F0921A048FE39C
:102B000091E0909314048093130410922A0410927D
:102B1000290410922C0410922B0410922E0410926F
:102B20002D041092300410922F04809131048E7F76
:102B30008D7F8093310486958170682783E00E94A1
:102B40003C0261E083E00E947702E1EDF0E0E49175
:102B5000E0932304EDEBF0E0E491F0E0EE0FFF1FD3
:102B6000E055FF4F85919491909325048093240420
:102B700060E084E00E9477028091310481FD04C00E
:102B800061E084E00E943C0284E080931F04E2ED57
:102B9000F0E0E491E0932004EEEBF0E0E491F0E06B
:102BA000EE0FFF1FEA55FF4F8591949190932204F9
:102BB0008093210469E771E08BEF93E00E94660E39
:102BC0006FE471E081E094E00E94660E6FE471E0D2
:102BD00087E094E00E94660E6FE471E08DE094E07F
:102BE0000E94660E6FE471E085EF93E00E94660E2E
:102BF0006FE471E08FEE93E00E94660E6FE471E087
:102C000089EE93E00E94660E6FE471E083EE93E03C
:102C10000E94660E6FE471E08DED93E00E94660EF7
:102C20006FE471E087ED93E00E94660E1092C60398
:102C30001092C50380E593ECA0E0B0E08093BD0363
:102C40009093BE03A093BF03B093C0031092C1033F
:102C50001092C2031092C3031092C40385E097E060
:102C60009093CE038093CD031092BC031092CF03B8
:102C70001092D0031092D1031092D2031092C70386
:102C80001092C8031092C9031092CA031092B203A3
:102C90001092B4031092B3031092B7038EE090E049
:102CA0009093B6038093B50387E090E09093B903C7
:102CB0008093B80361E00E94770221E030E0309316
:102CC000A1032093A0038AE090E0A0E0B0E080930D
:102CD000980390939903A0939A03B0939B0344E0C5
:102CE00050E060E070E040939C0350939D0360933C
:102CF0009E0370939F03E9EAFAE0F093A903E0933F
:102D0000A803109297031092AA031092AB0310929B
:102D1000AC031092AD031092A2031092A303109281
:102D2000A4031092A5033093860320938503809318
:102D30007D0390937E03A0937F03B0938003409321
:102D40008103509382036093830370938403E9EDBE
:102D5000F9E0F0938E03E0938D0310927C031092C0
:102D60008F0310929003109291031092920310928D
:102D70008703109288031092890310928A0330937C
:102D80006B0320936A038093620390936303A09381
:102D90006403B093650340936603509367036093A5
:102DA000680370936903EFEFF8E0F0937303E09327
:102DB00072031092610310927403109275031092C3
:102DC00076031092770310926C0310926D031092A9
:102DD0006E0310926F033093500320934F03809340
:102DE000470390934803A0934903B0934A03409349
:102DF0004B0350934C0360934D0370934E0341E695
:102E000058E0509358034093570310924603109292
:102E1000590310925A0310925B0310925C031092B4
:102E200051031092520310925303109254033093A3
:102E300035032093340380932C0390932D03A093A8
:102E40002E03B0932F038093300390933103A0930C
:102E50003203B093330347E457E050933D0340936C
:102E60003C0310922B0310923E0310923F031092EA
:102E700040031092410310923603109237031092D0
:102E800038031092390330931A0320931903809367
:102E9000110390931203A0931303B093140381E0E2
:102EA00090E0A0E0B0E08093150390931603A09308
:102EB0001703B093180385E59DE090932203809358
:102EC00021031092100310922303109224031092F6
:102ED00025031092260310921B0310921C031092DC
:102EE0001D0310921E03FF90EF90DF90CF90089586
:102EF000CF93DF93CDB7DEB728970FB6F894DEBF38
:102F00000FBECDBF789484B5826084BD84B58160E6
:102F100084BD85B5826085BD85B5816085BD8091A4
:102F20006E00816080936E0010928100809181001C
:102F30008260809381008091810081608093810014
:102F4000809180008160809380008091B1008460D6
:102F50008093B1008091B00081608093B000809137
:102F60007A00846080937A0080917A0082608093F6
:102F70007A0080917A00816080937A0080917A0053
:102F8000806880937A001092C100E0916102F09114
:102F9000620282E08083E0915D02F0915E02108225
:102FA000E0915F02F09160028FEC808310926902E1
:102FB000E0916502F091660286E08083E091630211
:102FC000F0916402808180618083E0916302F091DE
:102FD0006402808188608083E0916302F0916402E2
:102FE000808180688083E0916302F0916402808137
:102FF0008F7D808361E08FE00E94770210922E0423
:1030000010922D0410922C0410922B0410922A047A
:10301000109229048DE991E09093300480932F045D
:1030200090911F04963108F047C02DEB30E03093AB
:103030002A04209329042BE931E030932C042093B7
:103040002B042CE231E030932E0420932D042091A8
:10305000680084E0983048F031E09E3008F430E0B9
:1030600081E001C0880F3A95EAF7822B80936800CF
:103070002DE630E0983050F02BE630E09E3030F016
:103080002CE630E0963110F030E020E03093270459
:1030900020932604292F30E0983008F099C081E071
:1030A00001C0880F9A95EAF78093280480912F0435
:1030B000909130040197F1F70E949D006AE070E062
:1030C00080E090E00E94E80261E088E00E947702E0
:1030D00060E089E00E94770261E085E00E9477026B
:1030E000E091F402F091F50213861586148612869B
:1030F000118610861782168215821482138210920E
:10310000F2021092F30201E0BE016F5F7F4F8091E7
:10311000F4029091F5020E94740B882309F475C0A3
:1031200067E0CE0101960E946C0598858913ECCF6B
:103130008091EE02811128C08091F4029091F502F5
:103140000E942906BE016F5F7F4F8091F40290912B
:10315000F5020E940A0640E064EB8091F40290912F
:10316000F5020E94D6058091F4029091F5020E942A
:103170008305182F8091F4029091F5020E94290690
:10318000111102C00093EE021091EF02898180318B
:1031900009F4CFC1CE0101960E94AD06811728F532
:1031A0008091EF028093EF028091F2028F5F809313
:1031B000F2028981883231F010F5803119F08232C3
:1031C00009F0A2CF8091F3028F5F8093F3029CCF2E
:1031D0009E3040F42850310981E001C0880F2A95C3
:1031E000EAF762CF2E503109F7CF8981803111F48F
:1031F0008CE0D8CFCE0101960E94AD06D3CF8B33A1
:1032000009F3823409F080CFDDCF61E08AE00E94CB
:1032100077020E94370D81E69BE090931401809322
:103220001301809169008C7F816080936900E89A26
:103230008DE891E00E94240D80E0E82E80E0F82ED9
:1032400011E00E94E30E8DE494E00E94FB0382E310
:1032500094E00E94FB0388E694E00E94FB0383E86D
:1032600094E00E94FB03809112028823A1F0109247
:1032700012026AE070E080E090E00E94E8021093A1
:1032800017016AE070E080E090E00E94E8020E948E
:103290006A020E947F048EE994E00E94FB030E9470
:1032A000E30E80912F0281111EC10E941B03613D1C
:1032B00077408105910518F10E941B03AB01BC0109
:1032C00080912B0290912C02A0912D02B0912E02A0
:1032D00088519C4FAF4FBF4F84179507A607B7077C
:1032E00070F40E941B0360932B0270932C02809356
:1032F0002D0290932E0280E193E00E945D040E94D3
:103300001B03AB01BC018091270290912802A09180
:103310002902B0912A0288579C4EAF4FBF4F8417A5
:103320009507A607B70770F40E941B036093270256
:10333000709328028093290290932A0287E993E0F0
:103340000E945D0400912602002309F446C00E94F9
:103350001B03AB01BC018091220290912302A0913A
:103360002402B0912502805C904EAF4FBF4F84176E
:103370009507A607B70770F40E941B03609322020B
:103380007093230280932402909325028CE793E0AC
:103390000E945D040E941B03AB01BC0180911E02D0
:1033A00090911F02A0912002B0912102805D9A4865
:1033B000AF4FBF4F84179507A607B70770F40E9459
:1033C0001B0360931E0270931F0280932002909350
:1033D000210281E693E00E945D040E941B03613D8F
:1033E00077408105910560F080911801882341F0B4
:1033F0008BE293E00E945D0410931D02109218016D
:103400000E941B03AB01BC018091190290911A022A
:10341000A0911B02B0911C02805C9848A44EBF4F43
:1034200084179507A607B707A8F48BE293E00E94DC
:103430005D0410931D020E941B0360931902709398
:103440001A0280931B0290931C020E946A0210923F
:10345000170249C00023C9F380911D028111F5CFE5
:1034600080911802811118C080911702811104C047
:103470000E947F041093170280911102809318021A
:10348000809334020E941B03609313027093140212
:10349000809315029093160280911802882319F1E7
:1034A00080911702882321F00E946A02109217026D
:1034B000109334020E941B03AB01BC0180911302E4
:1034C00090911402A0911502B0911602805E914B6A
:1034D000AF4FBF4F84179507A607B70720F4109288
:1034E0001802109211028BE293E00E94FB0387E91D
:1034F00093E00E94FB038CE793E00E94FB0381E6CC
:1035000093E00E94FB0380E193E00E94FB0361E0F3
:1035100070E080E090E00E94E802E114F10409F418
:1035200090CE0E943B01882309F48BCE0E940000BC
:1035300088CE1D3008F034CE5BCEBB274A3031F444
:10354000992322F4BDE2909581959F4F0C94A91A7E
:10355000BB27FB015527AA27880F991FAA1FA4176D
:1035600010F0A41B83955051B9F7A05DAA3308F061
:10357000A95DA193009779F7B111B1931192CB0195
:103580000C94C21ADC01FC01672F71917723E1F7DB
:10359000329704C07C916D9370836291AE17BF0720
:1035A000C8F30895E89409C097FB3EF49095809580
:1035B000709561957F4F8F4F9F4F9923A9F0F92FF9
:1035C00096E9BB279395F695879577956795B79577
:1035D000F111F8CFFAF4BB0F11F460FF1BC06F5F5D
:1035E0007F4F8F4F9F4F16C0882311F096E911C06F
:1035F000772321F09EE8872F762F05C0662371F090
:1036000096E8862F70E060E02AF09A95660F771FA3
:10361000881FDAF7880F9695879597F90895990F7F
:103620000008550FAA0BE0E8FEEF16161706E8078C
:10363000F907C0F012161306E407F50798F0621BAD
:10364000730B840B950B39F40A2661F0232B242B82
:10365000252B21F408950A2609F4A140A6958FEFA1
:10366000811D811D08950E94461B0C94B71B0E946A
:10367000A91B38F00E94B01B20F0952311F00C9488
:10368000A01B0C94A61B11240C94EB1B0E94C81BBE
:1036900070F3959FC1F3950F50E0551F629FF001A5
:1036A000729FBB27F00DB11D639FAA27F00DB11DBE
:1036B000AA1F649F6627B00DA11D661F829F222747
:1036C000B00DA11D621F739FB00DA11D621F839FCE
:1036D000A00D611D221F749F3327A00D611D231FA4
:1036E000849F600D211D822F762F6A2F11249F57F2
:1036F00050409AF0F1F088234AF0EE0FFF1FBB1FF5
:10370000661F771F881F91505040A9F79E3F5105B3
:1037100080F00C94A01B0C94EB1B5F3FE4F3983EED
:10372000D4F3869577956795B795F795E7959F5F5D
:10373000C1F7FE2B880F911D9695879597F90895EF
:1037400097F99F6780E870E060E008959FEF80EC54
:10375000089500240A9416161706180609060895F7
:1037600000240A9412161306140605060895092E5D
:103770000394000C11F4882352F0BB0F40F4BF2BCC
:1037800011F460FF04C06F5F7F4F8F4F9F4F08950C
:1037900057FD9058440F551F59F05F3F71F0479502
:1037A000880F97FB991F61F09F3F79F087950895E7
:1037B000121613061406551FF2CF4695F1DF08C006
:1037C000161617061806991FF1CF86957105610523
:1037D00008940895E894BB2766277727CB0197F9CB
:1037E0000895052E97FB1EF400940E94081C57FDB7
:1037F00007D00E94471C07FC03D04EF40C94081C11
:1038000050954095309521953F4F4F4F5F4F08950C
:1038100090958095709561957F4F8F4F9F4F08953C
:103820002F923F924F925F926F927F928F929F92D0
:10383000AF92BF92CF92DF92EF92FF920F931F93BE
:10384000CF93DF93CDB7DEB7CA1BDB0B0FB6F8946F
:10385000DEBF0FBECDBF09942A88398848885F84AF
:103860006E847D848C849B84AA84B984C884DF8020
:10387000EE80FD800C811B81AA81B981CE0FD11D04
:103880000FB6F894DEBF0FBECDBFED010895A1E2E3
:103890001A2EAA1BBB1BFD010DC0AA1FBB1FEE1FCA
:1038A000FF1FA217B307E407F50720F0A21BB30B15
:1038B000E40BF50B661F771F881F991F1A9469F791
:1038C00060957095809590959B01AC01BD01CF01ED
:1038D0000895A29FB001B39FC001A39F700D811DE9
:1038E0001124911DB29F700D811D1124911D089509
:1038F0005058BB27AA270E94901C0C94B71B0E940B
:10390000A91B38F00E94B01B20F039F49F3F19F436
:1039100026F40C94A61B0EF4E095E7FB0C94A01B78
:10392000E92F0E94C81B58F3BA1762077307840770
:10393000950720F079F4A6F50C94EA1B0EF4E095B7
:103940000B2EBA2FA02D0B01B90190010C01CA0159
:10395000A0011124FF27591B99F0593F50F4503E04
:1039600068F11A16F040A22F232F342F4427585FF6
:10397000F3CF469537952795A795F0405395C9F70E
:103980007EF41F16BA0B620B730B840BBAF09150C6
:10399000A1F0FF0FBB1F661F771F881FC2F70EC065
:1039A000BA0F621F731F841F48F487957795679538
:1039B000B795F7959E3F08F0B0CF9395880F08F024
:1039C0009927EE0F9795879508950E94F91C0C94FE
:1039D000B71B0E94B01B58F00E94A91B40F029F4AD
:1039E0005F3F29F00C94A01B51110C94EB1B0C941D
:1039F000A61B0E94C81B68F39923B1F3552391F3CA
:103A0000951B550BBB27AA2762177307840738F04D
:103A10009F5F5F4F220F331F441FAA1FA9F335D0AA
:103A20000E2E3AF0E0E832D091505040E695001C5E
:103A3000CAF72BD0FE2F29D0660F771F881FBB1F18
:103A4000261737074807AB07B0E809F0BB0B802DF6
:103A5000BF01FF2793585F4F3AF09E3F510578F022
:103A60000C94A01B0C94EB1B5F3FE4F3983ED4F343
:103A7000869577956795B795F7959F5FC9F7880FF6
:103A8000911D9695879597F90895E1E0660F771F48
:103A9000881FBB1F621773078407BA0720F0621BD9
:103AA000730B840BBA0BEE1F88F7E09508950E9404
:103AB0005E1D6894B1110C94EB1B08950E94D01BFD
:103AC00088F09F5798F0B92F9927B751B0F0E1F0DF
:103AD000660F771F881F991F1AF0BA95C9F714C08F
:103AE000B13091F00E94EA1BB1E008950C94EA1BFA
:103AF000672F782F8827B85F39F0B93FCCF38695C8
:103B000077956795B395D9F73EF490958095709524
:103B100061957F4F8F4F9F4F08950E940F1B08F4B0
:103B20008FEF089519F416F40C94A61B0C94D81D6D
:103B30000E94D01BB8F39923C9F3B6F39F57550BD6
:103B400087FF0E94E61D0024A0E640EA900180580D
:103B50005695979528F4805C660F771F881F20F094
:103B600026173707480730F4621B730B840B202994
:103B700031294A2BA69517940794202531254A27E9
:103B800058F7660F771F881F20F02617370748075A
:103B900030F4620B730B840B200D311D411DA09579
:103BA00081F7B901842F9158880F969587950895CC
:103BB0009F3F31F0915020F4879577956795B795A1
:103BC000880F911D9695879597F9089591505040CB
:103BD000660F771F881FD2F7089597FB072E16F4FC
:103BE000009407D077FD09D00E94081E07FC05D07D
:103BF0003EF4909581959F4F0895709561957F4F04
:103C000008950E94691CB7FF0895821B930B0895C5
:103C1000AA1BBB1B51E107C0AA1FBB1FA617B707F2
:103C200010F0A61BB70B881F991F5A95A9F780950E
:103C30009095BC01CD010895EE0FFF1F0590F49102
:103C4000E02D09940F931F93CF93DF93823091055A
:103C500010F482E090E0E091BB04F091BC0430E00D
:103C600020E0B0E0A0E0309799F42115310509F487
:103C70004AC0281B390B24303105D8F58A819B8135
:103C80006115710589F1FB0193838283FE0111C0E7
:103C9000408151810281138148175907E0F048178C
:103CA000590799F4109761F012960C931297139696
:103CB0001C933296CF01DF91CF911F910F91089500
:103CC0000093BB041093BC04F4CF2115310551F0CF
:103CD0004217530738F0A901DB019A01BD01DF014A
:103CE000F801C1CFEF01F9CF9093BC048093BB04DE
:103CF000CDCFFE01E20FF31F819391932250310942
:103D000039832883D7CF2091B9043091BA04232B6B
:103D100041F420911F01309120013093BA04209387
:103D2000B90420911D0130911E012115310541F486
:103D30002DB73EB74091210150912201241B350B34
:103D4000E091B904F091BA04E217F307A0F42E1B36
:103D50003F0B2817390778F0AC014E5F5F4F2417EF
:103D6000350748F04E0F5F1F5093BA044093B904D3
:103D7000819391939FCFF0E0E0E09CCFCF93DF93CE
:103D80000097E9F0FC01329713821282A091BB04E4
:103D9000B091BC04ED0130E020E01097A1F4208147
:103DA0003181820F931F2091B9043091BA042817F2
:103DB000390709F061C0F093BA04E093B904DF91C8
:103DC000CF910895EA01CE17DF07E8F54A815B81BC
:103DD0009E0141155105B1F7E901FB83EA83499141
:103DE0005991C40FD51FEC17FD0761F480819181B3
:103DF0000296840F951FE9019983888382819381BC
:103E00009B838A83F0E0E0E012968D919C9113975A
:103E10000097B9F52D913C911197CD010296820F33
:103E2000931F2091B9043091BA042817390739F645
:103E3000309751F51092BC041092BB04B093BA04B1
:103E4000A093B904BCCFD383C28340815181840F36
:103E5000951FC817D90761F44E5F5F4F888199811C
:103E6000480F591F518340838A819B8193838283AA
:103E70002115310509F0B0CFF093BC04E093BB04E9
:103E80009ECFFD01DC01C0CF13821282D7CFB0E0FC
:103E9000A0E0EDE4FFE10C94121C8C01009751F4BA
:103EA000CB010E94221E8C01C801CDB7DEB7E0E134
:103EB0000C942E1CFC01E60FF71F9C0122503109C7
:103EC000E217F30708F49DC0D901CD91DC91119759
:103ED000C617D70798F0C530D10530F3CE01049747
:103EE0008617970708F3C61BD70B2297C193D19368
:103EF0006D937C93CF010E94BE1ED6CF5B01AC1A9E
:103F0000BD0A4C018C0E9D1EA091BB04B091BC0457
:103F1000512C412CF12CE12C109731F58091B904F2
:103F20009091BA048815990509F05CC046165706A9
:103F300008F058C080911D0190911E01009741F436
:103F40008DB79EB74091210150912201841B950BA2
:103F5000E817F90708F055C0F093BA04E093B904E4
:103F6000F90171836083A0CF8D919C911197129676
:103F70006C90129713967C901397A815B90559F574
:103F80006C0142E0C40ED11CCA14DB0420F1AC0168
:103F90004A195B09DA011296159780F062827382E2
:103FA00051834083D9016D937C93E114F10471F046
:103FB000D7011396FC93EE93129776CF22968C0F2F
:103FC0009D1FF90191838083F301EFCFF093BC042F
:103FD000E093BB0469CF4816590608F42C017D0113
:103FE000D3019ACFCB010E94221E7C01009749F099
:103FF000AE01B8010E940420C8010E94BE1E8701C4
:1040000053CF10E000E050CFFB01DC0102C0019073
:104010000D9241505040D8F70895FB01DC018D917D
:10402000019080190110D9F3990B0895FB01DC016F
:1040300001900D920020E1F70895FB01DC01415051
:10404000504048F001900D920020C9F701C01D9228
:1040500041505040E0F7089510E0C2E7D0E004C0BE
:10406000FE010E941C1E2196C337D107C9F7F894A0
:02407000FFCF80
:10407200010101010100000000010002000300042F
:104082000005002703270301010000803F0000BD57
:104092000480005E00BC007701000000007101D1C5
:1040A20000FE00BE012F010D0121010000000041B0
:1040B20003D100D60340039D03B50328030D0A0074
:1040C2004154004F4B0041542B4942453200415468
:1040D2002B494245330030300041542B4144445275
:1040E2003F0041542B494245303030303037303672
:1040F200370041542B49424531003836007365740C
:0E4102007570207465726D696E61646F0000E7
:107E0000112484B714BE81FFF0D085E080938100F7
:107E100082E08093C00088E18093C10086E0809377
:107E2000C20080E18093C4008EE0C9D0259A86E02C
:107E300020E33CEF91E0309385002093840096BBD3
:107E4000B09BFECF1D9AA8958150A9F7CC24DD24C4
:107E500088248394B5E0AB2EA1E19A2EF3E0BF2EE7
:107E6000A2D0813461F49FD0082FAFD0023811F036
:107E7000013811F484E001C083E08DD089C08234E0
:107E800011F484E103C0853419F485E0A6D080C0E4
:107E9000853579F488D0E82EFF2485D0082F10E0AE
:107EA000102F00270E291F29000F111F8ED06801E7
:107EB0006FC0863521F484E090D080E0DECF843638
:107EC00009F040C070D06FD0082F6DD080E0C81688
:107ED00080E7D80618F4F601B7BEE895C0E0D1E017
:107EE00062D089930C17E1F7F0E0CF16F0E7DF06D8
:107EF00018F0F601B7BEE89568D007B600FCFDCFD4
:107F0000A601A0E0B1E02C9130E011968C91119780
:107F100090E0982F8827822B932B1296FA010C0160
:107F200087BEE89511244E5F5F4FF1E0A038BF0790
:107F300051F7F601A7BEE89507B600FCFDCF97BE46
:107F4000E89526C08437B1F42ED02DD0F82E2BD052
:107F50003CD0F601EF2C8F010F5F1F4F84911BD097
:107F6000EA94F801C1F70894C11CD11CFA94CF0C13
:107F7000D11C0EC0853739F428D08EE10CD085E9AC
:107F80000AD08FE07ACF813511F488E018D01DD067
:107F900080E101D065CF982F8091C00085FFFCCF94
:107FA0009093C60008958091C00087FFFCCF809118
:107FB000C00084FD01C0A8958091C6000895E0E648
:107FC000F0E098E1908380830895EDDF803219F02E
:107FD00088E0F5DFFFCF84E1DECF1F93182FE3DFCA
:107FE0001150E9F7F2DF1F91089580E0E8DFEE27F6
:047FF000FF270994CA
:027FFE00040479
:0400000300007E007B
:00000001FF
